
Proyecto_Temp_Hum.elf:     file format elf32-littlearm

Sections:
Idx Name          Size      VMA       LMA       File off  Algn
  0 .isr_vector   00000198  08000000  08000000  00010000  2**0
                  CONTENTS, ALLOC, LOAD, READONLY, DATA
  1 .text         00007f88  080001a0  080001a0  000101a0  2**4
                  CONTENTS, ALLOC, LOAD, READONLY, CODE
  2 .rodata       0000043c  08008128  08008128  00018128  2**3
                  CONTENTS, ALLOC, LOAD, READONLY, DATA
  3 .ARM.extab    00000000  08008564  08008564  000201dc  2**0
                  CONTENTS
  4 .ARM          00000008  08008564  08008564  00018564  2**2
                  CONTENTS, ALLOC, LOAD, READONLY, DATA
  5 .preinit_array 00000000  0800856c  0800856c  000201dc  2**0
                  CONTENTS, ALLOC, LOAD, DATA
  6 .init_array   00000004  0800856c  0800856c  0001856c  2**2
                  CONTENTS, ALLOC, LOAD, DATA
  7 .fini_array   00000004  08008570  08008570  00018570  2**2
                  CONTENTS, ALLOC, LOAD, DATA
  8 .data         000001dc  20000000  08008574  00020000  2**2
                  CONTENTS, ALLOC, LOAD, DATA
  9 .bss          000001bc  200001dc  08008750  000201dc  2**2
                  ALLOC
 10 ._user_heap_stack 00000600  20000398  08008750  00020398  2**0
                  ALLOC
 11 .ARM.attributes 00000030  00000000  00000000  000201dc  2**0
                  CONTENTS, READONLY
 12 .debug_info   00010ff2  00000000  00000000  0002020c  2**0
                  CONTENTS, READONLY, DEBUGGING, OCTETS
 13 .debug_abbrev 000025b7  00000000  00000000  000311fe  2**0
                  CONTENTS, READONLY, DEBUGGING, OCTETS
 14 .debug_aranges 00001050  00000000  00000000  000337b8  2**3
                  CONTENTS, READONLY, DEBUGGING, OCTETS
 15 .debug_ranges 00000f40  00000000  00000000  00034808  2**3
                  CONTENTS, READONLY, DEBUGGING, OCTETS
 16 .debug_macro  00019549  00000000  00000000  00035748  2**0
                  CONTENTS, READONLY, DEBUGGING, OCTETS
 17 .debug_line   0001316e  00000000  00000000  0004ec91  2**0
                  CONTENTS, READONLY, DEBUGGING, OCTETS
 18 .debug_str    000a1379  00000000  00000000  00061dff  2**0
                  CONTENTS, READONLY, DEBUGGING, OCTETS
 19 .comment      00000050  00000000  00000000  00103178  2**0
                  CONTENTS, READONLY
 20 .debug_frame  000056d8  00000000  00000000  001031c8  2**2
                  CONTENTS, READONLY, DEBUGGING, OCTETS

Disassembly of section .text:

080001a0 <__do_global_dtors_aux>:
 80001a0:	b510      	push	{r4, lr}
 80001a2:	4c05      	ldr	r4, [pc, #20]	; (80001b8 <__do_global_dtors_aux+0x18>)
 80001a4:	7823      	ldrb	r3, [r4, #0]
 80001a6:	b933      	cbnz	r3, 80001b6 <__do_global_dtors_aux+0x16>
 80001a8:	4b04      	ldr	r3, [pc, #16]	; (80001bc <__do_global_dtors_aux+0x1c>)
 80001aa:	b113      	cbz	r3, 80001b2 <__do_global_dtors_aux+0x12>
 80001ac:	4804      	ldr	r0, [pc, #16]	; (80001c0 <__do_global_dtors_aux+0x20>)
 80001ae:	f3af 8000 	nop.w
 80001b2:	2301      	movs	r3, #1
 80001b4:	7023      	strb	r3, [r4, #0]
 80001b6:	bd10      	pop	{r4, pc}
 80001b8:	200001dc 	.word	0x200001dc
 80001bc:	00000000 	.word	0x00000000
 80001c0:	08008110 	.word	0x08008110

080001c4 <frame_dummy>:
 80001c4:	b508      	push	{r3, lr}
 80001c6:	4b03      	ldr	r3, [pc, #12]	; (80001d4 <frame_dummy+0x10>)
 80001c8:	b11b      	cbz	r3, 80001d2 <frame_dummy+0xe>
 80001ca:	4903      	ldr	r1, [pc, #12]	; (80001d8 <frame_dummy+0x14>)
 80001cc:	4803      	ldr	r0, [pc, #12]	; (80001dc <frame_dummy+0x18>)
 80001ce:	f3af 8000 	nop.w
 80001d2:	bd08      	pop	{r3, pc}
 80001d4:	00000000 	.word	0x00000000
 80001d8:	200001e0 	.word	0x200001e0
 80001dc:	08008110 	.word	0x08008110

080001e0 <strlen>:
 80001e0:	4603      	mov	r3, r0
 80001e2:	f813 2b01 	ldrb.w	r2, [r3], #1
 80001e6:	2a00      	cmp	r2, #0
 80001e8:	d1fb      	bne.n	80001e2 <strlen+0x2>
 80001ea:	1a18      	subs	r0, r3, r0
 80001ec:	3801      	subs	r0, #1
 80001ee:	4770      	bx	lr

080001f0 <memchr>:
 80001f0:	f001 01ff 	and.w	r1, r1, #255	; 0xff
 80001f4:	2a10      	cmp	r2, #16
 80001f6:	db2b      	blt.n	8000250 <memchr+0x60>
 80001f8:	f010 0f07 	tst.w	r0, #7
 80001fc:	d008      	beq.n	8000210 <memchr+0x20>
 80001fe:	f810 3b01 	ldrb.w	r3, [r0], #1
 8000202:	3a01      	subs	r2, #1
 8000204:	428b      	cmp	r3, r1
 8000206:	d02d      	beq.n	8000264 <memchr+0x74>
 8000208:	f010 0f07 	tst.w	r0, #7
 800020c:	b342      	cbz	r2, 8000260 <memchr+0x70>
 800020e:	d1f6      	bne.n	80001fe <memchr+0xe>
 8000210:	b4f0      	push	{r4, r5, r6, r7}
 8000212:	ea41 2101 	orr.w	r1, r1, r1, lsl #8
 8000216:	ea41 4101 	orr.w	r1, r1, r1, lsl #16
 800021a:	f022 0407 	bic.w	r4, r2, #7
 800021e:	f07f 0700 	mvns.w	r7, #0
 8000222:	2300      	movs	r3, #0
 8000224:	e8f0 5602 	ldrd	r5, r6, [r0], #8
 8000228:	3c08      	subs	r4, #8
 800022a:	ea85 0501 	eor.w	r5, r5, r1
 800022e:	ea86 0601 	eor.w	r6, r6, r1
 8000232:	fa85 f547 	uadd8	r5, r5, r7
 8000236:	faa3 f587 	sel	r5, r3, r7
 800023a:	fa86 f647 	uadd8	r6, r6, r7
 800023e:	faa5 f687 	sel	r6, r5, r7
 8000242:	b98e      	cbnz	r6, 8000268 <memchr+0x78>
 8000244:	d1ee      	bne.n	8000224 <memchr+0x34>
 8000246:	bcf0      	pop	{r4, r5, r6, r7}
 8000248:	f001 01ff 	and.w	r1, r1, #255	; 0xff
 800024c:	f002 0207 	and.w	r2, r2, #7
 8000250:	b132      	cbz	r2, 8000260 <memchr+0x70>
 8000252:	f810 3b01 	ldrb.w	r3, [r0], #1
 8000256:	3a01      	subs	r2, #1
 8000258:	ea83 0301 	eor.w	r3, r3, r1
 800025c:	b113      	cbz	r3, 8000264 <memchr+0x74>
 800025e:	d1f8      	bne.n	8000252 <memchr+0x62>
 8000260:	2000      	movs	r0, #0
 8000262:	4770      	bx	lr
 8000264:	3801      	subs	r0, #1
 8000266:	4770      	bx	lr
 8000268:	2d00      	cmp	r5, #0
 800026a:	bf06      	itte	eq
 800026c:	4635      	moveq	r5, r6
 800026e:	3803      	subeq	r0, #3
 8000270:	3807      	subne	r0, #7
 8000272:	f015 0f01 	tst.w	r5, #1
 8000276:	d107      	bne.n	8000288 <memchr+0x98>
 8000278:	3001      	adds	r0, #1
 800027a:	f415 7f80 	tst.w	r5, #256	; 0x100
 800027e:	bf02      	ittt	eq
 8000280:	3001      	addeq	r0, #1
 8000282:	f415 3fc0 	tsteq.w	r5, #98304	; 0x18000
 8000286:	3001      	addeq	r0, #1
 8000288:	bcf0      	pop	{r4, r5, r6, r7}
 800028a:	3801      	subs	r0, #1
 800028c:	4770      	bx	lr
 800028e:	bf00      	nop

08000290 <__aeabi_drsub>:
 8000290:	f081 4100 	eor.w	r1, r1, #2147483648	; 0x80000000
 8000294:	e002      	b.n	800029c <__adddf3>
 8000296:	bf00      	nop

08000298 <__aeabi_dsub>:
 8000298:	f083 4300 	eor.w	r3, r3, #2147483648	; 0x80000000

0800029c <__adddf3>:
 800029c:	b530      	push	{r4, r5, lr}
 800029e:	ea4f 0441 	mov.w	r4, r1, lsl #1
 80002a2:	ea4f 0543 	mov.w	r5, r3, lsl #1
 80002a6:	ea94 0f05 	teq	r4, r5
 80002aa:	bf08      	it	eq
 80002ac:	ea90 0f02 	teqeq	r0, r2
 80002b0:	bf1f      	itttt	ne
 80002b2:	ea54 0c00 	orrsne.w	ip, r4, r0
 80002b6:	ea55 0c02 	orrsne.w	ip, r5, r2
 80002ba:	ea7f 5c64 	mvnsne.w	ip, r4, asr #21
 80002be:	ea7f 5c65 	mvnsne.w	ip, r5, asr #21
 80002c2:	f000 80e2 	beq.w	800048a <__adddf3+0x1ee>
 80002c6:	ea4f 5454 	mov.w	r4, r4, lsr #21
 80002ca:	ebd4 5555 	rsbs	r5, r4, r5, lsr #21
 80002ce:	bfb8      	it	lt
 80002d0:	426d      	neglt	r5, r5
 80002d2:	dd0c      	ble.n	80002ee <__adddf3+0x52>
 80002d4:	442c      	add	r4, r5
 80002d6:	ea80 0202 	eor.w	r2, r0, r2
 80002da:	ea81 0303 	eor.w	r3, r1, r3
 80002de:	ea82 0000 	eor.w	r0, r2, r0
 80002e2:	ea83 0101 	eor.w	r1, r3, r1
 80002e6:	ea80 0202 	eor.w	r2, r0, r2
 80002ea:	ea81 0303 	eor.w	r3, r1, r3
 80002ee:	2d36      	cmp	r5, #54	; 0x36
 80002f0:	bf88      	it	hi
 80002f2:	bd30      	pophi	{r4, r5, pc}
 80002f4:	f011 4f00 	tst.w	r1, #2147483648	; 0x80000000
 80002f8:	ea4f 3101 	mov.w	r1, r1, lsl #12
 80002fc:	f44f 1c80 	mov.w	ip, #1048576	; 0x100000
 8000300:	ea4c 3111 	orr.w	r1, ip, r1, lsr #12
 8000304:	d002      	beq.n	800030c <__adddf3+0x70>
 8000306:	4240      	negs	r0, r0
 8000308:	eb61 0141 	sbc.w	r1, r1, r1, lsl #1
 800030c:	f013 4f00 	tst.w	r3, #2147483648	; 0x80000000
 8000310:	ea4f 3303 	mov.w	r3, r3, lsl #12
 8000314:	ea4c 3313 	orr.w	r3, ip, r3, lsr #12
 8000318:	d002      	beq.n	8000320 <__adddf3+0x84>
 800031a:	4252      	negs	r2, r2
 800031c:	eb63 0343 	sbc.w	r3, r3, r3, lsl #1
 8000320:	ea94 0f05 	teq	r4, r5
 8000324:	f000 80a7 	beq.w	8000476 <__adddf3+0x1da>
 8000328:	f1a4 0401 	sub.w	r4, r4, #1
 800032c:	f1d5 0e20 	rsbs	lr, r5, #32
 8000330:	db0d      	blt.n	800034e <__adddf3+0xb2>
 8000332:	fa02 fc0e 	lsl.w	ip, r2, lr
 8000336:	fa22 f205 	lsr.w	r2, r2, r5
 800033a:	1880      	adds	r0, r0, r2
 800033c:	f141 0100 	adc.w	r1, r1, #0
 8000340:	fa03 f20e 	lsl.w	r2, r3, lr
 8000344:	1880      	adds	r0, r0, r2
 8000346:	fa43 f305 	asr.w	r3, r3, r5
 800034a:	4159      	adcs	r1, r3
 800034c:	e00e      	b.n	800036c <__adddf3+0xd0>
 800034e:	f1a5 0520 	sub.w	r5, r5, #32
 8000352:	f10e 0e20 	add.w	lr, lr, #32
 8000356:	2a01      	cmp	r2, #1
 8000358:	fa03 fc0e 	lsl.w	ip, r3, lr
 800035c:	bf28      	it	cs
 800035e:	f04c 0c02 	orrcs.w	ip, ip, #2
 8000362:	fa43 f305 	asr.w	r3, r3, r5
 8000366:	18c0      	adds	r0, r0, r3
 8000368:	eb51 71e3 	adcs.w	r1, r1, r3, asr #31
 800036c:	f001 4500 	and.w	r5, r1, #2147483648	; 0x80000000
 8000370:	d507      	bpl.n	8000382 <__adddf3+0xe6>
 8000372:	f04f 0e00 	mov.w	lr, #0
 8000376:	f1dc 0c00 	rsbs	ip, ip, #0
 800037a:	eb7e 0000 	sbcs.w	r0, lr, r0
 800037e:	eb6e 0101 	sbc.w	r1, lr, r1
 8000382:	f5b1 1f80 	cmp.w	r1, #1048576	; 0x100000
 8000386:	d31b      	bcc.n	80003c0 <__adddf3+0x124>
 8000388:	f5b1 1f00 	cmp.w	r1, #2097152	; 0x200000
 800038c:	d30c      	bcc.n	80003a8 <__adddf3+0x10c>
 800038e:	0849      	lsrs	r1, r1, #1
 8000390:	ea5f 0030 	movs.w	r0, r0, rrx
 8000394:	ea4f 0c3c 	mov.w	ip, ip, rrx
 8000398:	f104 0401 	add.w	r4, r4, #1
 800039c:	ea4f 5244 	mov.w	r2, r4, lsl #21
 80003a0:	f512 0f80 	cmn.w	r2, #4194304	; 0x400000
 80003a4:	f080 809a 	bcs.w	80004dc <__adddf3+0x240>
 80003a8:	f1bc 4f00 	cmp.w	ip, #2147483648	; 0x80000000
 80003ac:	bf08      	it	eq
 80003ae:	ea5f 0c50 	movseq.w	ip, r0, lsr #1
 80003b2:	f150 0000 	adcs.w	r0, r0, #0
 80003b6:	eb41 5104 	adc.w	r1, r1, r4, lsl #20
 80003ba:	ea41 0105 	orr.w	r1, r1, r5
 80003be:	bd30      	pop	{r4, r5, pc}
 80003c0:	ea5f 0c4c 	movs.w	ip, ip, lsl #1
 80003c4:	4140      	adcs	r0, r0
 80003c6:	eb41 0101 	adc.w	r1, r1, r1
 80003ca:	3c01      	subs	r4, #1
 80003cc:	bf28      	it	cs
 80003ce:	f5b1 1f80 	cmpcs.w	r1, #1048576	; 0x100000
 80003d2:	d2e9      	bcs.n	80003a8 <__adddf3+0x10c>
 80003d4:	f091 0f00 	teq	r1, #0
 80003d8:	bf04      	itt	eq
 80003da:	4601      	moveq	r1, r0
 80003dc:	2000      	moveq	r0, #0
 80003de:	fab1 f381 	clz	r3, r1
 80003e2:	bf08      	it	eq
 80003e4:	3320      	addeq	r3, #32
 80003e6:	f1a3 030b 	sub.w	r3, r3, #11
 80003ea:	f1b3 0220 	subs.w	r2, r3, #32
 80003ee:	da0c      	bge.n	800040a <__adddf3+0x16e>
 80003f0:	320c      	adds	r2, #12
 80003f2:	dd08      	ble.n	8000406 <__adddf3+0x16a>
 80003f4:	f102 0c14 	add.w	ip, r2, #20
 80003f8:	f1c2 020c 	rsb	r2, r2, #12
 80003fc:	fa01 f00c 	lsl.w	r0, r1, ip
 8000400:	fa21 f102 	lsr.w	r1, r1, r2
 8000404:	e00c      	b.n	8000420 <__adddf3+0x184>
 8000406:	f102 0214 	add.w	r2, r2, #20
 800040a:	bfd8      	it	le
 800040c:	f1c2 0c20 	rsble	ip, r2, #32
 8000410:	fa01 f102 	lsl.w	r1, r1, r2
 8000414:	fa20 fc0c 	lsr.w	ip, r0, ip
 8000418:	bfdc      	itt	le
 800041a:	ea41 010c 	orrle.w	r1, r1, ip
 800041e:	4090      	lslle	r0, r2
 8000420:	1ae4      	subs	r4, r4, r3
 8000422:	bfa2      	ittt	ge
 8000424:	eb01 5104 	addge.w	r1, r1, r4, lsl #20
 8000428:	4329      	orrge	r1, r5
 800042a:	bd30      	popge	{r4, r5, pc}
 800042c:	ea6f 0404 	mvn.w	r4, r4
 8000430:	3c1f      	subs	r4, #31
 8000432:	da1c      	bge.n	800046e <__adddf3+0x1d2>
 8000434:	340c      	adds	r4, #12
 8000436:	dc0e      	bgt.n	8000456 <__adddf3+0x1ba>
 8000438:	f104 0414 	add.w	r4, r4, #20
 800043c:	f1c4 0220 	rsb	r2, r4, #32
 8000440:	fa20 f004 	lsr.w	r0, r0, r4
 8000444:	fa01 f302 	lsl.w	r3, r1, r2
 8000448:	ea40 0003 	orr.w	r0, r0, r3
 800044c:	fa21 f304 	lsr.w	r3, r1, r4
 8000450:	ea45 0103 	orr.w	r1, r5, r3
 8000454:	bd30      	pop	{r4, r5, pc}
 8000456:	f1c4 040c 	rsb	r4, r4, #12
 800045a:	f1c4 0220 	rsb	r2, r4, #32
 800045e:	fa20 f002 	lsr.w	r0, r0, r2
 8000462:	fa01 f304 	lsl.w	r3, r1, r4
 8000466:	ea40 0003 	orr.w	r0, r0, r3
 800046a:	4629      	mov	r1, r5
 800046c:	bd30      	pop	{r4, r5, pc}
 800046e:	fa21 f004 	lsr.w	r0, r1, r4
 8000472:	4629      	mov	r1, r5
 8000474:	bd30      	pop	{r4, r5, pc}
 8000476:	f094 0f00 	teq	r4, #0
 800047a:	f483 1380 	eor.w	r3, r3, #1048576	; 0x100000
 800047e:	bf06      	itte	eq
 8000480:	f481 1180 	eoreq.w	r1, r1, #1048576	; 0x100000
 8000484:	3401      	addeq	r4, #1
 8000486:	3d01      	subne	r5, #1
 8000488:	e74e      	b.n	8000328 <__adddf3+0x8c>
 800048a:	ea7f 5c64 	mvns.w	ip, r4, asr #21
 800048e:	bf18      	it	ne
 8000490:	ea7f 5c65 	mvnsne.w	ip, r5, asr #21
 8000494:	d029      	beq.n	80004ea <__adddf3+0x24e>
 8000496:	ea94 0f05 	teq	r4, r5
 800049a:	bf08      	it	eq
 800049c:	ea90 0f02 	teqeq	r0, r2
 80004a0:	d005      	beq.n	80004ae <__adddf3+0x212>
 80004a2:	ea54 0c00 	orrs.w	ip, r4, r0
 80004a6:	bf04      	itt	eq
 80004a8:	4619      	moveq	r1, r3
 80004aa:	4610      	moveq	r0, r2
 80004ac:	bd30      	pop	{r4, r5, pc}
 80004ae:	ea91 0f03 	teq	r1, r3
 80004b2:	bf1e      	ittt	ne
 80004b4:	2100      	movne	r1, #0
 80004b6:	2000      	movne	r0, #0
 80004b8:	bd30      	popne	{r4, r5, pc}
 80004ba:	ea5f 5c54 	movs.w	ip, r4, lsr #21
 80004be:	d105      	bne.n	80004cc <__adddf3+0x230>
 80004c0:	0040      	lsls	r0, r0, #1
 80004c2:	4149      	adcs	r1, r1
 80004c4:	bf28      	it	cs
 80004c6:	f041 4100 	orrcs.w	r1, r1, #2147483648	; 0x80000000
 80004ca:	bd30      	pop	{r4, r5, pc}
 80004cc:	f514 0480 	adds.w	r4, r4, #4194304	; 0x400000
 80004d0:	bf3c      	itt	cc
 80004d2:	f501 1180 	addcc.w	r1, r1, #1048576	; 0x100000
 80004d6:	bd30      	popcc	{r4, r5, pc}
 80004d8:	f001 4500 	and.w	r5, r1, #2147483648	; 0x80000000
 80004dc:	f045 41fe 	orr.w	r1, r5, #2130706432	; 0x7f000000
 80004e0:	f441 0170 	orr.w	r1, r1, #15728640	; 0xf00000
 80004e4:	f04f 0000 	mov.w	r0, #0
 80004e8:	bd30      	pop	{r4, r5, pc}
 80004ea:	ea7f 5c64 	mvns.w	ip, r4, asr #21
 80004ee:	bf1a      	itte	ne
 80004f0:	4619      	movne	r1, r3
 80004f2:	4610      	movne	r0, r2
 80004f4:	ea7f 5c65 	mvnseq.w	ip, r5, asr #21
 80004f8:	bf1c      	itt	ne
 80004fa:	460b      	movne	r3, r1
 80004fc:	4602      	movne	r2, r0
 80004fe:	ea50 3401 	orrs.w	r4, r0, r1, lsl #12
 8000502:	bf06      	itte	eq
 8000504:	ea52 3503 	orrseq.w	r5, r2, r3, lsl #12
 8000508:	ea91 0f03 	teqeq	r1, r3
 800050c:	f441 2100 	orrne.w	r1, r1, #524288	; 0x80000
 8000510:	bd30      	pop	{r4, r5, pc}
 8000512:	bf00      	nop

08000514 <__aeabi_ui2d>:
 8000514:	f090 0f00 	teq	r0, #0
 8000518:	bf04      	itt	eq
 800051a:	2100      	moveq	r1, #0
 800051c:	4770      	bxeq	lr
 800051e:	b530      	push	{r4, r5, lr}
 8000520:	f44f 6480 	mov.w	r4, #1024	; 0x400
 8000524:	f104 0432 	add.w	r4, r4, #50	; 0x32
 8000528:	f04f 0500 	mov.w	r5, #0
 800052c:	f04f 0100 	mov.w	r1, #0
 8000530:	e750      	b.n	80003d4 <__adddf3+0x138>
 8000532:	bf00      	nop

08000534 <__aeabi_i2d>:
 8000534:	f090 0f00 	teq	r0, #0
 8000538:	bf04      	itt	eq
 800053a:	2100      	moveq	r1, #0
 800053c:	4770      	bxeq	lr
 800053e:	b530      	push	{r4, r5, lr}
 8000540:	f44f 6480 	mov.w	r4, #1024	; 0x400
 8000544:	f104 0432 	add.w	r4, r4, #50	; 0x32
 8000548:	f010 4500 	ands.w	r5, r0, #2147483648	; 0x80000000
 800054c:	bf48      	it	mi
 800054e:	4240      	negmi	r0, r0
 8000550:	f04f 0100 	mov.w	r1, #0
 8000554:	e73e      	b.n	80003d4 <__adddf3+0x138>
 8000556:	bf00      	nop

08000558 <__aeabi_f2d>:
 8000558:	0042      	lsls	r2, r0, #1
 800055a:	ea4f 01e2 	mov.w	r1, r2, asr #3
 800055e:	ea4f 0131 	mov.w	r1, r1, rrx
 8000562:	ea4f 7002 	mov.w	r0, r2, lsl #28
 8000566:	bf1f      	itttt	ne
 8000568:	f012 437f 	andsne.w	r3, r2, #4278190080	; 0xff000000
 800056c:	f093 4f7f 	teqne	r3, #4278190080	; 0xff000000
 8000570:	f081 5160 	eorne.w	r1, r1, #939524096	; 0x38000000
 8000574:	4770      	bxne	lr
 8000576:	f032 427f 	bics.w	r2, r2, #4278190080	; 0xff000000
 800057a:	bf08      	it	eq
 800057c:	4770      	bxeq	lr
 800057e:	f093 4f7f 	teq	r3, #4278190080	; 0xff000000
 8000582:	bf04      	itt	eq
 8000584:	f441 2100 	orreq.w	r1, r1, #524288	; 0x80000
 8000588:	4770      	bxeq	lr
 800058a:	b530      	push	{r4, r5, lr}
 800058c:	f44f 7460 	mov.w	r4, #896	; 0x380
 8000590:	f001 4500 	and.w	r5, r1, #2147483648	; 0x80000000
 8000594:	f021 4100 	bic.w	r1, r1, #2147483648	; 0x80000000
 8000598:	e71c      	b.n	80003d4 <__adddf3+0x138>
 800059a:	bf00      	nop

0800059c <__aeabi_ul2d>:
 800059c:	ea50 0201 	orrs.w	r2, r0, r1
 80005a0:	bf08      	it	eq
 80005a2:	4770      	bxeq	lr
 80005a4:	b530      	push	{r4, r5, lr}
 80005a6:	f04f 0500 	mov.w	r5, #0
 80005aa:	e00a      	b.n	80005c2 <__aeabi_l2d+0x16>

080005ac <__aeabi_l2d>:
 80005ac:	ea50 0201 	orrs.w	r2, r0, r1
 80005b0:	bf08      	it	eq
 80005b2:	4770      	bxeq	lr
 80005b4:	b530      	push	{r4, r5, lr}
 80005b6:	f011 4500 	ands.w	r5, r1, #2147483648	; 0x80000000
 80005ba:	d502      	bpl.n	80005c2 <__aeabi_l2d+0x16>
 80005bc:	4240      	negs	r0, r0
 80005be:	eb61 0141 	sbc.w	r1, r1, r1, lsl #1
 80005c2:	f44f 6480 	mov.w	r4, #1024	; 0x400
 80005c6:	f104 0432 	add.w	r4, r4, #50	; 0x32
 80005ca:	ea5f 5c91 	movs.w	ip, r1, lsr #22
 80005ce:	f43f aed8 	beq.w	8000382 <__adddf3+0xe6>
 80005d2:	f04f 0203 	mov.w	r2, #3
 80005d6:	ea5f 0cdc 	movs.w	ip, ip, lsr #3
 80005da:	bf18      	it	ne
 80005dc:	3203      	addne	r2, #3
 80005de:	ea5f 0cdc 	movs.w	ip, ip, lsr #3
 80005e2:	bf18      	it	ne
 80005e4:	3203      	addne	r2, #3
 80005e6:	eb02 02dc 	add.w	r2, r2, ip, lsr #3
 80005ea:	f1c2 0320 	rsb	r3, r2, #32
 80005ee:	fa00 fc03 	lsl.w	ip, r0, r3
 80005f2:	fa20 f002 	lsr.w	r0, r0, r2
 80005f6:	fa01 fe03 	lsl.w	lr, r1, r3
 80005fa:	ea40 000e 	orr.w	r0, r0, lr
 80005fe:	fa21 f102 	lsr.w	r1, r1, r2
 8000602:	4414      	add	r4, r2
 8000604:	e6bd      	b.n	8000382 <__adddf3+0xe6>
 8000606:	bf00      	nop

08000608 <__aeabi_dmul>:
 8000608:	b570      	push	{r4, r5, r6, lr}
 800060a:	f04f 0cff 	mov.w	ip, #255	; 0xff
 800060e:	f44c 6ce0 	orr.w	ip, ip, #1792	; 0x700
 8000612:	ea1c 5411 	ands.w	r4, ip, r1, lsr #20
 8000616:	bf1d      	ittte	ne
 8000618:	ea1c 5513 	andsne.w	r5, ip, r3, lsr #20
 800061c:	ea94 0f0c 	teqne	r4, ip
 8000620:	ea95 0f0c 	teqne	r5, ip
 8000624:	f000 f8de 	bleq	80007e4 <__aeabi_dmul+0x1dc>
 8000628:	442c      	add	r4, r5
 800062a:	ea81 0603 	eor.w	r6, r1, r3
 800062e:	ea21 514c 	bic.w	r1, r1, ip, lsl #21
 8000632:	ea23 534c 	bic.w	r3, r3, ip, lsl #21
 8000636:	ea50 3501 	orrs.w	r5, r0, r1, lsl #12
 800063a:	bf18      	it	ne
 800063c:	ea52 3503 	orrsne.w	r5, r2, r3, lsl #12
 8000640:	f441 1180 	orr.w	r1, r1, #1048576	; 0x100000
 8000644:	f443 1380 	orr.w	r3, r3, #1048576	; 0x100000
 8000648:	d038      	beq.n	80006bc <__aeabi_dmul+0xb4>
 800064a:	fba0 ce02 	umull	ip, lr, r0, r2
 800064e:	f04f 0500 	mov.w	r5, #0
 8000652:	fbe1 e502 	umlal	lr, r5, r1, r2
 8000656:	f006 4200 	and.w	r2, r6, #2147483648	; 0x80000000
 800065a:	fbe0 e503 	umlal	lr, r5, r0, r3
 800065e:	f04f 0600 	mov.w	r6, #0
 8000662:	fbe1 5603 	umlal	r5, r6, r1, r3
 8000666:	f09c 0f00 	teq	ip, #0
 800066a:	bf18      	it	ne
 800066c:	f04e 0e01 	orrne.w	lr, lr, #1
 8000670:	f1a4 04ff 	sub.w	r4, r4, #255	; 0xff
 8000674:	f5b6 7f00 	cmp.w	r6, #512	; 0x200
 8000678:	f564 7440 	sbc.w	r4, r4, #768	; 0x300
 800067c:	d204      	bcs.n	8000688 <__aeabi_dmul+0x80>
 800067e:	ea5f 0e4e 	movs.w	lr, lr, lsl #1
 8000682:	416d      	adcs	r5, r5
 8000684:	eb46 0606 	adc.w	r6, r6, r6
 8000688:	ea42 21c6 	orr.w	r1, r2, r6, lsl #11
 800068c:	ea41 5155 	orr.w	r1, r1, r5, lsr #21
 8000690:	ea4f 20c5 	mov.w	r0, r5, lsl #11
 8000694:	ea40 505e 	orr.w	r0, r0, lr, lsr #21
 8000698:	ea4f 2ece 	mov.w	lr, lr, lsl #11
 800069c:	f1b4 0cfd 	subs.w	ip, r4, #253	; 0xfd
 80006a0:	bf88      	it	hi
 80006a2:	f5bc 6fe0 	cmphi.w	ip, #1792	; 0x700
 80006a6:	d81e      	bhi.n	80006e6 <__aeabi_dmul+0xde>
 80006a8:	f1be 4f00 	cmp.w	lr, #2147483648	; 0x80000000
 80006ac:	bf08      	it	eq
 80006ae:	ea5f 0e50 	movseq.w	lr, r0, lsr #1
 80006b2:	f150 0000 	adcs.w	r0, r0, #0
 80006b6:	eb41 5104 	adc.w	r1, r1, r4, lsl #20
 80006ba:	bd70      	pop	{r4, r5, r6, pc}
 80006bc:	f006 4600 	and.w	r6, r6, #2147483648	; 0x80000000
 80006c0:	ea46 0101 	orr.w	r1, r6, r1
 80006c4:	ea40 0002 	orr.w	r0, r0, r2
 80006c8:	ea81 0103 	eor.w	r1, r1, r3
 80006cc:	ebb4 045c 	subs.w	r4, r4, ip, lsr #1
 80006d0:	bfc2      	ittt	gt
 80006d2:	ebd4 050c 	rsbsgt	r5, r4, ip
 80006d6:	ea41 5104 	orrgt.w	r1, r1, r4, lsl #20
 80006da:	bd70      	popgt	{r4, r5, r6, pc}
 80006dc:	f441 1180 	orr.w	r1, r1, #1048576	; 0x100000
 80006e0:	f04f 0e00 	mov.w	lr, #0
 80006e4:	3c01      	subs	r4, #1
 80006e6:	f300 80ab 	bgt.w	8000840 <__aeabi_dmul+0x238>
 80006ea:	f114 0f36 	cmn.w	r4, #54	; 0x36
 80006ee:	bfde      	ittt	le
 80006f0:	2000      	movle	r0, #0
 80006f2:	f001 4100 	andle.w	r1, r1, #2147483648	; 0x80000000
 80006f6:	bd70      	pople	{r4, r5, r6, pc}
 80006f8:	f1c4 0400 	rsb	r4, r4, #0
 80006fc:	3c20      	subs	r4, #32
 80006fe:	da35      	bge.n	800076c <__aeabi_dmul+0x164>
 8000700:	340c      	adds	r4, #12
 8000702:	dc1b      	bgt.n	800073c <__aeabi_dmul+0x134>
 8000704:	f104 0414 	add.w	r4, r4, #20
 8000708:	f1c4 0520 	rsb	r5, r4, #32
 800070c:	fa00 f305 	lsl.w	r3, r0, r5
 8000710:	fa20 f004 	lsr.w	r0, r0, r4
 8000714:	fa01 f205 	lsl.w	r2, r1, r5
 8000718:	ea40 0002 	orr.w	r0, r0, r2
 800071c:	f001 4200 	and.w	r2, r1, #2147483648	; 0x80000000
 8000720:	f021 4100 	bic.w	r1, r1, #2147483648	; 0x80000000
 8000724:	eb10 70d3 	adds.w	r0, r0, r3, lsr #31
 8000728:	fa21 f604 	lsr.w	r6, r1, r4
 800072c:	eb42 0106 	adc.w	r1, r2, r6
 8000730:	ea5e 0e43 	orrs.w	lr, lr, r3, lsl #1
 8000734:	bf08      	it	eq
 8000736:	ea20 70d3 	biceq.w	r0, r0, r3, lsr #31
 800073a:	bd70      	pop	{r4, r5, r6, pc}
 800073c:	f1c4 040c 	rsb	r4, r4, #12
 8000740:	f1c4 0520 	rsb	r5, r4, #32
 8000744:	fa00 f304 	lsl.w	r3, r0, r4
 8000748:	fa20 f005 	lsr.w	r0, r0, r5
 800074c:	fa01 f204 	lsl.w	r2, r1, r4
 8000750:	ea40 0002 	orr.w	r0, r0, r2
 8000754:	f001 4100 	and.w	r1, r1, #2147483648	; 0x80000000
 8000758:	eb10 70d3 	adds.w	r0, r0, r3, lsr #31
 800075c:	f141 0100 	adc.w	r1, r1, #0
 8000760:	ea5e 0e43 	orrs.w	lr, lr, r3, lsl #1
 8000764:	bf08      	it	eq
 8000766:	ea20 70d3 	biceq.w	r0, r0, r3, lsr #31
 800076a:	bd70      	pop	{r4, r5, r6, pc}
 800076c:	f1c4 0520 	rsb	r5, r4, #32
 8000770:	fa00 f205 	lsl.w	r2, r0, r5
 8000774:	ea4e 0e02 	orr.w	lr, lr, r2
 8000778:	fa20 f304 	lsr.w	r3, r0, r4
 800077c:	fa01 f205 	lsl.w	r2, r1, r5
 8000780:	ea43 0302 	orr.w	r3, r3, r2
 8000784:	fa21 f004 	lsr.w	r0, r1, r4
 8000788:	f001 4100 	and.w	r1, r1, #2147483648	; 0x80000000
 800078c:	fa21 f204 	lsr.w	r2, r1, r4
 8000790:	ea20 0002 	bic.w	r0, r0, r2
 8000794:	eb00 70d3 	add.w	r0, r0, r3, lsr #31
 8000798:	ea5e 0e43 	orrs.w	lr, lr, r3, lsl #1
 800079c:	bf08      	it	eq
 800079e:	ea20 70d3 	biceq.w	r0, r0, r3, lsr #31
 80007a2:	bd70      	pop	{r4, r5, r6, pc}
 80007a4:	f094 0f00 	teq	r4, #0
 80007a8:	d10f      	bne.n	80007ca <__aeabi_dmul+0x1c2>
 80007aa:	f001 4600 	and.w	r6, r1, #2147483648	; 0x80000000
 80007ae:	0040      	lsls	r0, r0, #1
 80007b0:	eb41 0101 	adc.w	r1, r1, r1
 80007b4:	f411 1f80 	tst.w	r1, #1048576	; 0x100000
 80007b8:	bf08      	it	eq
 80007ba:	3c01      	subeq	r4, #1
 80007bc:	d0f7      	beq.n	80007ae <__aeabi_dmul+0x1a6>
 80007be:	ea41 0106 	orr.w	r1, r1, r6
 80007c2:	f095 0f00 	teq	r5, #0
 80007c6:	bf18      	it	ne
 80007c8:	4770      	bxne	lr
 80007ca:	f003 4600 	and.w	r6, r3, #2147483648	; 0x80000000
 80007ce:	0052      	lsls	r2, r2, #1
 80007d0:	eb43 0303 	adc.w	r3, r3, r3
 80007d4:	f413 1f80 	tst.w	r3, #1048576	; 0x100000
 80007d8:	bf08      	it	eq
 80007da:	3d01      	subeq	r5, #1
 80007dc:	d0f7      	beq.n	80007ce <__aeabi_dmul+0x1c6>
 80007de:	ea43 0306 	orr.w	r3, r3, r6
 80007e2:	4770      	bx	lr
 80007e4:	ea94 0f0c 	teq	r4, ip
 80007e8:	ea0c 5513 	and.w	r5, ip, r3, lsr #20
 80007ec:	bf18      	it	ne
 80007ee:	ea95 0f0c 	teqne	r5, ip
 80007f2:	d00c      	beq.n	800080e <__aeabi_dmul+0x206>
 80007f4:	ea50 0641 	orrs.w	r6, r0, r1, lsl #1
 80007f8:	bf18      	it	ne
 80007fa:	ea52 0643 	orrsne.w	r6, r2, r3, lsl #1
 80007fe:	d1d1      	bne.n	80007a4 <__aeabi_dmul+0x19c>
 8000800:	ea81 0103 	eor.w	r1, r1, r3
 8000804:	f001 4100 	and.w	r1, r1, #2147483648	; 0x80000000
 8000808:	f04f 0000 	mov.w	r0, #0
 800080c:	bd70      	pop	{r4, r5, r6, pc}
 800080e:	ea50 0641 	orrs.w	r6, r0, r1, lsl #1
 8000812:	bf06      	itte	eq
 8000814:	4610      	moveq	r0, r2
 8000816:	4619      	moveq	r1, r3
 8000818:	ea52 0643 	orrsne.w	r6, r2, r3, lsl #1
 800081c:	d019      	beq.n	8000852 <__aeabi_dmul+0x24a>
 800081e:	ea94 0f0c 	teq	r4, ip
 8000822:	d102      	bne.n	800082a <__aeabi_dmul+0x222>
 8000824:	ea50 3601 	orrs.w	r6, r0, r1, lsl #12
 8000828:	d113      	bne.n	8000852 <__aeabi_dmul+0x24a>
 800082a:	ea95 0f0c 	teq	r5, ip
 800082e:	d105      	bne.n	800083c <__aeabi_dmul+0x234>
 8000830:	ea52 3603 	orrs.w	r6, r2, r3, lsl #12
 8000834:	bf1c      	itt	ne
 8000836:	4610      	movne	r0, r2
 8000838:	4619      	movne	r1, r3
 800083a:	d10a      	bne.n	8000852 <__aeabi_dmul+0x24a>
 800083c:	ea81 0103 	eor.w	r1, r1, r3
 8000840:	f001 4100 	and.w	r1, r1, #2147483648	; 0x80000000
 8000844:	f041 41fe 	orr.w	r1, r1, #2130706432	; 0x7f000000
 8000848:	f441 0170 	orr.w	r1, r1, #15728640	; 0xf00000
 800084c:	f04f 0000 	mov.w	r0, #0
 8000850:	bd70      	pop	{r4, r5, r6, pc}
 8000852:	f041 41fe 	orr.w	r1, r1, #2130706432	; 0x7f000000
 8000856:	f441 0178 	orr.w	r1, r1, #16252928	; 0xf80000
 800085a:	bd70      	pop	{r4, r5, r6, pc}

0800085c <__aeabi_ddiv>:
 800085c:	b570      	push	{r4, r5, r6, lr}
 800085e:	f04f 0cff 	mov.w	ip, #255	; 0xff
 8000862:	f44c 6ce0 	orr.w	ip, ip, #1792	; 0x700
 8000866:	ea1c 5411 	ands.w	r4, ip, r1, lsr #20
 800086a:	bf1d      	ittte	ne
 800086c:	ea1c 5513 	andsne.w	r5, ip, r3, lsr #20
 8000870:	ea94 0f0c 	teqne	r4, ip
 8000874:	ea95 0f0c 	teqne	r5, ip
 8000878:	f000 f8a7 	bleq	80009ca <__aeabi_ddiv+0x16e>
 800087c:	eba4 0405 	sub.w	r4, r4, r5
 8000880:	ea81 0e03 	eor.w	lr, r1, r3
 8000884:	ea52 3503 	orrs.w	r5, r2, r3, lsl #12
 8000888:	ea4f 3101 	mov.w	r1, r1, lsl #12
 800088c:	f000 8088 	beq.w	80009a0 <__aeabi_ddiv+0x144>
 8000890:	ea4f 3303 	mov.w	r3, r3, lsl #12
 8000894:	f04f 5580 	mov.w	r5, #268435456	; 0x10000000
 8000898:	ea45 1313 	orr.w	r3, r5, r3, lsr #4
 800089c:	ea43 6312 	orr.w	r3, r3, r2, lsr #24
 80008a0:	ea4f 2202 	mov.w	r2, r2, lsl #8
 80008a4:	ea45 1511 	orr.w	r5, r5, r1, lsr #4
 80008a8:	ea45 6510 	orr.w	r5, r5, r0, lsr #24
 80008ac:	ea4f 2600 	mov.w	r6, r0, lsl #8
 80008b0:	f00e 4100 	and.w	r1, lr, #2147483648	; 0x80000000
 80008b4:	429d      	cmp	r5, r3
 80008b6:	bf08      	it	eq
 80008b8:	4296      	cmpeq	r6, r2
 80008ba:	f144 04fd 	adc.w	r4, r4, #253	; 0xfd
 80008be:	f504 7440 	add.w	r4, r4, #768	; 0x300
 80008c2:	d202      	bcs.n	80008ca <__aeabi_ddiv+0x6e>
 80008c4:	085b      	lsrs	r3, r3, #1
 80008c6:	ea4f 0232 	mov.w	r2, r2, rrx
 80008ca:	1ab6      	subs	r6, r6, r2
 80008cc:	eb65 0503 	sbc.w	r5, r5, r3
 80008d0:	085b      	lsrs	r3, r3, #1
 80008d2:	ea4f 0232 	mov.w	r2, r2, rrx
 80008d6:	f44f 1080 	mov.w	r0, #1048576	; 0x100000
 80008da:	f44f 2c00 	mov.w	ip, #524288	; 0x80000
 80008de:	ebb6 0e02 	subs.w	lr, r6, r2
 80008e2:	eb75 0e03 	sbcs.w	lr, r5, r3
 80008e6:	bf22      	ittt	cs
 80008e8:	1ab6      	subcs	r6, r6, r2
 80008ea:	4675      	movcs	r5, lr
 80008ec:	ea40 000c 	orrcs.w	r0, r0, ip
 80008f0:	085b      	lsrs	r3, r3, #1
 80008f2:	ea4f 0232 	mov.w	r2, r2, rrx
 80008f6:	ebb6 0e02 	subs.w	lr, r6, r2
 80008fa:	eb75 0e03 	sbcs.w	lr, r5, r3
 80008fe:	bf22      	ittt	cs
 8000900:	1ab6      	subcs	r6, r6, r2
 8000902:	4675      	movcs	r5, lr
 8000904:	ea40 005c 	orrcs.w	r0, r0, ip, lsr #1
 8000908:	085b      	lsrs	r3, r3, #1
 800090a:	ea4f 0232 	mov.w	r2, r2, rrx
 800090e:	ebb6 0e02 	subs.w	lr, r6, r2
 8000912:	eb75 0e03 	sbcs.w	lr, r5, r3
 8000916:	bf22      	ittt	cs
 8000918:	1ab6      	subcs	r6, r6, r2
 800091a:	4675      	movcs	r5, lr
 800091c:	ea40 009c 	orrcs.w	r0, r0, ip, lsr #2
 8000920:	085b      	lsrs	r3, r3, #1
 8000922:	ea4f 0232 	mov.w	r2, r2, rrx
 8000926:	ebb6 0e02 	subs.w	lr, r6, r2
 800092a:	eb75 0e03 	sbcs.w	lr, r5, r3
 800092e:	bf22      	ittt	cs
 8000930:	1ab6      	subcs	r6, r6, r2
 8000932:	4675      	movcs	r5, lr
 8000934:	ea40 00dc 	orrcs.w	r0, r0, ip, lsr #3
 8000938:	ea55 0e06 	orrs.w	lr, r5, r6
 800093c:	d018      	beq.n	8000970 <__aeabi_ddiv+0x114>
 800093e:	ea4f 1505 	mov.w	r5, r5, lsl #4
 8000942:	ea45 7516 	orr.w	r5, r5, r6, lsr #28
 8000946:	ea4f 1606 	mov.w	r6, r6, lsl #4
 800094a:	ea4f 03c3 	mov.w	r3, r3, lsl #3
 800094e:	ea43 7352 	orr.w	r3, r3, r2, lsr #29
 8000952:	ea4f 02c2 	mov.w	r2, r2, lsl #3
 8000956:	ea5f 1c1c 	movs.w	ip, ip, lsr #4
 800095a:	d1c0      	bne.n	80008de <__aeabi_ddiv+0x82>
 800095c:	f411 1f80 	tst.w	r1, #1048576	; 0x100000
 8000960:	d10b      	bne.n	800097a <__aeabi_ddiv+0x11e>
 8000962:	ea41 0100 	orr.w	r1, r1, r0
 8000966:	f04f 0000 	mov.w	r0, #0
 800096a:	f04f 4c00 	mov.w	ip, #2147483648	; 0x80000000
 800096e:	e7b6      	b.n	80008de <__aeabi_ddiv+0x82>
 8000970:	f411 1f80 	tst.w	r1, #1048576	; 0x100000
 8000974:	bf04      	itt	eq
 8000976:	4301      	orreq	r1, r0
 8000978:	2000      	moveq	r0, #0
 800097a:	f1b4 0cfd 	subs.w	ip, r4, #253	; 0xfd
 800097e:	bf88      	it	hi
 8000980:	f5bc 6fe0 	cmphi.w	ip, #1792	; 0x700
 8000984:	f63f aeaf 	bhi.w	80006e6 <__aeabi_dmul+0xde>
 8000988:	ebb5 0c03 	subs.w	ip, r5, r3
 800098c:	bf04      	itt	eq
 800098e:	ebb6 0c02 	subseq.w	ip, r6, r2
 8000992:	ea5f 0c50 	movseq.w	ip, r0, lsr #1
 8000996:	f150 0000 	adcs.w	r0, r0, #0
 800099a:	eb41 5104 	adc.w	r1, r1, r4, lsl #20
 800099e:	bd70      	pop	{r4, r5, r6, pc}
 80009a0:	f00e 4e00 	and.w	lr, lr, #2147483648	; 0x80000000
 80009a4:	ea4e 3111 	orr.w	r1, lr, r1, lsr #12
 80009a8:	eb14 045c 	adds.w	r4, r4, ip, lsr #1
 80009ac:	bfc2      	ittt	gt
 80009ae:	ebd4 050c 	rsbsgt	r5, r4, ip
 80009b2:	ea41 5104 	orrgt.w	r1, r1, r4, lsl #20
 80009b6:	bd70      	popgt	{r4, r5, r6, pc}
 80009b8:	f441 1180 	orr.w	r1, r1, #1048576	; 0x100000
 80009bc:	f04f 0e00 	mov.w	lr, #0
 80009c0:	3c01      	subs	r4, #1
 80009c2:	e690      	b.n	80006e6 <__aeabi_dmul+0xde>
 80009c4:	ea45 0e06 	orr.w	lr, r5, r6
 80009c8:	e68d      	b.n	80006e6 <__aeabi_dmul+0xde>
 80009ca:	ea0c 5513 	and.w	r5, ip, r3, lsr #20
 80009ce:	ea94 0f0c 	teq	r4, ip
 80009d2:	bf08      	it	eq
 80009d4:	ea95 0f0c 	teqeq	r5, ip
 80009d8:	f43f af3b 	beq.w	8000852 <__aeabi_dmul+0x24a>
 80009dc:	ea94 0f0c 	teq	r4, ip
 80009e0:	d10a      	bne.n	80009f8 <__aeabi_ddiv+0x19c>
 80009e2:	ea50 3401 	orrs.w	r4, r0, r1, lsl #12
 80009e6:	f47f af34 	bne.w	8000852 <__aeabi_dmul+0x24a>
 80009ea:	ea95 0f0c 	teq	r5, ip
 80009ee:	f47f af25 	bne.w	800083c <__aeabi_dmul+0x234>
 80009f2:	4610      	mov	r0, r2
 80009f4:	4619      	mov	r1, r3
 80009f6:	e72c      	b.n	8000852 <__aeabi_dmul+0x24a>
 80009f8:	ea95 0f0c 	teq	r5, ip
 80009fc:	d106      	bne.n	8000a0c <__aeabi_ddiv+0x1b0>
 80009fe:	ea52 3503 	orrs.w	r5, r2, r3, lsl #12
 8000a02:	f43f aefd 	beq.w	8000800 <__aeabi_dmul+0x1f8>
 8000a06:	4610      	mov	r0, r2
 8000a08:	4619      	mov	r1, r3
 8000a0a:	e722      	b.n	8000852 <__aeabi_dmul+0x24a>
 8000a0c:	ea50 0641 	orrs.w	r6, r0, r1, lsl #1
 8000a10:	bf18      	it	ne
 8000a12:	ea52 0643 	orrsne.w	r6, r2, r3, lsl #1
 8000a16:	f47f aec5 	bne.w	80007a4 <__aeabi_dmul+0x19c>
 8000a1a:	ea50 0441 	orrs.w	r4, r0, r1, lsl #1
 8000a1e:	f47f af0d 	bne.w	800083c <__aeabi_dmul+0x234>
 8000a22:	ea52 0543 	orrs.w	r5, r2, r3, lsl #1
 8000a26:	f47f aeeb 	bne.w	8000800 <__aeabi_dmul+0x1f8>
 8000a2a:	e712      	b.n	8000852 <__aeabi_dmul+0x24a>

08000a2c <__gedf2>:
 8000a2c:	f04f 3cff 	mov.w	ip, #4294967295
 8000a30:	e006      	b.n	8000a40 <__cmpdf2+0x4>
 8000a32:	bf00      	nop

08000a34 <__ledf2>:
 8000a34:	f04f 0c01 	mov.w	ip, #1
 8000a38:	e002      	b.n	8000a40 <__cmpdf2+0x4>
 8000a3a:	bf00      	nop

08000a3c <__cmpdf2>:
 8000a3c:	f04f 0c01 	mov.w	ip, #1
 8000a40:	f84d cd04 	str.w	ip, [sp, #-4]!
 8000a44:	ea4f 0c41 	mov.w	ip, r1, lsl #1
 8000a48:	ea7f 5c6c 	mvns.w	ip, ip, asr #21
 8000a4c:	ea4f 0c43 	mov.w	ip, r3, lsl #1
 8000a50:	bf18      	it	ne
 8000a52:	ea7f 5c6c 	mvnsne.w	ip, ip, asr #21
 8000a56:	d01b      	beq.n	8000a90 <__cmpdf2+0x54>
 8000a58:	b001      	add	sp, #4
 8000a5a:	ea50 0c41 	orrs.w	ip, r0, r1, lsl #1
 8000a5e:	bf0c      	ite	eq
 8000a60:	ea52 0c43 	orrseq.w	ip, r2, r3, lsl #1
 8000a64:	ea91 0f03 	teqne	r1, r3
 8000a68:	bf02      	ittt	eq
 8000a6a:	ea90 0f02 	teqeq	r0, r2
 8000a6e:	2000      	moveq	r0, #0
 8000a70:	4770      	bxeq	lr
 8000a72:	f110 0f00 	cmn.w	r0, #0
 8000a76:	ea91 0f03 	teq	r1, r3
 8000a7a:	bf58      	it	pl
 8000a7c:	4299      	cmppl	r1, r3
 8000a7e:	bf08      	it	eq
 8000a80:	4290      	cmpeq	r0, r2
 8000a82:	bf2c      	ite	cs
 8000a84:	17d8      	asrcs	r0, r3, #31
 8000a86:	ea6f 70e3 	mvncc.w	r0, r3, asr #31
 8000a8a:	f040 0001 	orr.w	r0, r0, #1
 8000a8e:	4770      	bx	lr
 8000a90:	ea4f 0c41 	mov.w	ip, r1, lsl #1
 8000a94:	ea7f 5c6c 	mvns.w	ip, ip, asr #21
 8000a98:	d102      	bne.n	8000aa0 <__cmpdf2+0x64>
 8000a9a:	ea50 3c01 	orrs.w	ip, r0, r1, lsl #12
 8000a9e:	d107      	bne.n	8000ab0 <__cmpdf2+0x74>
 8000aa0:	ea4f 0c43 	mov.w	ip, r3, lsl #1
 8000aa4:	ea7f 5c6c 	mvns.w	ip, ip, asr #21
 8000aa8:	d1d6      	bne.n	8000a58 <__cmpdf2+0x1c>
 8000aaa:	ea52 3c03 	orrs.w	ip, r2, r3, lsl #12
 8000aae:	d0d3      	beq.n	8000a58 <__cmpdf2+0x1c>
 8000ab0:	f85d 0b04 	ldr.w	r0, [sp], #4
 8000ab4:	4770      	bx	lr
 8000ab6:	bf00      	nop

08000ab8 <__aeabi_cdrcmple>:
 8000ab8:	4684      	mov	ip, r0
 8000aba:	4610      	mov	r0, r2
 8000abc:	4662      	mov	r2, ip
 8000abe:	468c      	mov	ip, r1
 8000ac0:	4619      	mov	r1, r3
 8000ac2:	4663      	mov	r3, ip
 8000ac4:	e000      	b.n	8000ac8 <__aeabi_cdcmpeq>
 8000ac6:	bf00      	nop

08000ac8 <__aeabi_cdcmpeq>:
 8000ac8:	b501      	push	{r0, lr}
 8000aca:	f7ff ffb7 	bl	8000a3c <__cmpdf2>
 8000ace:	2800      	cmp	r0, #0
 8000ad0:	bf48      	it	mi
 8000ad2:	f110 0f00 	cmnmi.w	r0, #0
 8000ad6:	bd01      	pop	{r0, pc}

08000ad8 <__aeabi_dcmpeq>:
 8000ad8:	f84d ed08 	str.w	lr, [sp, #-8]!
 8000adc:	f7ff fff4 	bl	8000ac8 <__aeabi_cdcmpeq>
 8000ae0:	bf0c      	ite	eq
 8000ae2:	2001      	moveq	r0, #1
 8000ae4:	2000      	movne	r0, #0
 8000ae6:	f85d fb08 	ldr.w	pc, [sp], #8
 8000aea:	bf00      	nop

08000aec <__aeabi_dcmplt>:
 8000aec:	f84d ed08 	str.w	lr, [sp, #-8]!
 8000af0:	f7ff ffea 	bl	8000ac8 <__aeabi_cdcmpeq>
 8000af4:	bf34      	ite	cc
 8000af6:	2001      	movcc	r0, #1
 8000af8:	2000      	movcs	r0, #0
 8000afa:	f85d fb08 	ldr.w	pc, [sp], #8
 8000afe:	bf00      	nop

08000b00 <__aeabi_dcmple>:
 8000b00:	f84d ed08 	str.w	lr, [sp, #-8]!
 8000b04:	f7ff ffe0 	bl	8000ac8 <__aeabi_cdcmpeq>
 8000b08:	bf94      	ite	ls
 8000b0a:	2001      	movls	r0, #1
 8000b0c:	2000      	movhi	r0, #0
 8000b0e:	f85d fb08 	ldr.w	pc, [sp], #8
 8000b12:	bf00      	nop

08000b14 <__aeabi_dcmpge>:
 8000b14:	f84d ed08 	str.w	lr, [sp, #-8]!
 8000b18:	f7ff ffce 	bl	8000ab8 <__aeabi_cdrcmple>
 8000b1c:	bf94      	ite	ls
 8000b1e:	2001      	movls	r0, #1
 8000b20:	2000      	movhi	r0, #0
 8000b22:	f85d fb08 	ldr.w	pc, [sp], #8
 8000b26:	bf00      	nop

08000b28 <__aeabi_dcmpgt>:
 8000b28:	f84d ed08 	str.w	lr, [sp, #-8]!
 8000b2c:	f7ff ffc4 	bl	8000ab8 <__aeabi_cdrcmple>
 8000b30:	bf34      	ite	cc
 8000b32:	2001      	movcc	r0, #1
 8000b34:	2000      	movcs	r0, #0
 8000b36:	f85d fb08 	ldr.w	pc, [sp], #8
 8000b3a:	bf00      	nop

08000b3c <__aeabi_dcmpun>:
 8000b3c:	ea4f 0c41 	mov.w	ip, r1, lsl #1
 8000b40:	ea7f 5c6c 	mvns.w	ip, ip, asr #21
 8000b44:	d102      	bne.n	8000b4c <__aeabi_dcmpun+0x10>
 8000b46:	ea50 3c01 	orrs.w	ip, r0, r1, lsl #12
 8000b4a:	d10a      	bne.n	8000b62 <__aeabi_dcmpun+0x26>
 8000b4c:	ea4f 0c43 	mov.w	ip, r3, lsl #1
 8000b50:	ea7f 5c6c 	mvns.w	ip, ip, asr #21
 8000b54:	d102      	bne.n	8000b5c <__aeabi_dcmpun+0x20>
 8000b56:	ea52 3c03 	orrs.w	ip, r2, r3, lsl #12
 8000b5a:	d102      	bne.n	8000b62 <__aeabi_dcmpun+0x26>
 8000b5c:	f04f 0000 	mov.w	r0, #0
 8000b60:	4770      	bx	lr
 8000b62:	f04f 0001 	mov.w	r0, #1
 8000b66:	4770      	bx	lr

08000b68 <__aeabi_d2iz>:
 8000b68:	ea4f 0241 	mov.w	r2, r1, lsl #1
 8000b6c:	f512 1200 	adds.w	r2, r2, #2097152	; 0x200000
 8000b70:	d215      	bcs.n	8000b9e <__aeabi_d2iz+0x36>
 8000b72:	d511      	bpl.n	8000b98 <__aeabi_d2iz+0x30>
 8000b74:	f46f 7378 	mvn.w	r3, #992	; 0x3e0
 8000b78:	ebb3 5262 	subs.w	r2, r3, r2, asr #21
 8000b7c:	d912      	bls.n	8000ba4 <__aeabi_d2iz+0x3c>
 8000b7e:	ea4f 23c1 	mov.w	r3, r1, lsl #11
 8000b82:	f043 4300 	orr.w	r3, r3, #2147483648	; 0x80000000
 8000b86:	ea43 5350 	orr.w	r3, r3, r0, lsr #21
 8000b8a:	f011 4f00 	tst.w	r1, #2147483648	; 0x80000000
 8000b8e:	fa23 f002 	lsr.w	r0, r3, r2
 8000b92:	bf18      	it	ne
 8000b94:	4240      	negne	r0, r0
 8000b96:	4770      	bx	lr
 8000b98:	f04f 0000 	mov.w	r0, #0
 8000b9c:	4770      	bx	lr
 8000b9e:	ea50 3001 	orrs.w	r0, r0, r1, lsl #12
 8000ba2:	d105      	bne.n	8000bb0 <__aeabi_d2iz+0x48>
 8000ba4:	f011 4000 	ands.w	r0, r1, #2147483648	; 0x80000000
 8000ba8:	bf08      	it	eq
 8000baa:	f06f 4000 	mvneq.w	r0, #2147483648	; 0x80000000
 8000bae:	4770      	bx	lr
 8000bb0:	f04f 0000 	mov.w	r0, #0
 8000bb4:	4770      	bx	lr
 8000bb6:	bf00      	nop

08000bb8 <__aeabi_d2f>:
 8000bb8:	ea4f 0241 	mov.w	r2, r1, lsl #1
 8000bbc:	f1b2 43e0 	subs.w	r3, r2, #1879048192	; 0x70000000
 8000bc0:	bf24      	itt	cs
 8000bc2:	f5b3 1c00 	subscs.w	ip, r3, #2097152	; 0x200000
 8000bc6:	f1dc 5cfe 	rsbscs	ip, ip, #532676608	; 0x1fc00000
 8000bca:	d90d      	bls.n	8000be8 <__aeabi_d2f+0x30>
 8000bcc:	f001 4c00 	and.w	ip, r1, #2147483648	; 0x80000000
 8000bd0:	ea4f 02c0 	mov.w	r2, r0, lsl #3
 8000bd4:	ea4c 7050 	orr.w	r0, ip, r0, lsr #29
 8000bd8:	f1b2 4f00 	cmp.w	r2, #2147483648	; 0x80000000
 8000bdc:	eb40 0083 	adc.w	r0, r0, r3, lsl #2
 8000be0:	bf08      	it	eq
 8000be2:	f020 0001 	biceq.w	r0, r0, #1
 8000be6:	4770      	bx	lr
 8000be8:	f011 4f80 	tst.w	r1, #1073741824	; 0x40000000
 8000bec:	d121      	bne.n	8000c32 <__aeabi_d2f+0x7a>
 8000bee:	f113 7238 	adds.w	r2, r3, #48234496	; 0x2e00000
 8000bf2:	bfbc      	itt	lt
 8000bf4:	f001 4000 	andlt.w	r0, r1, #2147483648	; 0x80000000
 8000bf8:	4770      	bxlt	lr
 8000bfa:	f441 1180 	orr.w	r1, r1, #1048576	; 0x100000
 8000bfe:	ea4f 5252 	mov.w	r2, r2, lsr #21
 8000c02:	f1c2 0218 	rsb	r2, r2, #24
 8000c06:	f1c2 0c20 	rsb	ip, r2, #32
 8000c0a:	fa10 f30c 	lsls.w	r3, r0, ip
 8000c0e:	fa20 f002 	lsr.w	r0, r0, r2
 8000c12:	bf18      	it	ne
 8000c14:	f040 0001 	orrne.w	r0, r0, #1
 8000c18:	ea4f 23c1 	mov.w	r3, r1, lsl #11
 8000c1c:	ea4f 23d3 	mov.w	r3, r3, lsr #11
 8000c20:	fa03 fc0c 	lsl.w	ip, r3, ip
 8000c24:	ea40 000c 	orr.w	r0, r0, ip
 8000c28:	fa23 f302 	lsr.w	r3, r3, r2
 8000c2c:	ea4f 0343 	mov.w	r3, r3, lsl #1
 8000c30:	e7cc      	b.n	8000bcc <__aeabi_d2f+0x14>
 8000c32:	ea7f 5362 	mvns.w	r3, r2, asr #21
 8000c36:	d107      	bne.n	8000c48 <__aeabi_d2f+0x90>
 8000c38:	ea50 3301 	orrs.w	r3, r0, r1, lsl #12
 8000c3c:	bf1e      	ittt	ne
 8000c3e:	f04f 40fe 	movne.w	r0, #2130706432	; 0x7f000000
 8000c42:	f440 0040 	orrne.w	r0, r0, #12582912	; 0xc00000
 8000c46:	4770      	bxne	lr
 8000c48:	f001 4000 	and.w	r0, r1, #2147483648	; 0x80000000
 8000c4c:	f040 40fe 	orr.w	r0, r0, #2130706432	; 0x7f000000
 8000c50:	f440 0000 	orr.w	r0, r0, #8388608	; 0x800000
 8000c54:	4770      	bx	lr
 8000c56:	bf00      	nop

08000c58 <__aeabi_uldivmod>:
 8000c58:	b953      	cbnz	r3, 8000c70 <__aeabi_uldivmod+0x18>
 8000c5a:	b94a      	cbnz	r2, 8000c70 <__aeabi_uldivmod+0x18>
 8000c5c:	2900      	cmp	r1, #0
 8000c5e:	bf08      	it	eq
 8000c60:	2800      	cmpeq	r0, #0
 8000c62:	bf1c      	itt	ne
 8000c64:	f04f 31ff 	movne.w	r1, #4294967295
 8000c68:	f04f 30ff 	movne.w	r0, #4294967295
 8000c6c:	f000 b974 	b.w	8000f58 <__aeabi_idiv0>
 8000c70:	f1ad 0c08 	sub.w	ip, sp, #8
 8000c74:	e96d ce04 	strd	ip, lr, [sp, #-16]!
 8000c78:	f000 f806 	bl	8000c88 <__udivmoddi4>
 8000c7c:	f8dd e004 	ldr.w	lr, [sp, #4]
 8000c80:	e9dd 2302 	ldrd	r2, r3, [sp, #8]
 8000c84:	b004      	add	sp, #16
 8000c86:	4770      	bx	lr

08000c88 <__udivmoddi4>:
 8000c88:	e92d 47f0 	stmdb	sp!, {r4, r5, r6, r7, r8, r9, sl, lr}
 8000c8c:	9d08      	ldr	r5, [sp, #32]
 8000c8e:	4604      	mov	r4, r0
 8000c90:	468e      	mov	lr, r1
 8000c92:	2b00      	cmp	r3, #0
 8000c94:	d14d      	bne.n	8000d32 <__udivmoddi4+0xaa>
 8000c96:	428a      	cmp	r2, r1
 8000c98:	4694      	mov	ip, r2
 8000c9a:	d969      	bls.n	8000d70 <__udivmoddi4+0xe8>
 8000c9c:	fab2 f282 	clz	r2, r2
 8000ca0:	b152      	cbz	r2, 8000cb8 <__udivmoddi4+0x30>
 8000ca2:	fa01 f302 	lsl.w	r3, r1, r2
 8000ca6:	f1c2 0120 	rsb	r1, r2, #32
 8000caa:	fa20 f101 	lsr.w	r1, r0, r1
 8000cae:	fa0c fc02 	lsl.w	ip, ip, r2
 8000cb2:	ea41 0e03 	orr.w	lr, r1, r3
 8000cb6:	4094      	lsls	r4, r2
 8000cb8:	ea4f 481c 	mov.w	r8, ip, lsr #16
 8000cbc:	0c21      	lsrs	r1, r4, #16
 8000cbe:	fbbe f6f8 	udiv	r6, lr, r8
 8000cc2:	fa1f f78c 	uxth.w	r7, ip
 8000cc6:	fb08 e316 	mls	r3, r8, r6, lr
 8000cca:	ea41 4303 	orr.w	r3, r1, r3, lsl #16
 8000cce:	fb06 f107 	mul.w	r1, r6, r7
 8000cd2:	4299      	cmp	r1, r3
 8000cd4:	d90a      	bls.n	8000cec <__udivmoddi4+0x64>
 8000cd6:	eb1c 0303 	adds.w	r3, ip, r3
 8000cda:	f106 30ff 	add.w	r0, r6, #4294967295
 8000cde:	f080 811f 	bcs.w	8000f20 <__udivmoddi4+0x298>
 8000ce2:	4299      	cmp	r1, r3
 8000ce4:	f240 811c 	bls.w	8000f20 <__udivmoddi4+0x298>
 8000ce8:	3e02      	subs	r6, #2
 8000cea:	4463      	add	r3, ip
 8000cec:	1a5b      	subs	r3, r3, r1
 8000cee:	b2a4      	uxth	r4, r4
 8000cf0:	fbb3 f0f8 	udiv	r0, r3, r8
 8000cf4:	fb08 3310 	mls	r3, r8, r0, r3
 8000cf8:	ea44 4403 	orr.w	r4, r4, r3, lsl #16
 8000cfc:	fb00 f707 	mul.w	r7, r0, r7
 8000d00:	42a7      	cmp	r7, r4
 8000d02:	d90a      	bls.n	8000d1a <__udivmoddi4+0x92>
 8000d04:	eb1c 0404 	adds.w	r4, ip, r4
 8000d08:	f100 33ff 	add.w	r3, r0, #4294967295
 8000d0c:	f080 810a 	bcs.w	8000f24 <__udivmoddi4+0x29c>
 8000d10:	42a7      	cmp	r7, r4
 8000d12:	f240 8107 	bls.w	8000f24 <__udivmoddi4+0x29c>
 8000d16:	4464      	add	r4, ip
 8000d18:	3802      	subs	r0, #2
 8000d1a:	ea40 4006 	orr.w	r0, r0, r6, lsl #16
 8000d1e:	1be4      	subs	r4, r4, r7
 8000d20:	2600      	movs	r6, #0
 8000d22:	b11d      	cbz	r5, 8000d2c <__udivmoddi4+0xa4>
 8000d24:	40d4      	lsrs	r4, r2
 8000d26:	2300      	movs	r3, #0
 8000d28:	e9c5 4300 	strd	r4, r3, [r5]
 8000d2c:	4631      	mov	r1, r6
 8000d2e:	e8bd 87f0 	ldmia.w	sp!, {r4, r5, r6, r7, r8, r9, sl, pc}
 8000d32:	428b      	cmp	r3, r1
 8000d34:	d909      	bls.n	8000d4a <__udivmoddi4+0xc2>
 8000d36:	2d00      	cmp	r5, #0
 8000d38:	f000 80ef 	beq.w	8000f1a <__udivmoddi4+0x292>
 8000d3c:	2600      	movs	r6, #0
 8000d3e:	e9c5 0100 	strd	r0, r1, [r5]
 8000d42:	4630      	mov	r0, r6
 8000d44:	4631      	mov	r1, r6
 8000d46:	e8bd 87f0 	ldmia.w	sp!, {r4, r5, r6, r7, r8, r9, sl, pc}
 8000d4a:	fab3 f683 	clz	r6, r3
 8000d4e:	2e00      	cmp	r6, #0
 8000d50:	d14a      	bne.n	8000de8 <__udivmoddi4+0x160>
 8000d52:	428b      	cmp	r3, r1
 8000d54:	d302      	bcc.n	8000d5c <__udivmoddi4+0xd4>
 8000d56:	4282      	cmp	r2, r0
 8000d58:	f200 80f9 	bhi.w	8000f4e <__udivmoddi4+0x2c6>
 8000d5c:	1a84      	subs	r4, r0, r2
 8000d5e:	eb61 0303 	sbc.w	r3, r1, r3
 8000d62:	2001      	movs	r0, #1
 8000d64:	469e      	mov	lr, r3
 8000d66:	2d00      	cmp	r5, #0
 8000d68:	d0e0      	beq.n	8000d2c <__udivmoddi4+0xa4>
 8000d6a:	e9c5 4e00 	strd	r4, lr, [r5]
 8000d6e:	e7dd      	b.n	8000d2c <__udivmoddi4+0xa4>
 8000d70:	b902      	cbnz	r2, 8000d74 <__udivmoddi4+0xec>
 8000d72:	deff      	udf	#255	; 0xff
 8000d74:	fab2 f282 	clz	r2, r2
 8000d78:	2a00      	cmp	r2, #0
 8000d7a:	f040 8092 	bne.w	8000ea2 <__udivmoddi4+0x21a>
 8000d7e:	eba1 010c 	sub.w	r1, r1, ip
 8000d82:	ea4f 471c 	mov.w	r7, ip, lsr #16
 8000d86:	fa1f fe8c 	uxth.w	lr, ip
 8000d8a:	2601      	movs	r6, #1
 8000d8c:	0c20      	lsrs	r0, r4, #16
 8000d8e:	fbb1 f3f7 	udiv	r3, r1, r7
 8000d92:	fb07 1113 	mls	r1, r7, r3, r1
 8000d96:	ea40 4101 	orr.w	r1, r0, r1, lsl #16
 8000d9a:	fb0e f003 	mul.w	r0, lr, r3
 8000d9e:	4288      	cmp	r0, r1
 8000da0:	d908      	bls.n	8000db4 <__udivmoddi4+0x12c>
 8000da2:	eb1c 0101 	adds.w	r1, ip, r1
 8000da6:	f103 38ff 	add.w	r8, r3, #4294967295
 8000daa:	d202      	bcs.n	8000db2 <__udivmoddi4+0x12a>
 8000dac:	4288      	cmp	r0, r1
 8000dae:	f200 80cb 	bhi.w	8000f48 <__udivmoddi4+0x2c0>
 8000db2:	4643      	mov	r3, r8
 8000db4:	1a09      	subs	r1, r1, r0
 8000db6:	b2a4      	uxth	r4, r4
 8000db8:	fbb1 f0f7 	udiv	r0, r1, r7
 8000dbc:	fb07 1110 	mls	r1, r7, r0, r1
 8000dc0:	ea44 4401 	orr.w	r4, r4, r1, lsl #16
 8000dc4:	fb0e fe00 	mul.w	lr, lr, r0
 8000dc8:	45a6      	cmp	lr, r4
 8000dca:	d908      	bls.n	8000dde <__udivmoddi4+0x156>
 8000dcc:	eb1c 0404 	adds.w	r4, ip, r4
 8000dd0:	f100 31ff 	add.w	r1, r0, #4294967295
 8000dd4:	d202      	bcs.n	8000ddc <__udivmoddi4+0x154>
 8000dd6:	45a6      	cmp	lr, r4
 8000dd8:	f200 80bb 	bhi.w	8000f52 <__udivmoddi4+0x2ca>
 8000ddc:	4608      	mov	r0, r1
 8000dde:	eba4 040e 	sub.w	r4, r4, lr
 8000de2:	ea40 4003 	orr.w	r0, r0, r3, lsl #16
 8000de6:	e79c      	b.n	8000d22 <__udivmoddi4+0x9a>
 8000de8:	f1c6 0720 	rsb	r7, r6, #32
 8000dec:	40b3      	lsls	r3, r6
 8000dee:	fa22 fc07 	lsr.w	ip, r2, r7
 8000df2:	ea4c 0c03 	orr.w	ip, ip, r3
 8000df6:	fa20 f407 	lsr.w	r4, r0, r7
 8000dfa:	fa01 f306 	lsl.w	r3, r1, r6
 8000dfe:	431c      	orrs	r4, r3
 8000e00:	40f9      	lsrs	r1, r7
 8000e02:	ea4f 491c 	mov.w	r9, ip, lsr #16
 8000e06:	fa00 f306 	lsl.w	r3, r0, r6
 8000e0a:	fbb1 f8f9 	udiv	r8, r1, r9
 8000e0e:	0c20      	lsrs	r0, r4, #16
 8000e10:	fa1f fe8c 	uxth.w	lr, ip
 8000e14:	fb09 1118 	mls	r1, r9, r8, r1
 8000e18:	ea40 4101 	orr.w	r1, r0, r1, lsl #16
 8000e1c:	fb08 f00e 	mul.w	r0, r8, lr
 8000e20:	4288      	cmp	r0, r1
 8000e22:	fa02 f206 	lsl.w	r2, r2, r6
 8000e26:	d90b      	bls.n	8000e40 <__udivmoddi4+0x1b8>
 8000e28:	eb1c 0101 	adds.w	r1, ip, r1
 8000e2c:	f108 3aff 	add.w	sl, r8, #4294967295
 8000e30:	f080 8088 	bcs.w	8000f44 <__udivmoddi4+0x2bc>
 8000e34:	4288      	cmp	r0, r1
 8000e36:	f240 8085 	bls.w	8000f44 <__udivmoddi4+0x2bc>
 8000e3a:	f1a8 0802 	sub.w	r8, r8, #2
 8000e3e:	4461      	add	r1, ip
 8000e40:	1a09      	subs	r1, r1, r0
 8000e42:	b2a4      	uxth	r4, r4
 8000e44:	fbb1 f0f9 	udiv	r0, r1, r9
 8000e48:	fb09 1110 	mls	r1, r9, r0, r1
 8000e4c:	ea44 4101 	orr.w	r1, r4, r1, lsl #16
 8000e50:	fb00 fe0e 	mul.w	lr, r0, lr
 8000e54:	458e      	cmp	lr, r1
 8000e56:	d908      	bls.n	8000e6a <__udivmoddi4+0x1e2>
 8000e58:	eb1c 0101 	adds.w	r1, ip, r1
 8000e5c:	f100 34ff 	add.w	r4, r0, #4294967295
 8000e60:	d26c      	bcs.n	8000f3c <__udivmoddi4+0x2b4>
 8000e62:	458e      	cmp	lr, r1
 8000e64:	d96a      	bls.n	8000f3c <__udivmoddi4+0x2b4>
 8000e66:	3802      	subs	r0, #2
 8000e68:	4461      	add	r1, ip
 8000e6a:	ea40 4008 	orr.w	r0, r0, r8, lsl #16
 8000e6e:	fba0 9402 	umull	r9, r4, r0, r2
 8000e72:	eba1 010e 	sub.w	r1, r1, lr
 8000e76:	42a1      	cmp	r1, r4
 8000e78:	46c8      	mov	r8, r9
 8000e7a:	46a6      	mov	lr, r4
 8000e7c:	d356      	bcc.n	8000f2c <__udivmoddi4+0x2a4>
 8000e7e:	d053      	beq.n	8000f28 <__udivmoddi4+0x2a0>
 8000e80:	b15d      	cbz	r5, 8000e9a <__udivmoddi4+0x212>
 8000e82:	ebb3 0208 	subs.w	r2, r3, r8
 8000e86:	eb61 010e 	sbc.w	r1, r1, lr
 8000e8a:	fa01 f707 	lsl.w	r7, r1, r7
 8000e8e:	fa22 f306 	lsr.w	r3, r2, r6
 8000e92:	40f1      	lsrs	r1, r6
 8000e94:	431f      	orrs	r7, r3
 8000e96:	e9c5 7100 	strd	r7, r1, [r5]
 8000e9a:	2600      	movs	r6, #0
 8000e9c:	4631      	mov	r1, r6
 8000e9e:	e8bd 87f0 	ldmia.w	sp!, {r4, r5, r6, r7, r8, r9, sl, pc}
 8000ea2:	f1c2 0320 	rsb	r3, r2, #32
 8000ea6:	40d8      	lsrs	r0, r3
 8000ea8:	fa0c fc02 	lsl.w	ip, ip, r2
 8000eac:	fa21 f303 	lsr.w	r3, r1, r3
 8000eb0:	4091      	lsls	r1, r2
 8000eb2:	4301      	orrs	r1, r0
 8000eb4:	ea4f 471c 	mov.w	r7, ip, lsr #16
 8000eb8:	fa1f fe8c 	uxth.w	lr, ip
 8000ebc:	fbb3 f0f7 	udiv	r0, r3, r7
 8000ec0:	fb07 3610 	mls	r6, r7, r0, r3
 8000ec4:	0c0b      	lsrs	r3, r1, #16
 8000ec6:	ea43 4306 	orr.w	r3, r3, r6, lsl #16
 8000eca:	fb00 f60e 	mul.w	r6, r0, lr
 8000ece:	429e      	cmp	r6, r3
 8000ed0:	fa04 f402 	lsl.w	r4, r4, r2
 8000ed4:	d908      	bls.n	8000ee8 <__udivmoddi4+0x260>
 8000ed6:	eb1c 0303 	adds.w	r3, ip, r3
 8000eda:	f100 38ff 	add.w	r8, r0, #4294967295
 8000ede:	d22f      	bcs.n	8000f40 <__udivmoddi4+0x2b8>
 8000ee0:	429e      	cmp	r6, r3
 8000ee2:	d92d      	bls.n	8000f40 <__udivmoddi4+0x2b8>
 8000ee4:	3802      	subs	r0, #2
 8000ee6:	4463      	add	r3, ip
 8000ee8:	1b9b      	subs	r3, r3, r6
 8000eea:	b289      	uxth	r1, r1
 8000eec:	fbb3 f6f7 	udiv	r6, r3, r7
 8000ef0:	fb07 3316 	mls	r3, r7, r6, r3
 8000ef4:	ea41 4103 	orr.w	r1, r1, r3, lsl #16
 8000ef8:	fb06 f30e 	mul.w	r3, r6, lr
 8000efc:	428b      	cmp	r3, r1
 8000efe:	d908      	bls.n	8000f12 <__udivmoddi4+0x28a>
 8000f00:	eb1c 0101 	adds.w	r1, ip, r1
 8000f04:	f106 38ff 	add.w	r8, r6, #4294967295
 8000f08:	d216      	bcs.n	8000f38 <__udivmoddi4+0x2b0>
 8000f0a:	428b      	cmp	r3, r1
 8000f0c:	d914      	bls.n	8000f38 <__udivmoddi4+0x2b0>
 8000f0e:	3e02      	subs	r6, #2
 8000f10:	4461      	add	r1, ip
 8000f12:	1ac9      	subs	r1, r1, r3
 8000f14:	ea46 4600 	orr.w	r6, r6, r0, lsl #16
 8000f18:	e738      	b.n	8000d8c <__udivmoddi4+0x104>
 8000f1a:	462e      	mov	r6, r5
 8000f1c:	4628      	mov	r0, r5
 8000f1e:	e705      	b.n	8000d2c <__udivmoddi4+0xa4>
 8000f20:	4606      	mov	r6, r0
 8000f22:	e6e3      	b.n	8000cec <__udivmoddi4+0x64>
 8000f24:	4618      	mov	r0, r3
 8000f26:	e6f8      	b.n	8000d1a <__udivmoddi4+0x92>
 8000f28:	454b      	cmp	r3, r9
 8000f2a:	d2a9      	bcs.n	8000e80 <__udivmoddi4+0x1f8>
 8000f2c:	ebb9 0802 	subs.w	r8, r9, r2
 8000f30:	eb64 0e0c 	sbc.w	lr, r4, ip
 8000f34:	3801      	subs	r0, #1
 8000f36:	e7a3      	b.n	8000e80 <__udivmoddi4+0x1f8>
 8000f38:	4646      	mov	r6, r8
 8000f3a:	e7ea      	b.n	8000f12 <__udivmoddi4+0x28a>
 8000f3c:	4620      	mov	r0, r4
 8000f3e:	e794      	b.n	8000e6a <__udivmoddi4+0x1e2>
 8000f40:	4640      	mov	r0, r8
 8000f42:	e7d1      	b.n	8000ee8 <__udivmoddi4+0x260>
 8000f44:	46d0      	mov	r8, sl
 8000f46:	e77b      	b.n	8000e40 <__udivmoddi4+0x1b8>
 8000f48:	3b02      	subs	r3, #2
 8000f4a:	4461      	add	r1, ip
 8000f4c:	e732      	b.n	8000db4 <__udivmoddi4+0x12c>
 8000f4e:	4630      	mov	r0, r6
 8000f50:	e709      	b.n	8000d66 <__udivmoddi4+0xde>
 8000f52:	4464      	add	r4, ip
 8000f54:	3802      	subs	r0, #2
 8000f56:	e742      	b.n	8000dde <__udivmoddi4+0x156>

08000f58 <__aeabi_idiv0>:
 8000f58:	4770      	bx	lr
 8000f5a:	bf00      	nop

08000f5c <lcd_send_cmd>:
extern I2C_HandleTypeDef hi2c1;  // change your handler here accordingly

#define SLAVE_ADDRESS_LCD 0x4E // change this according to ur setup

void lcd_send_cmd (char cmd)
{
 8000f5c:	b580      	push	{r7, lr}
 8000f5e:	b086      	sub	sp, #24
 8000f60:	af02      	add	r7, sp, #8
 8000f62:	4603      	mov	r3, r0
 8000f64:	71fb      	strb	r3, [r7, #7]
  char data_u, data_l;
	uint8_t data_t[4];
	data_u = (cmd&0xf0);
 8000f66:	79fb      	ldrb	r3, [r7, #7]
 8000f68:	f023 030f 	bic.w	r3, r3, #15
 8000f6c:	73fb      	strb	r3, [r7, #15]
	data_l = ((cmd<<4)&0xf0);
 8000f6e:	79fb      	ldrb	r3, [r7, #7]
 8000f70:	011b      	lsls	r3, r3, #4
 8000f72:	73bb      	strb	r3, [r7, #14]
	data_t[0] = data_u|0x0C;  //en=1, rs=0
 8000f74:	7bfb      	ldrb	r3, [r7, #15]
 8000f76:	f043 030c 	orr.w	r3, r3, #12
 8000f7a:	b2db      	uxtb	r3, r3
 8000f7c:	723b      	strb	r3, [r7, #8]
	data_t[1] = data_u|0x08;  //en=0, rs=0
 8000f7e:	7bfb      	ldrb	r3, [r7, #15]
 8000f80:	f043 0308 	orr.w	r3, r3, #8
 8000f84:	b2db      	uxtb	r3, r3
 8000f86:	727b      	strb	r3, [r7, #9]
	data_t[2] = data_l|0x0C;  //en=1, rs=0
 8000f88:	7bbb      	ldrb	r3, [r7, #14]
 8000f8a:	f043 030c 	orr.w	r3, r3, #12
 8000f8e:	b2db      	uxtb	r3, r3
 8000f90:	72bb      	strb	r3, [r7, #10]
	data_t[3] = data_l|0x08;  //en=0, rs=0
 8000f92:	7bbb      	ldrb	r3, [r7, #14]
 8000f94:	f043 0308 	orr.w	r3, r3, #8
 8000f98:	b2db      	uxtb	r3, r3
 8000f9a:	72fb      	strb	r3, [r7, #11]
	HAL_I2C_Master_Transmit (&hi2c1, SLAVE_ADDRESS_LCD,(uint8_t *) data_t, 4, 100);
 8000f9c:	f107 0208 	add.w	r2, r7, #8
 8000fa0:	2364      	movs	r3, #100	; 0x64
 8000fa2:	9300      	str	r3, [sp, #0]
 8000fa4:	2304      	movs	r3, #4
 8000fa6:	214e      	movs	r1, #78	; 0x4e
 8000fa8:	4803      	ldr	r0, [pc, #12]	; (8000fb8 <lcd_send_cmd+0x5c>)
 8000faa:	f002 f983 	bl	80032b4 <HAL_I2C_Master_Transmit>
}
 8000fae:	bf00      	nop
 8000fb0:	3710      	adds	r7, #16
 8000fb2:	46bd      	mov	sp, r7
 8000fb4:	bd80      	pop	{r7, pc}
 8000fb6:	bf00      	nop
 8000fb8:	20000240 	.word	0x20000240

08000fbc <lcd_send_data>:

void lcd_send_data (char data)
{
 8000fbc:	b580      	push	{r7, lr}
 8000fbe:	b086      	sub	sp, #24
 8000fc0:	af02      	add	r7, sp, #8
 8000fc2:	4603      	mov	r3, r0
 8000fc4:	71fb      	strb	r3, [r7, #7]
	char data_u, data_l;
	uint8_t data_t[4];
	data_u = (data&0xf0);
 8000fc6:	79fb      	ldrb	r3, [r7, #7]
 8000fc8:	f023 030f 	bic.w	r3, r3, #15
 8000fcc:	73fb      	strb	r3, [r7, #15]
	data_l = ((data<<4)&0xf0);
 8000fce:	79fb      	ldrb	r3, [r7, #7]
 8000fd0:	011b      	lsls	r3, r3, #4
 8000fd2:	73bb      	strb	r3, [r7, #14]
	data_t[0] = data_u|0x0D;  //en=1, rs=0
 8000fd4:	7bfb      	ldrb	r3, [r7, #15]
 8000fd6:	f043 030d 	orr.w	r3, r3, #13
 8000fda:	b2db      	uxtb	r3, r3
 8000fdc:	723b      	strb	r3, [r7, #8]
	data_t[1] = data_u|0x09;  //en=0, rs=0
 8000fde:	7bfb      	ldrb	r3, [r7, #15]
 8000fe0:	f043 0309 	orr.w	r3, r3, #9
 8000fe4:	b2db      	uxtb	r3, r3
 8000fe6:	727b      	strb	r3, [r7, #9]
	data_t[2] = data_l|0x0D;  //en=1, rs=0
 8000fe8:	7bbb      	ldrb	r3, [r7, #14]
 8000fea:	f043 030d 	orr.w	r3, r3, #13
 8000fee:	b2db      	uxtb	r3, r3
 8000ff0:	72bb      	strb	r3, [r7, #10]
	data_t[3] = data_l|0x09;  //en=0, rs=0
 8000ff2:	7bbb      	ldrb	r3, [r7, #14]
 8000ff4:	f043 0309 	orr.w	r3, r3, #9
 8000ff8:	b2db      	uxtb	r3, r3
 8000ffa:	72fb      	strb	r3, [r7, #11]
	HAL_I2C_Master_Transmit (&hi2c1, SLAVE_ADDRESS_LCD,(uint8_t *) data_t, 4, 100);
 8000ffc:	f107 0208 	add.w	r2, r7, #8
 8001000:	2364      	movs	r3, #100	; 0x64
 8001002:	9300      	str	r3, [sp, #0]
 8001004:	2304      	movs	r3, #4
 8001006:	214e      	movs	r1, #78	; 0x4e
 8001008:	4803      	ldr	r0, [pc, #12]	; (8001018 <lcd_send_data+0x5c>)
 800100a:	f002 f953 	bl	80032b4 <HAL_I2C_Master_Transmit>
}
 800100e:	bf00      	nop
 8001010:	3710      	adds	r7, #16
 8001012:	46bd      	mov	sp, r7
 8001014:	bd80      	pop	{r7, pc}
 8001016:	bf00      	nop
 8001018:	20000240 	.word	0x20000240

0800101c <lcd_clear>:

void lcd_clear (void)
{
 800101c:	b580      	push	{r7, lr}
 800101e:	b082      	sub	sp, #8
 8001020:	af00      	add	r7, sp, #0
	lcd_send_cmd (0x80);
 8001022:	2080      	movs	r0, #128	; 0x80
 8001024:	f7ff ff9a 	bl	8000f5c <lcd_send_cmd>
	for (int i=0; i<70; i++)
 8001028:	2300      	movs	r3, #0
 800102a:	607b      	str	r3, [r7, #4]
 800102c:	e005      	b.n	800103a <lcd_clear+0x1e>
	{
		lcd_send_data (' ');
 800102e:	2020      	movs	r0, #32
 8001030:	f7ff ffc4 	bl	8000fbc <lcd_send_data>
	for (int i=0; i<70; i++)
 8001034:	687b      	ldr	r3, [r7, #4]
 8001036:	3301      	adds	r3, #1
 8001038:	607b      	str	r3, [r7, #4]
 800103a:	687b      	ldr	r3, [r7, #4]
 800103c:	2b45      	cmp	r3, #69	; 0x45
 800103e:	ddf6      	ble.n	800102e <lcd_clear+0x12>
	}
}
 8001040:	bf00      	nop
 8001042:	bf00      	nop
 8001044:	3708      	adds	r7, #8
 8001046:	46bd      	mov	sp, r7
 8001048:	bd80      	pop	{r7, pc}

0800104a <lcd_put_cur>:

void lcd_put_cur(int row, int col)
{
 800104a:	b580      	push	{r7, lr}
 800104c:	b082      	sub	sp, #8
 800104e:	af00      	add	r7, sp, #0
 8001050:	6078      	str	r0, [r7, #4]
 8001052:	6039      	str	r1, [r7, #0]
    switch (row)
 8001054:	687b      	ldr	r3, [r7, #4]
 8001056:	2b00      	cmp	r3, #0
 8001058:	d003      	beq.n	8001062 <lcd_put_cur+0x18>
 800105a:	687b      	ldr	r3, [r7, #4]
 800105c:	2b01      	cmp	r3, #1
 800105e:	d005      	beq.n	800106c <lcd_put_cur+0x22>
 8001060:	e009      	b.n	8001076 <lcd_put_cur+0x2c>
    {
        case 0:
            col |= 0x80;
 8001062:	683b      	ldr	r3, [r7, #0]
 8001064:	f043 0380 	orr.w	r3, r3, #128	; 0x80
 8001068:	603b      	str	r3, [r7, #0]
            break;
 800106a:	e004      	b.n	8001076 <lcd_put_cur+0x2c>
        case 1:
            col |= 0xC0;
 800106c:	683b      	ldr	r3, [r7, #0]
 800106e:	f043 03c0 	orr.w	r3, r3, #192	; 0xc0
 8001072:	603b      	str	r3, [r7, #0]
            break;
 8001074:	bf00      	nop
    }

    lcd_send_cmd (col);
 8001076:	683b      	ldr	r3, [r7, #0]
 8001078:	b2db      	uxtb	r3, r3
 800107a:	4618      	mov	r0, r3
 800107c:	f7ff ff6e 	bl	8000f5c <lcd_send_cmd>
}
 8001080:	bf00      	nop
 8001082:	3708      	adds	r7, #8
 8001084:	46bd      	mov	sp, r7
 8001086:	bd80      	pop	{r7, pc}

08001088 <lcd_init>:


void lcd_init (void)
{
 8001088:	b580      	push	{r7, lr}
 800108a:	af00      	add	r7, sp, #0
	// 4 bit initialisation
	HAL_Delay(50);  // wait for >40ms
 800108c:	2032      	movs	r0, #50	; 0x32
 800108e:	f001 f875 	bl	800217c <HAL_Delay>
	lcd_send_cmd (0x30);
 8001092:	2030      	movs	r0, #48	; 0x30
 8001094:	f7ff ff62 	bl	8000f5c <lcd_send_cmd>
	HAL_Delay(5);  // wait for >4.1ms
 8001098:	2005      	movs	r0, #5
 800109a:	f001 f86f 	bl	800217c <HAL_Delay>
	lcd_send_cmd (0x30);
 800109e:	2030      	movs	r0, #48	; 0x30
 80010a0:	f7ff ff5c 	bl	8000f5c <lcd_send_cmd>
	HAL_Delay(1);  // wait for >100us
 80010a4:	2001      	movs	r0, #1
 80010a6:	f001 f869 	bl	800217c <HAL_Delay>
	lcd_send_cmd (0x30);
 80010aa:	2030      	movs	r0, #48	; 0x30
 80010ac:	f7ff ff56 	bl	8000f5c <lcd_send_cmd>
	HAL_Delay(10);
 80010b0:	200a      	movs	r0, #10
 80010b2:	f001 f863 	bl	800217c <HAL_Delay>
	lcd_send_cmd (0x20);  // 4bit mode
 80010b6:	2020      	movs	r0, #32
 80010b8:	f7ff ff50 	bl	8000f5c <lcd_send_cmd>
	HAL_Delay(10);
 80010bc:	200a      	movs	r0, #10
 80010be:	f001 f85d 	bl	800217c <HAL_Delay>

  // dislay initialisation
	lcd_send_cmd (0x28); // Function set --> DL=0 (4 bit mode), N = 1 (2 line display) F = 0 (5x8 characters)
 80010c2:	2028      	movs	r0, #40	; 0x28
 80010c4:	f7ff ff4a 	bl	8000f5c <lcd_send_cmd>
	HAL_Delay(1);
 80010c8:	2001      	movs	r0, #1
 80010ca:	f001 f857 	bl	800217c <HAL_Delay>
	lcd_send_cmd (0x08); //Display on/off control --> D=0,C=0, B=0  ---> display off
 80010ce:	2008      	movs	r0, #8
 80010d0:	f7ff ff44 	bl	8000f5c <lcd_send_cmd>
	HAL_Delay(1);
 80010d4:	2001      	movs	r0, #1
 80010d6:	f001 f851 	bl	800217c <HAL_Delay>
	lcd_send_cmd (0x01);  // clear display
 80010da:	2001      	movs	r0, #1
 80010dc:	f7ff ff3e 	bl	8000f5c <lcd_send_cmd>
	HAL_Delay(1);
 80010e0:	2001      	movs	r0, #1
 80010e2:	f001 f84b 	bl	800217c <HAL_Delay>
	HAL_Delay(1);
 80010e6:	2001      	movs	r0, #1
 80010e8:	f001 f848 	bl	800217c <HAL_Delay>
	lcd_send_cmd (0x06); //Entry mode set --> I/D = 1 (increment cursor) & S = 0 (no shift)
 80010ec:	2006      	movs	r0, #6
 80010ee:	f7ff ff35 	bl	8000f5c <lcd_send_cmd>
	HAL_Delay(1);
 80010f2:	2001      	movs	r0, #1
 80010f4:	f001 f842 	bl	800217c <HAL_Delay>
	lcd_send_cmd (0x0C); //Display on/off control --> D = 1, C and B = 0. (Cursor and blink, last two bits)
 80010f8:	200c      	movs	r0, #12
 80010fa:	f7ff ff2f 	bl	8000f5c <lcd_send_cmd>
}
 80010fe:	bf00      	nop
 8001100:	bd80      	pop	{r7, pc}

08001102 <lcd_send_string>:

void lcd_send_string (char *str)
{
 8001102:	b580      	push	{r7, lr}
 8001104:	b082      	sub	sp, #8
 8001106:	af00      	add	r7, sp, #0
 8001108:	6078      	str	r0, [r7, #4]
	while (*str) lcd_send_data (*str++);
 800110a:	e006      	b.n	800111a <lcd_send_string+0x18>
 800110c:	687b      	ldr	r3, [r7, #4]
 800110e:	1c5a      	adds	r2, r3, #1
 8001110:	607a      	str	r2, [r7, #4]
 8001112:	781b      	ldrb	r3, [r3, #0]
 8001114:	4618      	mov	r0, r3
 8001116:	f7ff ff51 	bl	8000fbc <lcd_send_data>
 800111a:	687b      	ldr	r3, [r7, #4]
 800111c:	781b      	ldrb	r3, [r3, #0]
 800111e:	2b00      	cmp	r3, #0
 8001120:	d1f4      	bne.n	800110c <lcd_send_string+0xa>
}
 8001122:	bf00      	nop
 8001124:	bf00      	nop
 8001126:	3708      	adds	r7, #8
 8001128:	46bd      	mov	sp, r7
 800112a:	bd80      	pop	{r7, pc}

0800112c <delay>:
#define DHT22_PIN GPIO_PIN_1


//Funciones necesarias para el tratamiento de los datos obtenidos por el sensor y para mostrarlos en la pantalla LCD
void delay (uint16_t time)
{
 800112c:	b480      	push	{r7}
 800112e:	b083      	sub	sp, #12
 8001130:	af00      	add	r7, sp, #0
 8001132:	4603      	mov	r3, r0
 8001134:	80fb      	strh	r3, [r7, #6]
	__HAL_TIM_SET_COUNTER(&htim10,0);
 8001136:	4b09      	ldr	r3, [pc, #36]	; (800115c <delay+0x30>)
 8001138:	681b      	ldr	r3, [r3, #0]
 800113a:	2200      	movs	r2, #0
 800113c:	625a      	str	r2, [r3, #36]	; 0x24
	while((__HAL_TIM_GET_COUNTER(&htim10))<time);
 800113e:	bf00      	nop
 8001140:	4b06      	ldr	r3, [pc, #24]	; (800115c <delay+0x30>)
 8001142:	681b      	ldr	r3, [r3, #0]
 8001144:	6a5a      	ldr	r2, [r3, #36]	; 0x24
 8001146:	88fb      	ldrh	r3, [r7, #6]
 8001148:	429a      	cmp	r2, r3
 800114a:	d3f9      	bcc.n	8001140 <delay+0x14>
}
 800114c:	bf00      	nop
 800114e:	bf00      	nop
 8001150:	370c      	adds	r7, #12
 8001152:	46bd      	mov	sp, r7
 8001154:	f85d 7b04 	ldr.w	r7, [sp], #4
 8001158:	4770      	bx	lr
 800115a:	bf00      	nop
 800115c:	20000314 	.word	0x20000314

08001160 <Display_Temp>:

void Display_Temp(float Temp)
{
 8001160:	b580      	push	{r7, lr}
 8001162:	b088      	sub	sp, #32
 8001164:	af00      	add	r7, sp, #0
 8001166:	ed87 0a01 	vstr	s0, [r7, #4]
	char str[20] = {0};
 800116a:	2300      	movs	r3, #0
 800116c:	60fb      	str	r3, [r7, #12]
 800116e:	f107 0310 	add.w	r3, r7, #16
 8001172:	2200      	movs	r2, #0
 8001174:	601a      	str	r2, [r3, #0]
 8001176:	605a      	str	r2, [r3, #4]
 8001178:	609a      	str	r2, [r3, #8]
 800117a:	60da      	str	r2, [r3, #12]
	lcd_put_cur(0,0);
 800117c:	2100      	movs	r1, #0
 800117e:	2000      	movs	r0, #0
 8001180:	f7ff ff63 	bl	800104a <lcd_put_cur>

	sprintf(str,"TEMP: %.2f ", Temp); // @suppress("Float formatting support")
 8001184:	6878      	ldr	r0, [r7, #4]
 8001186:	f7ff f9e7 	bl	8000558 <__aeabi_f2d>
 800118a:	4602      	mov	r2, r0
 800118c:	460b      	mov	r3, r1
 800118e:	f107 000c 	add.w	r0, r7, #12
 8001192:	4907      	ldr	r1, [pc, #28]	; (80011b0 <Display_Temp+0x50>)
 8001194:	f004 fd44 	bl	8005c20 <siprintf>
	lcd_send_string(str);
 8001198:	f107 030c 	add.w	r3, r7, #12
 800119c:	4618      	mov	r0, r3
 800119e:	f7ff ffb0 	bl	8001102 <lcd_send_string>
	lcd_send_data('C');
 80011a2:	2043      	movs	r0, #67	; 0x43
 80011a4:	f7ff ff0a 	bl	8000fbc <lcd_send_data>
}
 80011a8:	bf00      	nop
 80011aa:	3720      	adds	r7, #32
 80011ac:	46bd      	mov	sp, r7
 80011ae:	bd80      	pop	{r7, pc}
 80011b0:	08008128 	.word	0x08008128

080011b4 <Display_Hm>:

void Display_Hm(float Hm)
{
 80011b4:	b580      	push	{r7, lr}
 80011b6:	b088      	sub	sp, #32
 80011b8:	af00      	add	r7, sp, #0
 80011ba:	ed87 0a01 	vstr	s0, [r7, #4]
	char str[20] = {0};
 80011be:	2300      	movs	r3, #0
 80011c0:	60fb      	str	r3, [r7, #12]
 80011c2:	f107 0310 	add.w	r3, r7, #16
 80011c6:	2200      	movs	r2, #0
 80011c8:	601a      	str	r2, [r3, #0]
 80011ca:	605a      	str	r2, [r3, #4]
 80011cc:	609a      	str	r2, [r3, #8]
 80011ce:	60da      	str	r2, [r3, #12]
	lcd_put_cur(1,0);
 80011d0:	2100      	movs	r1, #0
 80011d2:	2001      	movs	r0, #1
 80011d4:	f7ff ff39 	bl	800104a <lcd_put_cur>

	sprintf(str,"HUM: %.2f ", Hm); // @suppress("Float formatting support")
 80011d8:	6878      	ldr	r0, [r7, #4]
 80011da:	f7ff f9bd 	bl	8000558 <__aeabi_f2d>
 80011de:	4602      	mov	r2, r0
 80011e0:	460b      	mov	r3, r1
 80011e2:	f107 000c 	add.w	r0, r7, #12
 80011e6:	4907      	ldr	r1, [pc, #28]	; (8001204 <Display_Hm+0x50>)
 80011e8:	f004 fd1a 	bl	8005c20 <siprintf>
	lcd_send_string(str);
 80011ec:	f107 030c 	add.w	r3, r7, #12
 80011f0:	4618      	mov	r0, r3
 80011f2:	f7ff ff86 	bl	8001102 <lcd_send_string>
	lcd_send_data('%');
 80011f6:	2025      	movs	r0, #37	; 0x25
 80011f8:	f7ff fee0 	bl	8000fbc <lcd_send_data>
}
 80011fc:	bf00      	nop
 80011fe:	3720      	adds	r7, #32
 8001200:	46bd      	mov	sp, r7
 8001202:	bd80      	pop	{r7, pc}
 8001204:	08008134 	.word	0x08008134

08001208 <PIN_TO_INPUT>:

void PIN_TO_INPUT(GPIO_TypeDef*GPIOx, uint16_t GPIO_Pin)
{
 8001208:	b580      	push	{r7, lr}
 800120a:	b088      	sub	sp, #32
 800120c:	af00      	add	r7, sp, #0
 800120e:	6078      	str	r0, [r7, #4]
 8001210:	460b      	mov	r3, r1
 8001212:	807b      	strh	r3, [r7, #2]
	 GPIO_InitTypeDef GPIO_InitStruct = {0};
 8001214:	f107 030c 	add.w	r3, r7, #12
 8001218:	2200      	movs	r2, #0
 800121a:	601a      	str	r2, [r3, #0]
 800121c:	605a      	str	r2, [r3, #4]
 800121e:	609a      	str	r2, [r3, #8]
 8001220:	60da      	str	r2, [r3, #12]
 8001222:	611a      	str	r2, [r3, #16]
	 GPIO_InitStruct.Pin = GPIO_Pin;
 8001224:	887b      	ldrh	r3, [r7, #2]
 8001226:	60fb      	str	r3, [r7, #12]
	 GPIO_InitStruct.Mode = GPIO_MODE_INPUT;
 8001228:	2300      	movs	r3, #0
 800122a:	613b      	str	r3, [r7, #16]
	 GPIO_InitStruct.Pull = GPIO_NOPULL;
 800122c:	2300      	movs	r3, #0
 800122e:	617b      	str	r3, [r7, #20]
	 HAL_GPIO_Init(GPIOx, &GPIO_InitStruct);
 8001230:	f107 030c 	add.w	r3, r7, #12
 8001234:	4619      	mov	r1, r3
 8001236:	6878      	ldr	r0, [r7, #4]
 8001238:	f001 fd42 	bl	8002cc0 <HAL_GPIO_Init>
}
 800123c:	bf00      	nop
 800123e:	3720      	adds	r7, #32
 8001240:	46bd      	mov	sp, r7
 8001242:	bd80      	pop	{r7, pc}

08001244 <PIN_TO_OUTPUT>:

void PIN_TO_OUTPUT(GPIO_TypeDef*GPIOx, uint16_t GPIO_Pin)
{
 8001244:	b580      	push	{r7, lr}
 8001246:	b088      	sub	sp, #32
 8001248:	af00      	add	r7, sp, #0
 800124a:	6078      	str	r0, [r7, #4]
 800124c:	460b      	mov	r3, r1
 800124e:	807b      	strh	r3, [r7, #2]
	 GPIO_InitTypeDef GPIO_InitStruct = {0};
 8001250:	f107 030c 	add.w	r3, r7, #12
 8001254:	2200      	movs	r2, #0
 8001256:	601a      	str	r2, [r3, #0]
 8001258:	605a      	str	r2, [r3, #4]
 800125a:	609a      	str	r2, [r3, #8]
 800125c:	60da      	str	r2, [r3, #12]
 800125e:	611a      	str	r2, [r3, #16]
	 GPIO_InitStruct.Pin = GPIO_Pin;
 8001260:	887b      	ldrh	r3, [r7, #2]
 8001262:	60fb      	str	r3, [r7, #12]
	 GPIO_InitStruct.Mode = GPIO_MODE_OUTPUT_PP;
 8001264:	2301      	movs	r3, #1
 8001266:	613b      	str	r3, [r7, #16]
	 GPIO_InitStruct.Speed = GPIO_SPEED_FREQ_LOW;
 8001268:	2300      	movs	r3, #0
 800126a:	61bb      	str	r3, [r7, #24]
	 HAL_GPIO_Init(GPIOx, &GPIO_InitStruct);
 800126c:	f107 030c 	add.w	r3, r7, #12
 8001270:	4619      	mov	r1, r3
 8001272:	6878      	ldr	r0, [r7, #4]
 8001274:	f001 fd24 	bl	8002cc0 <HAL_GPIO_Init>
}
 8001278:	bf00      	nop
 800127a:	3720      	adds	r7, #32
 800127c:	46bd      	mov	sp, r7
 800127e:	bd80      	pop	{r7, pc}

08001280 <DHT22_COMIENZO>:

void DHT22_COMIENZO(void)
{
 8001280:	b580      	push	{r7, lr}
 8001282:	af00      	add	r7, sp, #0
	PIN_TO_OUTPUT(DHT22_PORT, DHT22_PIN);
 8001284:	2102      	movs	r1, #2
 8001286:	480d      	ldr	r0, [pc, #52]	; (80012bc <DHT22_COMIENZO+0x3c>)
 8001288:	f7ff ffdc 	bl	8001244 <PIN_TO_OUTPUT>
	HAL_GPIO_WritePin(DHT22_PORT, DHT22_PIN, 0);
 800128c:	2200      	movs	r2, #0
 800128e:	2102      	movs	r1, #2
 8001290:	480a      	ldr	r0, [pc, #40]	; (80012bc <DHT22_COMIENZO+0x3c>)
 8001292:	f001 feb1 	bl	8002ff8 <HAL_GPIO_WritePin>
	delay(1200);
 8001296:	f44f 6096 	mov.w	r0, #1200	; 0x4b0
 800129a:	f7ff ff47 	bl	800112c <delay>
	HAL_GPIO_WritePin(DHT22_PORT, DHT22_PIN, 1);
 800129e:	2201      	movs	r2, #1
 80012a0:	2102      	movs	r1, #2
 80012a2:	4806      	ldr	r0, [pc, #24]	; (80012bc <DHT22_COMIENZO+0x3c>)
 80012a4:	f001 fea8 	bl	8002ff8 <HAL_GPIO_WritePin>
	delay(20);
 80012a8:	2014      	movs	r0, #20
 80012aa:	f7ff ff3f 	bl	800112c <delay>
	PIN_TO_INPUT(DHT22_PORT, DHT22_PIN);
 80012ae:	2102      	movs	r1, #2
 80012b0:	4802      	ldr	r0, [pc, #8]	; (80012bc <DHT22_COMIENZO+0x3c>)
 80012b2:	f7ff ffa9 	bl	8001208 <PIN_TO_INPUT>
}
 80012b6:	bf00      	nop
 80012b8:	bd80      	pop	{r7, pc}
 80012ba:	bf00      	nop
 80012bc:	40020000 	.word	0x40020000

080012c0 <DHT22_VERIFICACION>:


uint8_t DHT22_VERIFICACION (void)
{
 80012c0:	b580      	push	{r7, lr}
 80012c2:	b082      	sub	sp, #8
 80012c4:	af00      	add	r7, sp, #0
	uint8_t VERIFICACION = 0;
 80012c6:	2300      	movs	r3, #0
 80012c8:	71fb      	strb	r3, [r7, #7]
	delay(40);
 80012ca:	2028      	movs	r0, #40	; 0x28
 80012cc:	f7ff ff2e 	bl	800112c <delay>
	if(!(HAL_GPIO_ReadPin(DHT22_PORT, DHT22_PIN)))
 80012d0:	2102      	movs	r1, #2
 80012d2:	4811      	ldr	r0, [pc, #68]	; (8001318 <DHT22_VERIFICACION+0x58>)
 80012d4:	f001 fe78 	bl	8002fc8 <HAL_GPIO_ReadPin>
 80012d8:	4603      	mov	r3, r0
 80012da:	2b00      	cmp	r3, #0
 80012dc:	d10e      	bne.n	80012fc <DHT22_VERIFICACION+0x3c>
	{
		delay(80);
 80012de:	2050      	movs	r0, #80	; 0x50
 80012e0:	f7ff ff24 	bl	800112c <delay>
		if((HAL_GPIO_ReadPin(DHT22_PORT, DHT22_PIN)))
 80012e4:	2102      	movs	r1, #2
 80012e6:	480c      	ldr	r0, [pc, #48]	; (8001318 <DHT22_VERIFICACION+0x58>)
 80012e8:	f001 fe6e 	bl	8002fc8 <HAL_GPIO_ReadPin>
 80012ec:	4603      	mov	r3, r0
 80012ee:	2b00      	cmp	r3, #0
 80012f0:	d002      	beq.n	80012f8 <DHT22_VERIFICACION+0x38>
		{
			VERIFICACION = 1;
 80012f2:	2301      	movs	r3, #1
 80012f4:	71fb      	strb	r3, [r7, #7]
 80012f6:	e001      	b.n	80012fc <DHT22_VERIFICACION+0x3c>
		}
		else
		{
			VERIFICACION = -1;
 80012f8:	23ff      	movs	r3, #255	; 0xff
 80012fa:	71fb      	strb	r3, [r7, #7]
		}
	}

    while((HAL_GPIO_ReadPin(DHT22_PORT, DHT22_PIN)))
 80012fc:	bf00      	nop
 80012fe:	2102      	movs	r1, #2
 8001300:	4805      	ldr	r0, [pc, #20]	; (8001318 <DHT22_VERIFICACION+0x58>)
 8001302:	f001 fe61 	bl	8002fc8 <HAL_GPIO_ReadPin>
 8001306:	4603      	mov	r3, r0
 8001308:	2b00      	cmp	r3, #0
 800130a:	d1f8      	bne.n	80012fe <DHT22_VERIFICACION+0x3e>
    {

    }

	return VERIFICACION;
 800130c:	79fb      	ldrb	r3, [r7, #7]
}
 800130e:	4618      	mov	r0, r3
 8001310:	3708      	adds	r7, #8
 8001312:	46bd      	mov	sp, r7
 8001314:	bd80      	pop	{r7, pc}
 8001316:	bf00      	nop
 8001318:	40020000 	.word	0x40020000

0800131c <DHT22_LEER_DATOS>:

uint8_t DHT22_LEER_DATOS (void)
{
 800131c:	b580      	push	{r7, lr}
 800131e:	b082      	sub	sp, #8
 8001320:	af00      	add	r7, sp, #0
	uint8_t DATO,AUX;
	for(AUX=0; AUX<8 ;AUX++)
 8001322:	2300      	movs	r3, #0
 8001324:	71bb      	strb	r3, [r7, #6]
 8001326:	e037      	b.n	8001398 <DHT22_LEER_DATOS+0x7c>
	{
	while(!(HAL_GPIO_ReadPin(DHT22_PORT, DHT22_PIN)));
 8001328:	bf00      	nop
 800132a:	2102      	movs	r1, #2
 800132c:	481e      	ldr	r0, [pc, #120]	; (80013a8 <DHT22_LEER_DATOS+0x8c>)
 800132e:	f001 fe4b 	bl	8002fc8 <HAL_GPIO_ReadPin>
 8001332:	4603      	mov	r3, r0
 8001334:	2b00      	cmp	r3, #0
 8001336:	d0f8      	beq.n	800132a <DHT22_LEER_DATOS+0xe>
	delay(40);
 8001338:	2028      	movs	r0, #40	; 0x28
 800133a:	f7ff fef7 	bl	800112c <delay>
	if(!(HAL_GPIO_ReadPin(DHT22_PORT, DHT22_PIN)))
 800133e:	2102      	movs	r1, #2
 8001340:	4819      	ldr	r0, [pc, #100]	; (80013a8 <DHT22_LEER_DATOS+0x8c>)
 8001342:	f001 fe41 	bl	8002fc8 <HAL_GPIO_ReadPin>
 8001346:	4603      	mov	r3, r0
 8001348:	2b00      	cmp	r3, #0
 800134a:	d10e      	bne.n	800136a <DHT22_LEER_DATOS+0x4e>
	{
		DATO&= ~(1<<(7-AUX));
 800134c:	79bb      	ldrb	r3, [r7, #6]
 800134e:	f1c3 0307 	rsb	r3, r3, #7
 8001352:	2201      	movs	r2, #1
 8001354:	fa02 f303 	lsl.w	r3, r2, r3
 8001358:	b25b      	sxtb	r3, r3
 800135a:	43db      	mvns	r3, r3
 800135c:	b25a      	sxtb	r2, r3
 800135e:	f997 3007 	ldrsb.w	r3, [r7, #7]
 8001362:	4013      	ands	r3, r2
 8001364:	b25b      	sxtb	r3, r3
 8001366:	71fb      	strb	r3, [r7, #7]
 8001368:	e00b      	b.n	8001382 <DHT22_LEER_DATOS+0x66>
	}
	else
	{
		DATO|= (1<<(7-AUX));
 800136a:	79bb      	ldrb	r3, [r7, #6]
 800136c:	f1c3 0307 	rsb	r3, r3, #7
 8001370:	2201      	movs	r2, #1
 8001372:	fa02 f303 	lsl.w	r3, r2, r3
 8001376:	b25a      	sxtb	r2, r3
 8001378:	f997 3007 	ldrsb.w	r3, [r7, #7]
 800137c:	4313      	orrs	r3, r2
 800137e:	b25b      	sxtb	r3, r3
 8001380:	71fb      	strb	r3, [r7, #7]
	}
    while((HAL_GPIO_ReadPin(DHT22_PORT, DHT22_PIN)));
 8001382:	bf00      	nop
 8001384:	2102      	movs	r1, #2
 8001386:	4808      	ldr	r0, [pc, #32]	; (80013a8 <DHT22_LEER_DATOS+0x8c>)
 8001388:	f001 fe1e 	bl	8002fc8 <HAL_GPIO_ReadPin>
 800138c:	4603      	mov	r3, r0
 800138e:	2b00      	cmp	r3, #0
 8001390:	d1f8      	bne.n	8001384 <DHT22_LEER_DATOS+0x68>
	for(AUX=0; AUX<8 ;AUX++)
 8001392:	79bb      	ldrb	r3, [r7, #6]
 8001394:	3301      	adds	r3, #1
 8001396:	71bb      	strb	r3, [r7, #6]
 8001398:	79bb      	ldrb	r3, [r7, #6]
 800139a:	2b07      	cmp	r3, #7
 800139c:	d9c4      	bls.n	8001328 <DHT22_LEER_DATOS+0xc>
	}

	return DATO;
 800139e:	79fb      	ldrb	r3, [r7, #7]
}
 80013a0:	4618      	mov	r0, r3
 80013a2:	3708      	adds	r7, #8
 80013a4:	46bd      	mov	sp, r7
 80013a6:	bd80      	pop	{r7, pc}
 80013a8:	40020000 	.word	0x40020000

080013ac <HAL_ADC_ConvCpltCallback>:

//Involucramos un ADC mediante interrupcion para el sensor de luz
uint8_t ADC_val;
int n_medida = 0;

void HAL_ADC_ConvCpltCallback(ADC_HandleTypeDef* hadc){
 80013ac:	b580      	push	{r7, lr}
 80013ae:	b082      	sub	sp, #8
 80013b0:	af00      	add	r7, sp, #0
 80013b2:	6078      	str	r0, [r7, #4]
	if (hadc->Instance == ADC1){
 80013b4:	687b      	ldr	r3, [r7, #4]
 80013b6:	681b      	ldr	r3, [r3, #0]
 80013b8:	4a08      	ldr	r2, [pc, #32]	; (80013dc <HAL_ADC_ConvCpltCallback+0x30>)
 80013ba:	4293      	cmp	r3, r2
 80013bc:	d109      	bne.n	80013d2 <HAL_ADC_ConvCpltCallback+0x26>
		ADC_val = HAL_ADC_GetValue(&hadc1);
 80013be:	4808      	ldr	r0, [pc, #32]	; (80013e0 <HAL_ADC_ConvCpltCallback+0x34>)
 80013c0:	f001 f912 	bl	80025e8 <HAL_ADC_GetValue>
 80013c4:	4603      	mov	r3, r0
 80013c6:	b2da      	uxtb	r2, r3
 80013c8:	4b06      	ldr	r3, [pc, #24]	; (80013e4 <HAL_ADC_ConvCpltCallback+0x38>)
 80013ca:	701a      	strb	r2, [r3, #0]
		n_medida=1;
 80013cc:	4b06      	ldr	r3, [pc, #24]	; (80013e8 <HAL_ADC_ConvCpltCallback+0x3c>)
 80013ce:	2201      	movs	r2, #1
 80013d0:	601a      	str	r2, [r3, #0]
	}
}
 80013d2:	bf00      	nop
 80013d4:	3708      	adds	r7, #8
 80013d6:	46bd      	mov	sp, r7
 80013d8:	bd80      	pop	{r7, pc}
 80013da:	bf00      	nop
 80013dc:	40012000 	.word	0x40012000
 80013e0:	200001f8 	.word	0x200001f8
 80013e4:	20000378 	.word	0x20000378
 80013e8:	2000037c 	.word	0x2000037c

080013ec <HAL_TIM_PeriodElapsedCallback>:

//Interrupcion programada para dar la hora
void HAL_TIM_PeriodElapsedCallback(TIM_HandleTypeDef *htim){
 80013ec:	b580      	push	{r7, lr}
 80013ee:	b082      	sub	sp, #8
 80013f0:	af00      	add	r7, sp, #0
 80013f2:	6078      	str	r0, [r7, #4]
	if (htim->Instance == TIM4)
 80013f4:	687b      	ldr	r3, [r7, #4]
 80013f6:	681b      	ldr	r3, [r3, #0]
 80013f8:	4a0e      	ldr	r2, [pc, #56]	; (8001434 <HAL_TIM_PeriodElapsedCallback+0x48>)
 80013fa:	4293      	cmp	r3, r2
 80013fc:	d115      	bne.n	800142a <HAL_TIM_PeriodElapsedCallback+0x3e>
		{
			HAL_RTC_GetTime(&hrtc, &sTime, RTC_FORMAT_BIN);
 80013fe:	2200      	movs	r2, #0
 8001400:	490d      	ldr	r1, [pc, #52]	; (8001438 <HAL_TIM_PeriodElapsedCallback+0x4c>)
 8001402:	480e      	ldr	r0, [pc, #56]	; (800143c <HAL_TIM_PeriodElapsedCallback+0x50>)
 8001404:	f003 f8e2 	bl	80045cc <HAL_RTC_GetTime>
			HAL_RTC_GetDate(&hrtc, &sDate, RTC_FORMAT_BIN);
 8001408:	2200      	movs	r2, #0
 800140a:	490d      	ldr	r1, [pc, #52]	; (8001440 <HAL_TIM_PeriodElapsedCallback+0x54>)
 800140c:	480b      	ldr	r0, [pc, #44]	; (800143c <HAL_TIM_PeriodElapsedCallback+0x50>)
 800140e:	f003 f9bf 	bl	8004790 <HAL_RTC_GetDate>
			SEC = sTime.Seconds;
 8001412:	4b09      	ldr	r3, [pc, #36]	; (8001438 <HAL_TIM_PeriodElapsedCallback+0x4c>)
 8001414:	789a      	ldrb	r2, [r3, #2]
 8001416:	4b0b      	ldr	r3, [pc, #44]	; (8001444 <HAL_TIM_PeriodElapsedCallback+0x58>)
 8001418:	701a      	strb	r2, [r3, #0]
			MIN = sTime.Minutes;
 800141a:	4b07      	ldr	r3, [pc, #28]	; (8001438 <HAL_TIM_PeriodElapsedCallback+0x4c>)
 800141c:	785a      	ldrb	r2, [r3, #1]
 800141e:	4b0a      	ldr	r3, [pc, #40]	; (8001448 <HAL_TIM_PeriodElapsedCallback+0x5c>)
 8001420:	701a      	strb	r2, [r3, #0]
			HOUR = sTime.Hours;
 8001422:	4b05      	ldr	r3, [pc, #20]	; (8001438 <HAL_TIM_PeriodElapsedCallback+0x4c>)
 8001424:	781a      	ldrb	r2, [r3, #0]
 8001426:	4b09      	ldr	r3, [pc, #36]	; (800144c <HAL_TIM_PeriodElapsedCallback+0x60>)
 8001428:	701a      	strb	r2, [r3, #0]

		}
}
 800142a:	bf00      	nop
 800142c:	3708      	adds	r7, #8
 800142e:	46bd      	mov	sp, r7
 8001430:	bd80      	pop	{r7, pc}
 8001432:	bf00      	nop
 8001434:	40000800 	.word	0x40000800
 8001438:	200002b4 	.word	0x200002b4
 800143c:	20000294 	.word	0x20000294
 8001440:	200002c8 	.word	0x200002c8
 8001444:	20000368 	.word	0x20000368
 8001448:	20000369 	.word	0x20000369
 800144c:	2000036a 	.word	0x2000036a

08001450 <main>:
/**
  * @brief  The application entry point.
  * @retval int
  */
int main(void)
{
 8001450:	b580      	push	{r7, lr}
 8001452:	b08a      	sub	sp, #40	; 0x28
 8001454:	af02      	add	r7, sp, #8
  /* USER CODE END 1 */

  /* MCU Configuration--------------------------------------------------------*/

  /* Reset of all peripherals, Initializes the Flash interface and the Systick. */
  HAL_Init();
 8001456:	f000 fe1f 	bl	8002098 <HAL_Init>
  /* USER CODE BEGIN Init */

  /* USER CODE END Init */

  /* Configure the system clock */
  SystemClock_Config();
 800145a:	f000 f9ab 	bl	80017b4 <SystemClock_Config>
  /* USER CODE BEGIN SysInit */

  /* USER CODE END SysInit */

  /* Initialize all configured peripherals */
  MX_GPIO_Init();
 800145e:	f000 fb2d 	bl	8001abc <MX_GPIO_Init>
  MX_I2C1_Init();
 8001462:	f000 fa65 	bl	8001930 <MX_I2C1_Init>
  MX_TIM10_Init();
 8001466:	f000 fb05 	bl	8001a74 <MX_TIM10_Init>
  MX_ADC1_Init();
 800146a:	f000 fa0f 	bl	800188c <MX_ADC1_Init>
  MX_RTC_Init();
 800146e:	f000 fa8d 	bl	800198c <MX_RTC_Init>
  MX_TIM4_Init();
 8001472:	f000 fab1 	bl	80019d8 <MX_TIM4_Init>
  /* USER CODE BEGIN 2 */
  HAL_TIM_Base_Start_IT(&htim4);
 8001476:	48b0      	ldr	r0, [pc, #704]	; (8001738 <main+0x2e8>)
 8001478:	f003 fb40 	bl	8004afc <HAL_TIM_Base_Start_IT>
  HAL_TIM_Base_Start(&htim10);
 800147c:	48af      	ldr	r0, [pc, #700]	; (800173c <main+0x2ec>)
 800147e:	f003 fae3 	bl	8004a48 <HAL_TIM_Base_Start>
  HAL_ADC_Start_IT(&hadc1);
 8001482:	48af      	ldr	r0, [pc, #700]	; (8001740 <main+0x2f0>)
 8001484:	f000 fee2 	bl	800224c <HAL_ADC_Start_IT>

  //Configuracion inicial del reloj
  sTime.Seconds = 0;
 8001488:	4bae      	ldr	r3, [pc, #696]	; (8001744 <main+0x2f4>)
 800148a:	2200      	movs	r2, #0
 800148c:	709a      	strb	r2, [r3, #2]
  sTime.Minutes = 0;
 800148e:	4bad      	ldr	r3, [pc, #692]	; (8001744 <main+0x2f4>)
 8001490:	2200      	movs	r2, #0
 8001492:	705a      	strb	r2, [r3, #1]
  sTime.Hours = 0;
 8001494:	4bab      	ldr	r3, [pc, #684]	; (8001744 <main+0x2f4>)
 8001496:	2200      	movs	r2, #0
 8001498:	701a      	strb	r2, [r3, #0]
  sDate.Date = 0;
 800149a:	4bab      	ldr	r3, [pc, #684]	; (8001748 <main+0x2f8>)
 800149c:	2200      	movs	r2, #0
 800149e:	709a      	strb	r2, [r3, #2]
  sDate.Month = 0;
 80014a0:	4ba9      	ldr	r3, [pc, #676]	; (8001748 <main+0x2f8>)
 80014a2:	2200      	movs	r2, #0
 80014a4:	705a      	strb	r2, [r3, #1]
  sDate.Year = 0;
 80014a6:	4ba8      	ldr	r3, [pc, #672]	; (8001748 <main+0x2f8>)
 80014a8:	2200      	movs	r2, #0
 80014aa:	70da      	strb	r2, [r3, #3]
  HAL_RTC_SetTime(&hrtc, &sTime, RTC_FORMAT_BIN);
 80014ac:	2200      	movs	r2, #0
 80014ae:	49a5      	ldr	r1, [pc, #660]	; (8001744 <main+0x2f4>)
 80014b0:	48a6      	ldr	r0, [pc, #664]	; (800174c <main+0x2fc>)
 80014b2:	f002 fff1 	bl	8004498 <HAL_RTC_SetTime>
  HAL_RTC_SetDate(&hrtc, &sDate, RTC_FORMAT_BIN);
 80014b6:	2200      	movs	r2, #0
 80014b8:	49a3      	ldr	r1, [pc, #652]	; (8001748 <main+0x2f8>)
 80014ba:	48a4      	ldr	r0, [pc, #656]	; (800174c <main+0x2fc>)
 80014bc:	f003 f8e4 	bl	8004688 <HAL_RTC_SetDate>


  //Introduccion por la pantalla lcd
  lcd_init();
 80014c0:	f7ff fde2 	bl	8001088 <lcd_init>
  lcd_send_string("INICIANDO...");
 80014c4:	48a2      	ldr	r0, [pc, #648]	; (8001750 <main+0x300>)
 80014c6:	f7ff fe1c 	bl	8001102 <lcd_send_string>
  HAL_Delay(2000);
 80014ca:	f44f 60fa 	mov.w	r0, #2000	; 0x7d0
 80014ce:	f000 fe55 	bl	800217c <HAL_Delay>
  lcd_clear();
 80014d2:	f7ff fda3 	bl	800101c <lcd_clear>
  //Declaración de valores limites
  float temp_lim = 24.5;
 80014d6:	4b9f      	ldr	r3, [pc, #636]	; (8001754 <main+0x304>)
 80014d8:	61fb      	str	r3, [r7, #28]
  float hum_lim = 55.0;
 80014da:	4b9f      	ldr	r3, [pc, #636]	; (8001758 <main+0x308>)
 80014dc:	61bb      	str	r3, [r7, #24]
  float adc_lim = 220.0;
 80014de:	4b9f      	ldr	r3, [pc, #636]	; (800175c <main+0x30c>)
 80014e0:	617b      	str	r3, [r7, #20]
    /* USER CODE END WHILE */

    /* USER CODE BEGIN 3 */


  	  if(HAL_GPIO_ReadPin(GPIOA, GPIO_PIN_0))
 80014e2:	2101      	movs	r1, #1
 80014e4:	489e      	ldr	r0, [pc, #632]	; (8001760 <main+0x310>)
 80014e6:	f001 fd6f 	bl	8002fc8 <HAL_GPIO_ReadPin>
 80014ea:	4603      	mov	r3, r0
 80014ec:	2b00      	cmp	r3, #0
 80014ee:	d004      	beq.n	80014fa <main+0xaa>
  	  	  {
  		  	  contador++;
 80014f0:	4b9c      	ldr	r3, [pc, #624]	; (8001764 <main+0x314>)
 80014f2:	681b      	ldr	r3, [r3, #0]
 80014f4:	3301      	adds	r3, #1
 80014f6:	4a9b      	ldr	r2, [pc, #620]	; (8001764 <main+0x314>)
 80014f8:	6013      	str	r3, [r2, #0]
  	  	  }

  	  if (contador%2){
 80014fa:	4b9a      	ldr	r3, [pc, #616]	; (8001764 <main+0x314>)
 80014fc:	681b      	ldr	r3, [r3, #0]
 80014fe:	f003 0301 	and.w	r3, r3, #1
 8001502:	2b00      	cmp	r3, #0
 8001504:	d026      	beq.n	8001554 <main+0x104>
  		lcd_init();
 8001506:	f7ff fdbf 	bl	8001088 <lcd_init>
  		char str[20] = {0};
 800150a:	2300      	movs	r3, #0
 800150c:	603b      	str	r3, [r7, #0]
 800150e:	1d3b      	adds	r3, r7, #4
 8001510:	2200      	movs	r2, #0
 8001512:	601a      	str	r2, [r3, #0]
 8001514:	605a      	str	r2, [r3, #4]
 8001516:	609a      	str	r2, [r3, #8]
 8001518:	60da      	str	r2, [r3, #12]
  		lcd_put_cur(0,0);
 800151a:	2100      	movs	r1, #0
 800151c:	2000      	movs	r0, #0
 800151e:	f7ff fd94 	bl	800104a <lcd_put_cur>

  		sprintf(str,"LAS %d : %d : %d ", HOUR,MIN,SEC);
 8001522:	4b91      	ldr	r3, [pc, #580]	; (8001768 <main+0x318>)
 8001524:	781b      	ldrb	r3, [r3, #0]
 8001526:	b2db      	uxtb	r3, r3
 8001528:	461a      	mov	r2, r3
 800152a:	4b90      	ldr	r3, [pc, #576]	; (800176c <main+0x31c>)
 800152c:	781b      	ldrb	r3, [r3, #0]
 800152e:	b2db      	uxtb	r3, r3
 8001530:	4619      	mov	r1, r3
 8001532:	4b8f      	ldr	r3, [pc, #572]	; (8001770 <main+0x320>)
 8001534:	781b      	ldrb	r3, [r3, #0]
 8001536:	b2db      	uxtb	r3, r3
 8001538:	4638      	mov	r0, r7
 800153a:	9300      	str	r3, [sp, #0]
 800153c:	460b      	mov	r3, r1
 800153e:	498d      	ldr	r1, [pc, #564]	; (8001774 <main+0x324>)
 8001540:	f004 fb6e 	bl	8005c20 <siprintf>
  		lcd_send_string(str);
 8001544:	463b      	mov	r3, r7
 8001546:	4618      	mov	r0, r3
 8001548:	f7ff fddb 	bl	8001102 <lcd_send_string>
  		HAL_Delay(250);
 800154c:	20fa      	movs	r0, #250	; 0xfa
 800154e:	f000 fe15 	bl	800217c <HAL_Delay>
 8001552:	e7c6      	b.n	80014e2 <main+0x92>

  	  }
  	  else{

  		//Tratamos toda la informacion respecto a la temperatura y humedad
  		  		  	  Display_Temp(temperatura);
 8001554:	4b88      	ldr	r3, [pc, #544]	; (8001778 <main+0x328>)
 8001556:	edd3 7a00 	vldr	s15, [r3]
 800155a:	eeb0 0a67 	vmov.f32	s0, s15
 800155e:	f7ff fdff 	bl	8001160 <Display_Temp>
  		  		  	  Display_Hm(humedad);
 8001562:	4b86      	ldr	r3, [pc, #536]	; (800177c <main+0x32c>)
 8001564:	edd3 7a00 	vldr	s15, [r3]
 8001568:	eeb0 0a67 	vmov.f32	s0, s15
 800156c:	f7ff fe22 	bl	80011b4 <Display_Hm>

  		  		  	  DHT22_COMIENZO();
 8001570:	f7ff fe86 	bl	8001280 <DHT22_COMIENZO>
  		  		  	  respuesta = DHT22_VERIFICACION();
 8001574:	f7ff fea4 	bl	80012c0 <DHT22_VERIFICACION>
 8001578:	4603      	mov	r3, r0
 800157a:	461a      	mov	r2, r3
 800157c:	4b80      	ldr	r3, [pc, #512]	; (8001780 <main+0x330>)
 800157e:	701a      	strb	r2, [r3, #0]

  		  		  	  Hm_BYTE1 = DHT22_LEER_DATOS();
 8001580:	f7ff fecc 	bl	800131c <DHT22_LEER_DATOS>
 8001584:	4603      	mov	r3, r0
 8001586:	461a      	mov	r2, r3
 8001588:	4b7e      	ldr	r3, [pc, #504]	; (8001784 <main+0x334>)
 800158a:	701a      	strb	r2, [r3, #0]
  		  		  	  Hm_BYTE2 = DHT22_LEER_DATOS();
 800158c:	f7ff fec6 	bl	800131c <DHT22_LEER_DATOS>
 8001590:	4603      	mov	r3, r0
 8001592:	461a      	mov	r2, r3
 8001594:	4b7c      	ldr	r3, [pc, #496]	; (8001788 <main+0x338>)
 8001596:	701a      	strb	r2, [r3, #0]
  		  		  	  Temp_BYTE1 = DHT22_LEER_DATOS();
 8001598:	f7ff fec0 	bl	800131c <DHT22_LEER_DATOS>
 800159c:	4603      	mov	r3, r0
 800159e:	461a      	mov	r2, r3
 80015a0:	4b7a      	ldr	r3, [pc, #488]	; (800178c <main+0x33c>)
 80015a2:	701a      	strb	r2, [r3, #0]
  		  		  	  Temp_BYTE2 = DHT22_LEER_DATOS();
 80015a4:	f7ff feba 	bl	800131c <DHT22_LEER_DATOS>
 80015a8:	4603      	mov	r3, r0
 80015aa:	461a      	mov	r2, r3
 80015ac:	4b78      	ldr	r3, [pc, #480]	; (8001790 <main+0x340>)
 80015ae:	701a      	strb	r2, [r3, #0]
  		  		  	  SUM = DHT22_LEER_DATOS();
 80015b0:	f7ff feb4 	bl	800131c <DHT22_LEER_DATOS>
 80015b4:	4603      	mov	r3, r0
 80015b6:	b29a      	uxth	r2, r3
 80015b8:	4b76      	ldr	r3, [pc, #472]	; (8001794 <main+0x344>)
 80015ba:	801a      	strh	r2, [r3, #0]

  		  		  	  TEMP = ((Temp_BYTE1<<8)|Temp_BYTE2);
 80015bc:	4b73      	ldr	r3, [pc, #460]	; (800178c <main+0x33c>)
 80015be:	781b      	ldrb	r3, [r3, #0]
 80015c0:	021b      	lsls	r3, r3, #8
 80015c2:	b21a      	sxth	r2, r3
 80015c4:	4b72      	ldr	r3, [pc, #456]	; (8001790 <main+0x340>)
 80015c6:	781b      	ldrb	r3, [r3, #0]
 80015c8:	b21b      	sxth	r3, r3
 80015ca:	4313      	orrs	r3, r2
 80015cc:	b21b      	sxth	r3, r3
 80015ce:	b29a      	uxth	r2, r3
 80015d0:	4b71      	ldr	r3, [pc, #452]	; (8001798 <main+0x348>)
 80015d2:	801a      	strh	r2, [r3, #0]
  		  		  	  HM = ((Hm_BYTE1<<8)|Hm_BYTE2);
 80015d4:	4b6b      	ldr	r3, [pc, #428]	; (8001784 <main+0x334>)
 80015d6:	781b      	ldrb	r3, [r3, #0]
 80015d8:	021b      	lsls	r3, r3, #8
 80015da:	b21a      	sxth	r2, r3
 80015dc:	4b6a      	ldr	r3, [pc, #424]	; (8001788 <main+0x338>)
 80015de:	781b      	ldrb	r3, [r3, #0]
 80015e0:	b21b      	sxth	r3, r3
 80015e2:	4313      	orrs	r3, r2
 80015e4:	b21b      	sxth	r3, r3
 80015e6:	b29a      	uxth	r2, r3
 80015e8:	4b6c      	ldr	r3, [pc, #432]	; (800179c <main+0x34c>)
 80015ea:	801a      	strh	r2, [r3, #0]

  		  		  	  //Hacemos la respectiva conversion
  		  		  	  temperatura = (float)(TEMP/10.0);
 80015ec:	4b6a      	ldr	r3, [pc, #424]	; (8001798 <main+0x348>)
 80015ee:	881b      	ldrh	r3, [r3, #0]
 80015f0:	4618      	mov	r0, r3
 80015f2:	f7fe ff9f 	bl	8000534 <__aeabi_i2d>
 80015f6:	f04f 0200 	mov.w	r2, #0
 80015fa:	4b69      	ldr	r3, [pc, #420]	; (80017a0 <main+0x350>)
 80015fc:	f7ff f92e 	bl	800085c <__aeabi_ddiv>
 8001600:	4602      	mov	r2, r0
 8001602:	460b      	mov	r3, r1
 8001604:	4610      	mov	r0, r2
 8001606:	4619      	mov	r1, r3
 8001608:	f7ff fad6 	bl	8000bb8 <__aeabi_d2f>
 800160c:	4603      	mov	r3, r0
 800160e:	4a5a      	ldr	r2, [pc, #360]	; (8001778 <main+0x328>)
 8001610:	6013      	str	r3, [r2, #0]
  		  		  	  humedad = (float)(HM/10.0);
 8001612:	4b62      	ldr	r3, [pc, #392]	; (800179c <main+0x34c>)
 8001614:	881b      	ldrh	r3, [r3, #0]
 8001616:	4618      	mov	r0, r3
 8001618:	f7fe ff8c 	bl	8000534 <__aeabi_i2d>
 800161c:	f04f 0200 	mov.w	r2, #0
 8001620:	4b5f      	ldr	r3, [pc, #380]	; (80017a0 <main+0x350>)
 8001622:	f7ff f91b 	bl	800085c <__aeabi_ddiv>
 8001626:	4602      	mov	r2, r0
 8001628:	460b      	mov	r3, r1
 800162a:	4610      	mov	r0, r2
 800162c:	4619      	mov	r1, r3
 800162e:	f7ff fac3 	bl	8000bb8 <__aeabi_d2f>
 8001632:	4603      	mov	r3, r0
 8001634:	4a51      	ldr	r2, [pc, #324]	; (800177c <main+0x32c>)
 8001636:	6013      	str	r3, [r2, #0]


  		  		  	  //Encendido del led indicador medición correcta, azul
  		  		  	  if(temperatura!=0.0 && humedad!=0.0){
 8001638:	4b4f      	ldr	r3, [pc, #316]	; (8001778 <main+0x328>)
 800163a:	edd3 7a00 	vldr	s15, [r3]
 800163e:	eef5 7a40 	vcmp.f32	s15, #0.0
 8001642:	eef1 fa10 	vmrs	APSR_nzcv, fpscr
 8001646:	d00c      	beq.n	8001662 <main+0x212>
 8001648:	4b4c      	ldr	r3, [pc, #304]	; (800177c <main+0x32c>)
 800164a:	edd3 7a00 	vldr	s15, [r3]
 800164e:	eef5 7a40 	vcmp.f32	s15, #0.0
 8001652:	eef1 fa10 	vmrs	APSR_nzcv, fpscr
 8001656:	d004      	beq.n	8001662 <main+0x212>
  		  		  		  HAL_GPIO_WritePin(GPIOD, GPIO_PIN_2,1);
 8001658:	2201      	movs	r2, #1
 800165a:	2104      	movs	r1, #4
 800165c:	4851      	ldr	r0, [pc, #324]	; (80017a4 <main+0x354>)
 800165e:	f001 fccb 	bl	8002ff8 <HAL_GPIO_WritePin>
  		  		  	  }

  		  		  	  //CONDICIONES para utilizar actuadores, utilizando leds representativos
  		  		  	  if(temperatura>temp_lim){
 8001662:	4b45      	ldr	r3, [pc, #276]	; (8001778 <main+0x328>)
 8001664:	edd3 7a00 	vldr	s15, [r3]
 8001668:	ed97 7a07 	vldr	s14, [r7, #28]
 800166c:	eeb4 7ae7 	vcmpe.f32	s14, s15
 8001670:	eef1 fa10 	vmrs	APSR_nzcv, fpscr
 8001674:	d505      	bpl.n	8001682 <main+0x232>
  		  		  		  HAL_GPIO_WritePin(GPIOD, GPIO_PIN_4,1); //led rojo indicador de calor
 8001676:	2201      	movs	r2, #1
 8001678:	2110      	movs	r1, #16
 800167a:	484a      	ldr	r0, [pc, #296]	; (80017a4 <main+0x354>)
 800167c:	f001 fcbc 	bl	8002ff8 <HAL_GPIO_WritePin>
 8001680:	e004      	b.n	800168c <main+0x23c>
  		  		  		  //se podria accionar un ventilador
  		  		  	  }
  		  		  	  else{
  		  		  		HAL_GPIO_WritePin(GPIOD, GPIO_PIN_4,0);
 8001682:	2200      	movs	r2, #0
 8001684:	2110      	movs	r1, #16
 8001686:	4847      	ldr	r0, [pc, #284]	; (80017a4 <main+0x354>)
 8001688:	f001 fcb6 	bl	8002ff8 <HAL_GPIO_WritePin>
  		  		  	  }

  		  		  	  if(humedad>hum_lim){
 800168c:	4b3b      	ldr	r3, [pc, #236]	; (800177c <main+0x32c>)
 800168e:	edd3 7a00 	vldr	s15, [r3]
 8001692:	ed97 7a06 	vldr	s14, [r7, #24]
 8001696:	eeb4 7ae7 	vcmpe.f32	s14, s15
 800169a:	eef1 fa10 	vmrs	APSR_nzcv, fpscr
 800169e:	d505      	bpl.n	80016ac <main+0x25c>
  		  		  	  	HAL_GPIO_WritePin(GPIOD, GPIO_PIN_3,1); //led verde indicador de ambiente propicio para cultivo
 80016a0:	2201      	movs	r2, #1
 80016a2:	2108      	movs	r1, #8
 80016a4:	483f      	ldr	r0, [pc, #252]	; (80017a4 <main+0x354>)
 80016a6:	f001 fca7 	bl	8002ff8 <HAL_GPIO_WritePin>
 80016aa:	e004      	b.n	80016b6 <main+0x266>
  		  		  	  	//se podria abrir una ventana
  		  		  	  }
  		  		  	  else{
  		  		  	  	HAL_GPIO_WritePin(GPIOD, GPIO_PIN_3,0);
 80016ac:	2200      	movs	r2, #0
 80016ae:	2108      	movs	r1, #8
 80016b0:	483c      	ldr	r0, [pc, #240]	; (80017a4 <main+0x354>)
 80016b2:	f001 fca1 	bl	8002ff8 <HAL_GPIO_WritePin>
  		  		  	  }

  		  		  	  //Encendemos el led avisador de dia soleado, amarillo
  		  		  	  if(n_medida==1){
 80016b6:	4b3c      	ldr	r3, [pc, #240]	; (80017a8 <main+0x358>)
 80016b8:	681b      	ldr	r3, [r3, #0]
 80016ba:	2b01      	cmp	r3, #1
 80016bc:	d137      	bne.n	800172e <main+0x2de>
  		  		  		if (ADC_val>adc_lim){
 80016be:	4b3b      	ldr	r3, [pc, #236]	; (80017ac <main+0x35c>)
 80016c0:	781b      	ldrb	r3, [r3, #0]
 80016c2:	ee07 3a90 	vmov	s15, r3
 80016c6:	eef8 7ae7 	vcvt.f32.s32	s15, s15
 80016ca:	ed97 7a05 	vldr	s14, [r7, #20]
 80016ce:	eeb4 7ae7 	vcmpe.f32	s14, s15
 80016d2:	eef1 fa10 	vmrs	APSR_nzcv, fpscr
 80016d6:	d519      	bpl.n	800170c <main+0x2bc>
  		  		 		  	HAL_GPIO_WritePin(GPIOD, GPIO_PIN_12,1);
 80016d8:	2201      	movs	r2, #1
 80016da:	f44f 5180 	mov.w	r1, #4096	; 0x1000
 80016de:	4831      	ldr	r0, [pc, #196]	; (80017a4 <main+0x354>)
 80016e0:	f001 fc8a 	bl	8002ff8 <HAL_GPIO_WritePin>
  		  		 		  	HAL_GPIO_WritePin(GPIOD, GPIO_PIN_1,1);
 80016e4:	2201      	movs	r2, #1
 80016e6:	2102      	movs	r1, #2
 80016e8:	482e      	ldr	r0, [pc, #184]	; (80017a4 <main+0x354>)
 80016ea:	f001 fc85 	bl	8002ff8 <HAL_GPIO_WritePin>
  		  		 			HAL_GPIO_WritePin(GPIOD, GPIO_PIN_2,0); //apagamos el de la medicion indicando que estamos usando el adc
 80016ee:	2200      	movs	r2, #0
 80016f0:	2104      	movs	r1, #4
 80016f2:	482c      	ldr	r0, [pc, #176]	; (80017a4 <main+0x354>)
 80016f4:	f001 fc80 	bl	8002ff8 <HAL_GPIO_WritePin>

  		  		 		  	lcd_init();
 80016f8:	f7ff fcc6 	bl	8001088 <lcd_init>
  		  		 		  	lcd_send_string("DIA SOLEADO");
 80016fc:	482c      	ldr	r0, [pc, #176]	; (80017b0 <main+0x360>)
 80016fe:	f7ff fd00 	bl	8001102 <lcd_send_string>
  		  		 		  	HAL_Delay(500);
 8001702:	f44f 70fa 	mov.w	r0, #500	; 0x1f4
 8001706:	f000 fd39 	bl	800217c <HAL_Delay>
 800170a:	e00a      	b.n	8001722 <main+0x2d2>

  		  		   		}
  		  		  		else{
  		  		  		  	HAL_GPIO_WritePin(GPIOD, GPIO_PIN_12,0);
 800170c:	2200      	movs	r2, #0
 800170e:	f44f 5180 	mov.w	r1, #4096	; 0x1000
 8001712:	4824      	ldr	r0, [pc, #144]	; (80017a4 <main+0x354>)
 8001714:	f001 fc70 	bl	8002ff8 <HAL_GPIO_WritePin>
  		  		 		  	HAL_GPIO_WritePin(GPIOD, GPIO_PIN_1,0);
 8001718:	2200      	movs	r2, #0
 800171a:	2102      	movs	r1, #2
 800171c:	4821      	ldr	r0, [pc, #132]	; (80017a4 <main+0x354>)
 800171e:	f001 fc6b 	bl	8002ff8 <HAL_GPIO_WritePin>
  		  		  		}
  		  		  		n_medida=0;
 8001722:	4b21      	ldr	r3, [pc, #132]	; (80017a8 <main+0x358>)
 8001724:	2200      	movs	r2, #0
 8001726:	601a      	str	r2, [r3, #0]

  		  		  		HAL_ADC_Start_IT(&hadc1);
 8001728:	4805      	ldr	r0, [pc, #20]	; (8001740 <main+0x2f0>)
 800172a:	f000 fd8f 	bl	800224c <HAL_ADC_Start_IT>

  		  		  	  }

  		  		  	  HAL_Delay(1000);
 800172e:	f44f 707a 	mov.w	r0, #1000	; 0x3e8
 8001732:	f000 fd23 	bl	800217c <HAL_Delay>
  	  if(HAL_GPIO_ReadPin(GPIOA, GPIO_PIN_0))
 8001736:	e6d4      	b.n	80014e2 <main+0x92>
 8001738:	200002cc 	.word	0x200002cc
 800173c:	20000314 	.word	0x20000314
 8001740:	200001f8 	.word	0x200001f8
 8001744:	200002b4 	.word	0x200002b4
 8001748:	200002c8 	.word	0x200002c8
 800174c:	20000294 	.word	0x20000294
 8001750:	08008140 	.word	0x08008140
 8001754:	41c40000 	.word	0x41c40000
 8001758:	425c0000 	.word	0x425c0000
 800175c:	435c0000 	.word	0x435c0000
 8001760:	40020000 	.word	0x40020000
 8001764:	20000374 	.word	0x20000374
 8001768:	2000036a 	.word	0x2000036a
 800176c:	20000369 	.word	0x20000369
 8001770:	20000368 	.word	0x20000368
 8001774:	08008150 	.word	0x08008150
 8001778:	2000036c 	.word	0x2000036c
 800177c:	20000370 	.word	0x20000370
 8001780:	2000035c 	.word	0x2000035c
 8001784:	2000035f 	.word	0x2000035f
 8001788:	20000360 	.word	0x20000360
 800178c:	2000035d 	.word	0x2000035d
 8001790:	2000035e 	.word	0x2000035e
 8001794:	20000362 	.word	0x20000362
 8001798:	20000364 	.word	0x20000364
 800179c:	20000366 	.word	0x20000366
 80017a0:	40240000 	.word	0x40240000
 80017a4:	40020c00 	.word	0x40020c00
 80017a8:	2000037c 	.word	0x2000037c
 80017ac:	20000378 	.word	0x20000378
 80017b0:	08008164 	.word	0x08008164

080017b4 <SystemClock_Config>:
/**
  * @brief System Clock Configuration
  * @retval None
  */
void SystemClock_Config(void)
{
 80017b4:	b580      	push	{r7, lr}
 80017b6:	b094      	sub	sp, #80	; 0x50
 80017b8:	af00      	add	r7, sp, #0
  RCC_OscInitTypeDef RCC_OscInitStruct = {0};
 80017ba:	f107 0320 	add.w	r3, r7, #32
 80017be:	2230      	movs	r2, #48	; 0x30
 80017c0:	2100      	movs	r1, #0
 80017c2:	4618      	mov	r0, r3
 80017c4:	f003 fdba 	bl	800533c <memset>
  RCC_ClkInitTypeDef RCC_ClkInitStruct = {0};
 80017c8:	f107 030c 	add.w	r3, r7, #12
 80017cc:	2200      	movs	r2, #0
 80017ce:	601a      	str	r2, [r3, #0]
 80017d0:	605a      	str	r2, [r3, #4]
 80017d2:	609a      	str	r2, [r3, #8]
 80017d4:	60da      	str	r2, [r3, #12]
 80017d6:	611a      	str	r2, [r3, #16]

  /** Configure the main internal regulator output voltage
  */
  __HAL_RCC_PWR_CLK_ENABLE();
 80017d8:	2300      	movs	r3, #0
 80017da:	60bb      	str	r3, [r7, #8]
 80017dc:	4b29      	ldr	r3, [pc, #164]	; (8001884 <SystemClock_Config+0xd0>)
 80017de:	6c1b      	ldr	r3, [r3, #64]	; 0x40
 80017e0:	4a28      	ldr	r2, [pc, #160]	; (8001884 <SystemClock_Config+0xd0>)
 80017e2:	f043 5380 	orr.w	r3, r3, #268435456	; 0x10000000
 80017e6:	6413      	str	r3, [r2, #64]	; 0x40
 80017e8:	4b26      	ldr	r3, [pc, #152]	; (8001884 <SystemClock_Config+0xd0>)
 80017ea:	6c1b      	ldr	r3, [r3, #64]	; 0x40
 80017ec:	f003 5380 	and.w	r3, r3, #268435456	; 0x10000000
 80017f0:	60bb      	str	r3, [r7, #8]
 80017f2:	68bb      	ldr	r3, [r7, #8]
  __HAL_PWR_VOLTAGESCALING_CONFIG(PWR_REGULATOR_VOLTAGE_SCALE1);
 80017f4:	2300      	movs	r3, #0
 80017f6:	607b      	str	r3, [r7, #4]
 80017f8:	4b23      	ldr	r3, [pc, #140]	; (8001888 <SystemClock_Config+0xd4>)
 80017fa:	681b      	ldr	r3, [r3, #0]
 80017fc:	4a22      	ldr	r2, [pc, #136]	; (8001888 <SystemClock_Config+0xd4>)
 80017fe:	f443 4340 	orr.w	r3, r3, #49152	; 0xc000
 8001802:	6013      	str	r3, [r2, #0]
 8001804:	4b20      	ldr	r3, [pc, #128]	; (8001888 <SystemClock_Config+0xd4>)
 8001806:	681b      	ldr	r3, [r3, #0]
 8001808:	f403 4340 	and.w	r3, r3, #49152	; 0xc000
 800180c:	607b      	str	r3, [r7, #4]
 800180e:	687b      	ldr	r3, [r7, #4]

  /** Initializes the RCC Oscillators according to the specified parameters
  * in the RCC_OscInitTypeDef structure.
  */
  RCC_OscInitStruct.OscillatorType = RCC_OSCILLATORTYPE_LSI|RCC_OSCILLATORTYPE_HSE;
 8001810:	2309      	movs	r3, #9
 8001812:	623b      	str	r3, [r7, #32]
  RCC_OscInitStruct.HSEState = RCC_HSE_ON;
 8001814:	f44f 3380 	mov.w	r3, #65536	; 0x10000
 8001818:	627b      	str	r3, [r7, #36]	; 0x24
  RCC_OscInitStruct.LSIState = RCC_LSI_ON;
 800181a:	2301      	movs	r3, #1
 800181c:	637b      	str	r3, [r7, #52]	; 0x34
  RCC_OscInitStruct.PLL.PLLState = RCC_PLL_ON;
 800181e:	2302      	movs	r3, #2
 8001820:	63bb      	str	r3, [r7, #56]	; 0x38
  RCC_OscInitStruct.PLL.PLLSource = RCC_PLLSOURCE_HSE;
 8001822:	f44f 0380 	mov.w	r3, #4194304	; 0x400000
 8001826:	63fb      	str	r3, [r7, #60]	; 0x3c
  RCC_OscInitStruct.PLL.PLLM = 4;
 8001828:	2304      	movs	r3, #4
 800182a:	643b      	str	r3, [r7, #64]	; 0x40
  RCC_OscInitStruct.PLL.PLLN = 50;
 800182c:	2332      	movs	r3, #50	; 0x32
 800182e:	647b      	str	r3, [r7, #68]	; 0x44
  RCC_OscInitStruct.PLL.PLLP = RCC_PLLP_DIV2;
 8001830:	2302      	movs	r3, #2
 8001832:	64bb      	str	r3, [r7, #72]	; 0x48
  RCC_OscInitStruct.PLL.PLLQ = 8;
 8001834:	2308      	movs	r3, #8
 8001836:	64fb      	str	r3, [r7, #76]	; 0x4c
  if (HAL_RCC_OscConfig(&RCC_OscInitStruct) != HAL_OK)
 8001838:	f107 0320 	add.w	r3, r7, #32
 800183c:	4618      	mov	r0, r3
 800183e:	f002 f841 	bl	80038c4 <HAL_RCC_OscConfig>
 8001842:	4603      	mov	r3, r0
 8001844:	2b00      	cmp	r3, #0
 8001846:	d001      	beq.n	800184c <SystemClock_Config+0x98>
  {
    Error_Handler();
 8001848:	f000 f9ba 	bl	8001bc0 <Error_Handler>
  }

  /** Initializes the CPU, AHB and APB buses clocks
  */
  RCC_ClkInitStruct.ClockType = RCC_CLOCKTYPE_HCLK|RCC_CLOCKTYPE_SYSCLK
 800184c:	230f      	movs	r3, #15
 800184e:	60fb      	str	r3, [r7, #12]
                              |RCC_CLOCKTYPE_PCLK1|RCC_CLOCKTYPE_PCLK2;
  RCC_ClkInitStruct.SYSCLKSource = RCC_SYSCLKSOURCE_PLLCLK;
 8001850:	2302      	movs	r3, #2
 8001852:	613b      	str	r3, [r7, #16]
  RCC_ClkInitStruct.AHBCLKDivider = RCC_SYSCLK_DIV1;
 8001854:	2300      	movs	r3, #0
 8001856:	617b      	str	r3, [r7, #20]
  RCC_ClkInitStruct.APB1CLKDivider = RCC_HCLK_DIV2;
 8001858:	f44f 5380 	mov.w	r3, #4096	; 0x1000
 800185c:	61bb      	str	r3, [r7, #24]
  RCC_ClkInitStruct.APB2CLKDivider = RCC_HCLK_DIV2;
 800185e:	f44f 5380 	mov.w	r3, #4096	; 0x1000
 8001862:	61fb      	str	r3, [r7, #28]

  if (HAL_RCC_ClockConfig(&RCC_ClkInitStruct, FLASH_LATENCY_1) != HAL_OK)
 8001864:	f107 030c 	add.w	r3, r7, #12
 8001868:	2101      	movs	r1, #1
 800186a:	4618      	mov	r0, r3
 800186c:	f002 faa2 	bl	8003db4 <HAL_RCC_ClockConfig>
 8001870:	4603      	mov	r3, r0
 8001872:	2b00      	cmp	r3, #0
 8001874:	d001      	beq.n	800187a <SystemClock_Config+0xc6>
  {
    Error_Handler();
 8001876:	f000 f9a3 	bl	8001bc0 <Error_Handler>
  }
}
 800187a:	bf00      	nop
 800187c:	3750      	adds	r7, #80	; 0x50
 800187e:	46bd      	mov	sp, r7
 8001880:	bd80      	pop	{r7, pc}
 8001882:	bf00      	nop
 8001884:	40023800 	.word	0x40023800
 8001888:	40007000 	.word	0x40007000

0800188c <MX_ADC1_Init>:
  * @brief ADC1 Initialization Function
  * @param None
  * @retval None
  */
static void MX_ADC1_Init(void)
{
 800188c:	b580      	push	{r7, lr}
 800188e:	b084      	sub	sp, #16
 8001890:	af00      	add	r7, sp, #0

  /* USER CODE BEGIN ADC1_Init 0 */

  /* USER CODE END ADC1_Init 0 */

  ADC_ChannelConfTypeDef sConfig = {0};
 8001892:	463b      	mov	r3, r7
 8001894:	2200      	movs	r2, #0
 8001896:	601a      	str	r2, [r3, #0]
 8001898:	605a      	str	r2, [r3, #4]
 800189a:	609a      	str	r2, [r3, #8]
 800189c:	60da      	str	r2, [r3, #12]

  /* USER CODE END ADC1_Init 1 */

  /** Configure the global features of the ADC (Clock, Resolution, Data Alignment and number of conversion)
  */
  hadc1.Instance = ADC1;
 800189e:	4b21      	ldr	r3, [pc, #132]	; (8001924 <MX_ADC1_Init+0x98>)
 80018a0:	4a21      	ldr	r2, [pc, #132]	; (8001928 <MX_ADC1_Init+0x9c>)
 80018a2:	601a      	str	r2, [r3, #0]
  hadc1.Init.ClockPrescaler = ADC_CLOCK_SYNC_PCLK_DIV2;
 80018a4:	4b1f      	ldr	r3, [pc, #124]	; (8001924 <MX_ADC1_Init+0x98>)
 80018a6:	2200      	movs	r2, #0
 80018a8:	605a      	str	r2, [r3, #4]
  hadc1.Init.Resolution = ADC_RESOLUTION_12B;
 80018aa:	4b1e      	ldr	r3, [pc, #120]	; (8001924 <MX_ADC1_Init+0x98>)
 80018ac:	2200      	movs	r2, #0
 80018ae:	609a      	str	r2, [r3, #8]
  hadc1.Init.ScanConvMode = DISABLE;
 80018b0:	4b1c      	ldr	r3, [pc, #112]	; (8001924 <MX_ADC1_Init+0x98>)
 80018b2:	2200      	movs	r2, #0
 80018b4:	611a      	str	r2, [r3, #16]
  hadc1.Init.ContinuousConvMode = ENABLE;
 80018b6:	4b1b      	ldr	r3, [pc, #108]	; (8001924 <MX_ADC1_Init+0x98>)
 80018b8:	2201      	movs	r2, #1
 80018ba:	761a      	strb	r2, [r3, #24]
  hadc1.Init.DiscontinuousConvMode = DISABLE;
 80018bc:	4b19      	ldr	r3, [pc, #100]	; (8001924 <MX_ADC1_Init+0x98>)
 80018be:	2200      	movs	r2, #0
 80018c0:	f883 2020 	strb.w	r2, [r3, #32]
  hadc1.Init.ExternalTrigConvEdge = ADC_EXTERNALTRIGCONVEDGE_NONE;
 80018c4:	4b17      	ldr	r3, [pc, #92]	; (8001924 <MX_ADC1_Init+0x98>)
 80018c6:	2200      	movs	r2, #0
 80018c8:	62da      	str	r2, [r3, #44]	; 0x2c
  hadc1.Init.ExternalTrigConv = ADC_SOFTWARE_START;
 80018ca:	4b16      	ldr	r3, [pc, #88]	; (8001924 <MX_ADC1_Init+0x98>)
 80018cc:	4a17      	ldr	r2, [pc, #92]	; (800192c <MX_ADC1_Init+0xa0>)
 80018ce:	629a      	str	r2, [r3, #40]	; 0x28
  hadc1.Init.DataAlign = ADC_DATAALIGN_RIGHT;
 80018d0:	4b14      	ldr	r3, [pc, #80]	; (8001924 <MX_ADC1_Init+0x98>)
 80018d2:	2200      	movs	r2, #0
 80018d4:	60da      	str	r2, [r3, #12]
  hadc1.Init.NbrOfConversion = 1;
 80018d6:	4b13      	ldr	r3, [pc, #76]	; (8001924 <MX_ADC1_Init+0x98>)
 80018d8:	2201      	movs	r2, #1
 80018da:	61da      	str	r2, [r3, #28]
  hadc1.Init.DMAContinuousRequests = DISABLE;
 80018dc:	4b11      	ldr	r3, [pc, #68]	; (8001924 <MX_ADC1_Init+0x98>)
 80018de:	2200      	movs	r2, #0
 80018e0:	f883 2030 	strb.w	r2, [r3, #48]	; 0x30
  hadc1.Init.EOCSelection = ADC_EOC_SINGLE_CONV;
 80018e4:	4b0f      	ldr	r3, [pc, #60]	; (8001924 <MX_ADC1_Init+0x98>)
 80018e6:	2201      	movs	r2, #1
 80018e8:	615a      	str	r2, [r3, #20]
  if (HAL_ADC_Init(&hadc1) != HAL_OK)
 80018ea:	480e      	ldr	r0, [pc, #56]	; (8001924 <MX_ADC1_Init+0x98>)
 80018ec:	f000 fc6a 	bl	80021c4 <HAL_ADC_Init>
 80018f0:	4603      	mov	r3, r0
 80018f2:	2b00      	cmp	r3, #0
 80018f4:	d001      	beq.n	80018fa <MX_ADC1_Init+0x6e>
  {
    Error_Handler();
 80018f6:	f000 f963 	bl	8001bc0 <Error_Handler>
  }

  /** Configure for the selected ADC regular channel its corresponding rank in the sequencer and its sample time.
  */
  sConfig.Channel = ADC_CHANNEL_9;
 80018fa:	2309      	movs	r3, #9
 80018fc:	603b      	str	r3, [r7, #0]
  sConfig.Rank = 1;
 80018fe:	2301      	movs	r3, #1
 8001900:	607b      	str	r3, [r7, #4]
  sConfig.SamplingTime = ADC_SAMPLETIME_3CYCLES;
 8001902:	2300      	movs	r3, #0
 8001904:	60bb      	str	r3, [r7, #8]
  if (HAL_ADC_ConfigChannel(&hadc1, &sConfig) != HAL_OK)
 8001906:	463b      	mov	r3, r7
 8001908:	4619      	mov	r1, r3
 800190a:	4806      	ldr	r0, [pc, #24]	; (8001924 <MX_ADC1_Init+0x98>)
 800190c:	f000 fe8e 	bl	800262c <HAL_ADC_ConfigChannel>
 8001910:	4603      	mov	r3, r0
 8001912:	2b00      	cmp	r3, #0
 8001914:	d001      	beq.n	800191a <MX_ADC1_Init+0x8e>
  {
    Error_Handler();
 8001916:	f000 f953 	bl	8001bc0 <Error_Handler>
  }
  /* USER CODE BEGIN ADC1_Init 2 */

  /* USER CODE END ADC1_Init 2 */

}
 800191a:	bf00      	nop
 800191c:	3710      	adds	r7, #16
 800191e:	46bd      	mov	sp, r7
 8001920:	bd80      	pop	{r7, pc}
 8001922:	bf00      	nop
 8001924:	200001f8 	.word	0x200001f8
 8001928:	40012000 	.word	0x40012000
 800192c:	0f000001 	.word	0x0f000001

08001930 <MX_I2C1_Init>:
  * @brief I2C1 Initialization Function
  * @param None
  * @retval None
  */
static void MX_I2C1_Init(void)
{
 8001930:	b580      	push	{r7, lr}
 8001932:	af00      	add	r7, sp, #0
  /* USER CODE END I2C1_Init 0 */

  /* USER CODE BEGIN I2C1_Init 1 */

  /* USER CODE END I2C1_Init 1 */
  hi2c1.Instance = I2C1;
 8001934:	4b12      	ldr	r3, [pc, #72]	; (8001980 <MX_I2C1_Init+0x50>)
 8001936:	4a13      	ldr	r2, [pc, #76]	; (8001984 <MX_I2C1_Init+0x54>)
 8001938:	601a      	str	r2, [r3, #0]
  hi2c1.Init.ClockSpeed = 100000;
 800193a:	4b11      	ldr	r3, [pc, #68]	; (8001980 <MX_I2C1_Init+0x50>)
 800193c:	4a12      	ldr	r2, [pc, #72]	; (8001988 <MX_I2C1_Init+0x58>)
 800193e:	605a      	str	r2, [r3, #4]
  hi2c1.Init.DutyCycle = I2C_DUTYCYCLE_2;
 8001940:	4b0f      	ldr	r3, [pc, #60]	; (8001980 <MX_I2C1_Init+0x50>)
 8001942:	2200      	movs	r2, #0
 8001944:	609a      	str	r2, [r3, #8]
  hi2c1.Init.OwnAddress1 = 0;
 8001946:	4b0e      	ldr	r3, [pc, #56]	; (8001980 <MX_I2C1_Init+0x50>)
 8001948:	2200      	movs	r2, #0
 800194a:	60da      	str	r2, [r3, #12]
  hi2c1.Init.AddressingMode = I2C_ADDRESSINGMODE_7BIT;
 800194c:	4b0c      	ldr	r3, [pc, #48]	; (8001980 <MX_I2C1_Init+0x50>)
 800194e:	f44f 4280 	mov.w	r2, #16384	; 0x4000
 8001952:	611a      	str	r2, [r3, #16]
  hi2c1.Init.DualAddressMode = I2C_DUALADDRESS_DISABLE;
 8001954:	4b0a      	ldr	r3, [pc, #40]	; (8001980 <MX_I2C1_Init+0x50>)
 8001956:	2200      	movs	r2, #0
 8001958:	615a      	str	r2, [r3, #20]
  hi2c1.Init.OwnAddress2 = 0;
 800195a:	4b09      	ldr	r3, [pc, #36]	; (8001980 <MX_I2C1_Init+0x50>)
 800195c:	2200      	movs	r2, #0
 800195e:	619a      	str	r2, [r3, #24]
  hi2c1.Init.GeneralCallMode = I2C_GENERALCALL_DISABLE;
 8001960:	4b07      	ldr	r3, [pc, #28]	; (8001980 <MX_I2C1_Init+0x50>)
 8001962:	2200      	movs	r2, #0
 8001964:	61da      	str	r2, [r3, #28]
  hi2c1.Init.NoStretchMode = I2C_NOSTRETCH_DISABLE;
 8001966:	4b06      	ldr	r3, [pc, #24]	; (8001980 <MX_I2C1_Init+0x50>)
 8001968:	2200      	movs	r2, #0
 800196a:	621a      	str	r2, [r3, #32]
  if (HAL_I2C_Init(&hi2c1) != HAL_OK)
 800196c:	4804      	ldr	r0, [pc, #16]	; (8001980 <MX_I2C1_Init+0x50>)
 800196e:	f001 fb5d 	bl	800302c <HAL_I2C_Init>
 8001972:	4603      	mov	r3, r0
 8001974:	2b00      	cmp	r3, #0
 8001976:	d001      	beq.n	800197c <MX_I2C1_Init+0x4c>
  {
    Error_Handler();
 8001978:	f000 f922 	bl	8001bc0 <Error_Handler>
  }
  /* USER CODE BEGIN I2C1_Init 2 */

  /* USER CODE END I2C1_Init 2 */

}
 800197c:	bf00      	nop
 800197e:	bd80      	pop	{r7, pc}
 8001980:	20000240 	.word	0x20000240
 8001984:	40005400 	.word	0x40005400
 8001988:	000186a0 	.word	0x000186a0

0800198c <MX_RTC_Init>:
  * @brief RTC Initialization Function
  * @param None
  * @retval None
  */
static void MX_RTC_Init(void)
{
 800198c:	b580      	push	{r7, lr}
 800198e:	af00      	add	r7, sp, #0

  /* USER CODE END RTC_Init 1 */

  /** Initialize RTC Only
  */
  hrtc.Instance = RTC;
 8001990:	4b0f      	ldr	r3, [pc, #60]	; (80019d0 <MX_RTC_Init+0x44>)
 8001992:	4a10      	ldr	r2, [pc, #64]	; (80019d4 <MX_RTC_Init+0x48>)
 8001994:	601a      	str	r2, [r3, #0]
  hrtc.Init.HourFormat = RTC_HOURFORMAT_24;
 8001996:	4b0e      	ldr	r3, [pc, #56]	; (80019d0 <MX_RTC_Init+0x44>)
 8001998:	2200      	movs	r2, #0
 800199a:	605a      	str	r2, [r3, #4]
  hrtc.Init.AsynchPrediv = 127;
 800199c:	4b0c      	ldr	r3, [pc, #48]	; (80019d0 <MX_RTC_Init+0x44>)
 800199e:	227f      	movs	r2, #127	; 0x7f
 80019a0:	609a      	str	r2, [r3, #8]
  hrtc.Init.SynchPrediv = 255;
 80019a2:	4b0b      	ldr	r3, [pc, #44]	; (80019d0 <MX_RTC_Init+0x44>)
 80019a4:	22ff      	movs	r2, #255	; 0xff
 80019a6:	60da      	str	r2, [r3, #12]
  hrtc.Init.OutPut = RTC_OUTPUT_DISABLE;
 80019a8:	4b09      	ldr	r3, [pc, #36]	; (80019d0 <MX_RTC_Init+0x44>)
 80019aa:	2200      	movs	r2, #0
 80019ac:	611a      	str	r2, [r3, #16]
  hrtc.Init.OutPutPolarity = RTC_OUTPUT_POLARITY_HIGH;
 80019ae:	4b08      	ldr	r3, [pc, #32]	; (80019d0 <MX_RTC_Init+0x44>)
 80019b0:	2200      	movs	r2, #0
 80019b2:	615a      	str	r2, [r3, #20]
  hrtc.Init.OutPutType = RTC_OUTPUT_TYPE_OPENDRAIN;
 80019b4:	4b06      	ldr	r3, [pc, #24]	; (80019d0 <MX_RTC_Init+0x44>)
 80019b6:	2200      	movs	r2, #0
 80019b8:	619a      	str	r2, [r3, #24]
  if (HAL_RTC_Init(&hrtc) != HAL_OK)
 80019ba:	4805      	ldr	r0, [pc, #20]	; (80019d0 <MX_RTC_Init+0x44>)
 80019bc:	f002 fcf6 	bl	80043ac <HAL_RTC_Init>
 80019c0:	4603      	mov	r3, r0
 80019c2:	2b00      	cmp	r3, #0
 80019c4:	d001      	beq.n	80019ca <MX_RTC_Init+0x3e>
  {
    Error_Handler();
 80019c6:	f000 f8fb 	bl	8001bc0 <Error_Handler>
  }
  /* USER CODE BEGIN RTC_Init 2 */

  /* USER CODE END RTC_Init 2 */

}
 80019ca:	bf00      	nop
 80019cc:	bd80      	pop	{r7, pc}
 80019ce:	bf00      	nop
 80019d0:	20000294 	.word	0x20000294
 80019d4:	40002800 	.word	0x40002800

080019d8 <MX_TIM4_Init>:
  * @brief TIM4 Initialization Function
  * @param None
  * @retval None
  */
static void MX_TIM4_Init(void)
{
 80019d8:	b580      	push	{r7, lr}
 80019da:	b086      	sub	sp, #24
 80019dc:	af00      	add	r7, sp, #0

  /* USER CODE BEGIN TIM4_Init 0 */

  /* USER CODE END TIM4_Init 0 */

  TIM_ClockConfigTypeDef sClockSourceConfig = {0};
 80019de:	f107 0308 	add.w	r3, r7, #8
 80019e2:	2200      	movs	r2, #0
 80019e4:	601a      	str	r2, [r3, #0]
 80019e6:	605a      	str	r2, [r3, #4]
 80019e8:	609a      	str	r2, [r3, #8]
 80019ea:	60da      	str	r2, [r3, #12]
  TIM_MasterConfigTypeDef sMasterConfig = {0};
 80019ec:	463b      	mov	r3, r7
 80019ee:	2200      	movs	r2, #0
 80019f0:	601a      	str	r2, [r3, #0]
 80019f2:	605a      	str	r2, [r3, #4]

  /* USER CODE BEGIN TIM4_Init 1 */

  /* USER CODE END TIM4_Init 1 */
  htim4.Instance = TIM4;
 80019f4:	4b1d      	ldr	r3, [pc, #116]	; (8001a6c <MX_TIM4_Init+0x94>)
 80019f6:	4a1e      	ldr	r2, [pc, #120]	; (8001a70 <MX_TIM4_Init+0x98>)
 80019f8:	601a      	str	r2, [r3, #0]
  htim4.Init.Prescaler = 7200-1;
 80019fa:	4b1c      	ldr	r3, [pc, #112]	; (8001a6c <MX_TIM4_Init+0x94>)
 80019fc:	f641 421f 	movw	r2, #7199	; 0x1c1f
 8001a00:	605a      	str	r2, [r3, #4]
  htim4.Init.CounterMode = TIM_COUNTERMODE_UP;
 8001a02:	4b1a      	ldr	r3, [pc, #104]	; (8001a6c <MX_TIM4_Init+0x94>)
 8001a04:	2200      	movs	r2, #0
 8001a06:	609a      	str	r2, [r3, #8]
  htim4.Init.Period = 10000-1;
 8001a08:	4b18      	ldr	r3, [pc, #96]	; (8001a6c <MX_TIM4_Init+0x94>)
 8001a0a:	f242 720f 	movw	r2, #9999	; 0x270f
 8001a0e:	60da      	str	r2, [r3, #12]
  htim4.Init.ClockDivision = TIM_CLOCKDIVISION_DIV1;
 8001a10:	4b16      	ldr	r3, [pc, #88]	; (8001a6c <MX_TIM4_Init+0x94>)
 8001a12:	2200      	movs	r2, #0
 8001a14:	611a      	str	r2, [r3, #16]
  htim4.Init.AutoReloadPreload = TIM_AUTORELOAD_PRELOAD_DISABLE;
 8001a16:	4b15      	ldr	r3, [pc, #84]	; (8001a6c <MX_TIM4_Init+0x94>)
 8001a18:	2200      	movs	r2, #0
 8001a1a:	619a      	str	r2, [r3, #24]
  if (HAL_TIM_Base_Init(&htim4) != HAL_OK)
 8001a1c:	4813      	ldr	r0, [pc, #76]	; (8001a6c <MX_TIM4_Init+0x94>)
 8001a1e:	f002 ffc3 	bl	80049a8 <HAL_TIM_Base_Init>
 8001a22:	4603      	mov	r3, r0
 8001a24:	2b00      	cmp	r3, #0
 8001a26:	d001      	beq.n	8001a2c <MX_TIM4_Init+0x54>
  {
    Error_Handler();
 8001a28:	f000 f8ca 	bl	8001bc0 <Error_Handler>
  }
  sClockSourceConfig.ClockSource = TIM_CLOCKSOURCE_INTERNAL;
 8001a2c:	f44f 5380 	mov.w	r3, #4096	; 0x1000
 8001a30:	60bb      	str	r3, [r7, #8]
  if (HAL_TIM_ConfigClockSource(&htim4, &sClockSourceConfig) != HAL_OK)
 8001a32:	f107 0308 	add.w	r3, r7, #8
 8001a36:	4619      	mov	r1, r3
 8001a38:	480c      	ldr	r0, [pc, #48]	; (8001a6c <MX_TIM4_Init+0x94>)
 8001a3a:	f003 f9c9 	bl	8004dd0 <HAL_TIM_ConfigClockSource>
 8001a3e:	4603      	mov	r3, r0
 8001a40:	2b00      	cmp	r3, #0
 8001a42:	d001      	beq.n	8001a48 <MX_TIM4_Init+0x70>
  {
    Error_Handler();
 8001a44:	f000 f8bc 	bl	8001bc0 <Error_Handler>
  }
  sMasterConfig.MasterOutputTrigger = TIM_TRGO_RESET;
 8001a48:	2300      	movs	r3, #0
 8001a4a:	603b      	str	r3, [r7, #0]
  sMasterConfig.MasterSlaveMode = TIM_MASTERSLAVEMODE_DISABLE;
 8001a4c:	2300      	movs	r3, #0
 8001a4e:	607b      	str	r3, [r7, #4]
  if (HAL_TIMEx_MasterConfigSynchronization(&htim4, &sMasterConfig) != HAL_OK)
 8001a50:	463b      	mov	r3, r7
 8001a52:	4619      	mov	r1, r3
 8001a54:	4805      	ldr	r0, [pc, #20]	; (8001a6c <MX_TIM4_Init+0x94>)
 8001a56:	f003 fbc5 	bl	80051e4 <HAL_TIMEx_MasterConfigSynchronization>
 8001a5a:	4603      	mov	r3, r0
 8001a5c:	2b00      	cmp	r3, #0
 8001a5e:	d001      	beq.n	8001a64 <MX_TIM4_Init+0x8c>
  {
    Error_Handler();
 8001a60:	f000 f8ae 	bl	8001bc0 <Error_Handler>
  }
  /* USER CODE BEGIN TIM4_Init 2 */

  /* USER CODE END TIM4_Init 2 */

}
 8001a64:	bf00      	nop
 8001a66:	3718      	adds	r7, #24
 8001a68:	46bd      	mov	sp, r7
 8001a6a:	bd80      	pop	{r7, pc}
 8001a6c:	200002cc 	.word	0x200002cc
 8001a70:	40000800 	.word	0x40000800

08001a74 <MX_TIM10_Init>:
  * @brief TIM10 Initialization Function
  * @param None
  * @retval None
  */
static void MX_TIM10_Init(void)
{
 8001a74:	b580      	push	{r7, lr}
 8001a76:	af00      	add	r7, sp, #0
  /* USER CODE END TIM10_Init 0 */

  /* USER CODE BEGIN TIM10_Init 1 */

  /* USER CODE END TIM10_Init 1 */
  htim10.Instance = TIM10;
 8001a78:	4b0e      	ldr	r3, [pc, #56]	; (8001ab4 <MX_TIM10_Init+0x40>)
 8001a7a:	4a0f      	ldr	r2, [pc, #60]	; (8001ab8 <MX_TIM10_Init+0x44>)
 8001a7c:	601a      	str	r2, [r3, #0]
  htim10.Init.Prescaler = 50-1;
 8001a7e:	4b0d      	ldr	r3, [pc, #52]	; (8001ab4 <MX_TIM10_Init+0x40>)
 8001a80:	2231      	movs	r2, #49	; 0x31
 8001a82:	605a      	str	r2, [r3, #4]
  htim10.Init.CounterMode = TIM_COUNTERMODE_UP;
 8001a84:	4b0b      	ldr	r3, [pc, #44]	; (8001ab4 <MX_TIM10_Init+0x40>)
 8001a86:	2200      	movs	r2, #0
 8001a88:	609a      	str	r2, [r3, #8]
  htim10.Init.Period = 0xffff - 1;
 8001a8a:	4b0a      	ldr	r3, [pc, #40]	; (8001ab4 <MX_TIM10_Init+0x40>)
 8001a8c:	f64f 72fe 	movw	r2, #65534	; 0xfffe
 8001a90:	60da      	str	r2, [r3, #12]
  htim10.Init.ClockDivision = TIM_CLOCKDIVISION_DIV1;
 8001a92:	4b08      	ldr	r3, [pc, #32]	; (8001ab4 <MX_TIM10_Init+0x40>)
 8001a94:	2200      	movs	r2, #0
 8001a96:	611a      	str	r2, [r3, #16]
  htim10.Init.AutoReloadPreload = TIM_AUTORELOAD_PRELOAD_DISABLE;
 8001a98:	4b06      	ldr	r3, [pc, #24]	; (8001ab4 <MX_TIM10_Init+0x40>)
 8001a9a:	2200      	movs	r2, #0
 8001a9c:	619a      	str	r2, [r3, #24]
  if (HAL_TIM_Base_Init(&htim10) != HAL_OK)
 8001a9e:	4805      	ldr	r0, [pc, #20]	; (8001ab4 <MX_TIM10_Init+0x40>)
 8001aa0:	f002 ff82 	bl	80049a8 <HAL_TIM_Base_Init>
 8001aa4:	4603      	mov	r3, r0
 8001aa6:	2b00      	cmp	r3, #0
 8001aa8:	d001      	beq.n	8001aae <MX_TIM10_Init+0x3a>
  {
    Error_Handler();
 8001aaa:	f000 f889 	bl	8001bc0 <Error_Handler>
  }
  /* USER CODE BEGIN TIM10_Init 2 */

  /* USER CODE END TIM10_Init 2 */

}
 8001aae:	bf00      	nop
 8001ab0:	bd80      	pop	{r7, pc}
 8001ab2:	bf00      	nop
 8001ab4:	20000314 	.word	0x20000314
 8001ab8:	40014400 	.word	0x40014400

08001abc <MX_GPIO_Init>:
  * @brief GPIO Initialization Function
  * @param None
  * @retval None
  */
static void MX_GPIO_Init(void)
{
 8001abc:	b580      	push	{r7, lr}
 8001abe:	b08a      	sub	sp, #40	; 0x28
 8001ac0:	af00      	add	r7, sp, #0
  GPIO_InitTypeDef GPIO_InitStruct = {0};
 8001ac2:	f107 0314 	add.w	r3, r7, #20
 8001ac6:	2200      	movs	r2, #0
 8001ac8:	601a      	str	r2, [r3, #0]
 8001aca:	605a      	str	r2, [r3, #4]
 8001acc:	609a      	str	r2, [r3, #8]
 8001ace:	60da      	str	r2, [r3, #12]
 8001ad0:	611a      	str	r2, [r3, #16]

  /* GPIO Ports Clock Enable */
  __HAL_RCC_GPIOH_CLK_ENABLE();
 8001ad2:	2300      	movs	r3, #0
 8001ad4:	613b      	str	r3, [r7, #16]
 8001ad6:	4b37      	ldr	r3, [pc, #220]	; (8001bb4 <MX_GPIO_Init+0xf8>)
 8001ad8:	6b1b      	ldr	r3, [r3, #48]	; 0x30
 8001ada:	4a36      	ldr	r2, [pc, #216]	; (8001bb4 <MX_GPIO_Init+0xf8>)
 8001adc:	f043 0380 	orr.w	r3, r3, #128	; 0x80
 8001ae0:	6313      	str	r3, [r2, #48]	; 0x30
 8001ae2:	4b34      	ldr	r3, [pc, #208]	; (8001bb4 <MX_GPIO_Init+0xf8>)
 8001ae4:	6b1b      	ldr	r3, [r3, #48]	; 0x30
 8001ae6:	f003 0380 	and.w	r3, r3, #128	; 0x80
 8001aea:	613b      	str	r3, [r7, #16]
 8001aec:	693b      	ldr	r3, [r7, #16]
  __HAL_RCC_GPIOA_CLK_ENABLE();
 8001aee:	2300      	movs	r3, #0
 8001af0:	60fb      	str	r3, [r7, #12]
 8001af2:	4b30      	ldr	r3, [pc, #192]	; (8001bb4 <MX_GPIO_Init+0xf8>)
 8001af4:	6b1b      	ldr	r3, [r3, #48]	; 0x30
 8001af6:	4a2f      	ldr	r2, [pc, #188]	; (8001bb4 <MX_GPIO_Init+0xf8>)
 8001af8:	f043 0301 	orr.w	r3, r3, #1
 8001afc:	6313      	str	r3, [r2, #48]	; 0x30
 8001afe:	4b2d      	ldr	r3, [pc, #180]	; (8001bb4 <MX_GPIO_Init+0xf8>)
 8001b00:	6b1b      	ldr	r3, [r3, #48]	; 0x30
 8001b02:	f003 0301 	and.w	r3, r3, #1
 8001b06:	60fb      	str	r3, [r7, #12]
 8001b08:	68fb      	ldr	r3, [r7, #12]
  __HAL_RCC_GPIOB_CLK_ENABLE();
 8001b0a:	2300      	movs	r3, #0
 8001b0c:	60bb      	str	r3, [r7, #8]
 8001b0e:	4b29      	ldr	r3, [pc, #164]	; (8001bb4 <MX_GPIO_Init+0xf8>)
 8001b10:	6b1b      	ldr	r3, [r3, #48]	; 0x30
 8001b12:	4a28      	ldr	r2, [pc, #160]	; (8001bb4 <MX_GPIO_Init+0xf8>)
 8001b14:	f043 0302 	orr.w	r3, r3, #2
 8001b18:	6313      	str	r3, [r2, #48]	; 0x30
 8001b1a:	4b26      	ldr	r3, [pc, #152]	; (8001bb4 <MX_GPIO_Init+0xf8>)
 8001b1c:	6b1b      	ldr	r3, [r3, #48]	; 0x30
 8001b1e:	f003 0302 	and.w	r3, r3, #2
 8001b22:	60bb      	str	r3, [r7, #8]
 8001b24:	68bb      	ldr	r3, [r7, #8]
  __HAL_RCC_GPIOD_CLK_ENABLE();
 8001b26:	2300      	movs	r3, #0
 8001b28:	607b      	str	r3, [r7, #4]
 8001b2a:	4b22      	ldr	r3, [pc, #136]	; (8001bb4 <MX_GPIO_Init+0xf8>)
 8001b2c:	6b1b      	ldr	r3, [r3, #48]	; 0x30
 8001b2e:	4a21      	ldr	r2, [pc, #132]	; (8001bb4 <MX_GPIO_Init+0xf8>)
 8001b30:	f043 0308 	orr.w	r3, r3, #8
 8001b34:	6313      	str	r3, [r2, #48]	; 0x30
 8001b36:	4b1f      	ldr	r3, [pc, #124]	; (8001bb4 <MX_GPIO_Init+0xf8>)
 8001b38:	6b1b      	ldr	r3, [r3, #48]	; 0x30
 8001b3a:	f003 0308 	and.w	r3, r3, #8
 8001b3e:	607b      	str	r3, [r7, #4]
 8001b40:	687b      	ldr	r3, [r7, #4]

  /*Configure GPIO pin Output Level */
  HAL_GPIO_WritePin(GPIOA, GPIO_PIN_1, GPIO_PIN_RESET);
 8001b42:	2200      	movs	r2, #0
 8001b44:	2102      	movs	r1, #2
 8001b46:	481c      	ldr	r0, [pc, #112]	; (8001bb8 <MX_GPIO_Init+0xfc>)
 8001b48:	f001 fa56 	bl	8002ff8 <HAL_GPIO_WritePin>

  /*Configure GPIO pin Output Level */
  HAL_GPIO_WritePin(GPIOD, GPIO_PIN_11|GPIO_PIN_12|GPIO_PIN_13|GPIO_PIN_1
 8001b4c:	2200      	movs	r2, #0
 8001b4e:	f643 011e 	movw	r1, #14366	; 0x381e
 8001b52:	481a      	ldr	r0, [pc, #104]	; (8001bbc <MX_GPIO_Init+0x100>)
 8001b54:	f001 fa50 	bl	8002ff8 <HAL_GPIO_WritePin>
                          |GPIO_PIN_2|GPIO_PIN_3|GPIO_PIN_4, GPIO_PIN_RESET);

  /*Configure GPIO pin : PA0 */
  GPIO_InitStruct.Pin = GPIO_PIN_0;
 8001b58:	2301      	movs	r3, #1
 8001b5a:	617b      	str	r3, [r7, #20]
  GPIO_InitStruct.Mode = GPIO_MODE_INPUT;
 8001b5c:	2300      	movs	r3, #0
 8001b5e:	61bb      	str	r3, [r7, #24]
  GPIO_InitStruct.Pull = GPIO_NOPULL;
 8001b60:	2300      	movs	r3, #0
 8001b62:	61fb      	str	r3, [r7, #28]
  HAL_GPIO_Init(GPIOA, &GPIO_InitStruct);
 8001b64:	f107 0314 	add.w	r3, r7, #20
 8001b68:	4619      	mov	r1, r3
 8001b6a:	4813      	ldr	r0, [pc, #76]	; (8001bb8 <MX_GPIO_Init+0xfc>)
 8001b6c:	f001 f8a8 	bl	8002cc0 <HAL_GPIO_Init>

  /*Configure GPIO pin : PA1 */
  GPIO_InitStruct.Pin = GPIO_PIN_1;
 8001b70:	2302      	movs	r3, #2
 8001b72:	617b      	str	r3, [r7, #20]
  GPIO_InitStruct.Mode = GPIO_MODE_OUTPUT_PP;
 8001b74:	2301      	movs	r3, #1
 8001b76:	61bb      	str	r3, [r7, #24]
  GPIO_InitStruct.Pull = GPIO_NOPULL;
 8001b78:	2300      	movs	r3, #0
 8001b7a:	61fb      	str	r3, [r7, #28]
  GPIO_InitStruct.Speed = GPIO_SPEED_FREQ_LOW;
 8001b7c:	2300      	movs	r3, #0
 8001b7e:	623b      	str	r3, [r7, #32]
  HAL_GPIO_Init(GPIOA, &GPIO_InitStruct);
 8001b80:	f107 0314 	add.w	r3, r7, #20
 8001b84:	4619      	mov	r1, r3
 8001b86:	480c      	ldr	r0, [pc, #48]	; (8001bb8 <MX_GPIO_Init+0xfc>)
 8001b88:	f001 f89a 	bl	8002cc0 <HAL_GPIO_Init>

  /*Configure GPIO pins : PD11 PD12 PD13 PD1
                           PD2 PD3 PD4 */
  GPIO_InitStruct.Pin = GPIO_PIN_11|GPIO_PIN_12|GPIO_PIN_13|GPIO_PIN_1
 8001b8c:	f643 031e 	movw	r3, #14366	; 0x381e
 8001b90:	617b      	str	r3, [r7, #20]
                          |GPIO_PIN_2|GPIO_PIN_3|GPIO_PIN_4;
  GPIO_InitStruct.Mode = GPIO_MODE_OUTPUT_PP;
 8001b92:	2301      	movs	r3, #1
 8001b94:	61bb      	str	r3, [r7, #24]
  GPIO_InitStruct.Pull = GPIO_NOPULL;
 8001b96:	2300      	movs	r3, #0
 8001b98:	61fb      	str	r3, [r7, #28]
  GPIO_InitStruct.Speed = GPIO_SPEED_FREQ_LOW;
 8001b9a:	2300      	movs	r3, #0
 8001b9c:	623b      	str	r3, [r7, #32]
  HAL_GPIO_Init(GPIOD, &GPIO_InitStruct);
 8001b9e:	f107 0314 	add.w	r3, r7, #20
 8001ba2:	4619      	mov	r1, r3
 8001ba4:	4805      	ldr	r0, [pc, #20]	; (8001bbc <MX_GPIO_Init+0x100>)
 8001ba6:	f001 f88b 	bl	8002cc0 <HAL_GPIO_Init>

}
 8001baa:	bf00      	nop
 8001bac:	3728      	adds	r7, #40	; 0x28
 8001bae:	46bd      	mov	sp, r7
 8001bb0:	bd80      	pop	{r7, pc}
 8001bb2:	bf00      	nop
 8001bb4:	40023800 	.word	0x40023800
 8001bb8:	40020000 	.word	0x40020000
 8001bbc:	40020c00 	.word	0x40020c00

08001bc0 <Error_Handler>:
/**
  * @brief  This function is executed in case of error occurrence.
  * @retval None
  */
void Error_Handler(void)
{
 8001bc0:	b480      	push	{r7}
 8001bc2:	af00      	add	r7, sp, #0
  \details Disables IRQ interrupts by setting the I-bit in the CPSR.
           Can only be executed in Privileged modes.
 */
__STATIC_FORCEINLINE void __disable_irq(void)
{
  __ASM volatile ("cpsid i" : : : "memory");
 8001bc4:	b672      	cpsid	i
}
 8001bc6:	bf00      	nop
  /* USER CODE BEGIN Error_Handler_Debug */
  /* User can add his own implementation to report the HAL error return state */
  __disable_irq();
  while (1)
 8001bc8:	e7fe      	b.n	8001bc8 <Error_Handler+0x8>
	...

08001bcc <HAL_MspInit>:
/* USER CODE END 0 */
/**
  * Initializes the Global MSP.
  */
void HAL_MspInit(void)
{
 8001bcc:	b580      	push	{r7, lr}
 8001bce:	b082      	sub	sp, #8
 8001bd0:	af00      	add	r7, sp, #0
  /* USER CODE BEGIN MspInit 0 */

  /* USER CODE END MspInit 0 */

  __HAL_RCC_SYSCFG_CLK_ENABLE();
 8001bd2:	2300      	movs	r3, #0
 8001bd4:	607b      	str	r3, [r7, #4]
 8001bd6:	4b10      	ldr	r3, [pc, #64]	; (8001c18 <HAL_MspInit+0x4c>)
 8001bd8:	6c5b      	ldr	r3, [r3, #68]	; 0x44
 8001bda:	4a0f      	ldr	r2, [pc, #60]	; (8001c18 <HAL_MspInit+0x4c>)
 8001bdc:	f443 4380 	orr.w	r3, r3, #16384	; 0x4000
 8001be0:	6453      	str	r3, [r2, #68]	; 0x44
 8001be2:	4b0d      	ldr	r3, [pc, #52]	; (8001c18 <HAL_MspInit+0x4c>)
 8001be4:	6c5b      	ldr	r3, [r3, #68]	; 0x44
 8001be6:	f403 4380 	and.w	r3, r3, #16384	; 0x4000
 8001bea:	607b      	str	r3, [r7, #4]
 8001bec:	687b      	ldr	r3, [r7, #4]
  __HAL_RCC_PWR_CLK_ENABLE();
 8001bee:	2300      	movs	r3, #0
 8001bf0:	603b      	str	r3, [r7, #0]
 8001bf2:	4b09      	ldr	r3, [pc, #36]	; (8001c18 <HAL_MspInit+0x4c>)
 8001bf4:	6c1b      	ldr	r3, [r3, #64]	; 0x40
 8001bf6:	4a08      	ldr	r2, [pc, #32]	; (8001c18 <HAL_MspInit+0x4c>)
 8001bf8:	f043 5380 	orr.w	r3, r3, #268435456	; 0x10000000
 8001bfc:	6413      	str	r3, [r2, #64]	; 0x40
 8001bfe:	4b06      	ldr	r3, [pc, #24]	; (8001c18 <HAL_MspInit+0x4c>)
 8001c00:	6c1b      	ldr	r3, [r3, #64]	; 0x40
 8001c02:	f003 5380 	and.w	r3, r3, #268435456	; 0x10000000
 8001c06:	603b      	str	r3, [r7, #0]
 8001c08:	683b      	ldr	r3, [r7, #0]

  HAL_NVIC_SetPriorityGrouping(NVIC_PRIORITYGROUP_0);
 8001c0a:	2007      	movs	r0, #7
 8001c0c:	f001 f816 	bl	8002c3c <HAL_NVIC_SetPriorityGrouping>
  /* System interrupt init*/

  /* USER CODE BEGIN MspInit 1 */

  /* USER CODE END MspInit 1 */
}
 8001c10:	bf00      	nop
 8001c12:	3708      	adds	r7, #8
 8001c14:	46bd      	mov	sp, r7
 8001c16:	bd80      	pop	{r7, pc}
 8001c18:	40023800 	.word	0x40023800

08001c1c <HAL_ADC_MspInit>:
* This function configures the hardware resources used in this example
* @param hadc: ADC handle pointer
* @retval None
*/
void HAL_ADC_MspInit(ADC_HandleTypeDef* hadc)
{
 8001c1c:	b580      	push	{r7, lr}
 8001c1e:	b08a      	sub	sp, #40	; 0x28
 8001c20:	af00      	add	r7, sp, #0
 8001c22:	6078      	str	r0, [r7, #4]
  GPIO_InitTypeDef GPIO_InitStruct = {0};
 8001c24:	f107 0314 	add.w	r3, r7, #20
 8001c28:	2200      	movs	r2, #0
 8001c2a:	601a      	str	r2, [r3, #0]
 8001c2c:	605a      	str	r2, [r3, #4]
 8001c2e:	609a      	str	r2, [r3, #8]
 8001c30:	60da      	str	r2, [r3, #12]
 8001c32:	611a      	str	r2, [r3, #16]
  if(hadc->Instance==ADC1)
 8001c34:	687b      	ldr	r3, [r7, #4]
 8001c36:	681b      	ldr	r3, [r3, #0]
 8001c38:	4a1b      	ldr	r2, [pc, #108]	; (8001ca8 <HAL_ADC_MspInit+0x8c>)
 8001c3a:	4293      	cmp	r3, r2
 8001c3c:	d12f      	bne.n	8001c9e <HAL_ADC_MspInit+0x82>
  {
  /* USER CODE BEGIN ADC1_MspInit 0 */

  /* USER CODE END ADC1_MspInit 0 */
    /* Peripheral clock enable */
    __HAL_RCC_ADC1_CLK_ENABLE();
 8001c3e:	2300      	movs	r3, #0
 8001c40:	613b      	str	r3, [r7, #16]
 8001c42:	4b1a      	ldr	r3, [pc, #104]	; (8001cac <HAL_ADC_MspInit+0x90>)
 8001c44:	6c5b      	ldr	r3, [r3, #68]	; 0x44
 8001c46:	4a19      	ldr	r2, [pc, #100]	; (8001cac <HAL_ADC_MspInit+0x90>)
 8001c48:	f443 7380 	orr.w	r3, r3, #256	; 0x100
 8001c4c:	6453      	str	r3, [r2, #68]	; 0x44
 8001c4e:	4b17      	ldr	r3, [pc, #92]	; (8001cac <HAL_ADC_MspInit+0x90>)
 8001c50:	6c5b      	ldr	r3, [r3, #68]	; 0x44
 8001c52:	f403 7380 	and.w	r3, r3, #256	; 0x100
 8001c56:	613b      	str	r3, [r7, #16]
 8001c58:	693b      	ldr	r3, [r7, #16]

    __HAL_RCC_GPIOB_CLK_ENABLE();
 8001c5a:	2300      	movs	r3, #0
 8001c5c:	60fb      	str	r3, [r7, #12]
 8001c5e:	4b13      	ldr	r3, [pc, #76]	; (8001cac <HAL_ADC_MspInit+0x90>)
 8001c60:	6b1b      	ldr	r3, [r3, #48]	; 0x30
 8001c62:	4a12      	ldr	r2, [pc, #72]	; (8001cac <HAL_ADC_MspInit+0x90>)
 8001c64:	f043 0302 	orr.w	r3, r3, #2
 8001c68:	6313      	str	r3, [r2, #48]	; 0x30
 8001c6a:	4b10      	ldr	r3, [pc, #64]	; (8001cac <HAL_ADC_MspInit+0x90>)
 8001c6c:	6b1b      	ldr	r3, [r3, #48]	; 0x30
 8001c6e:	f003 0302 	and.w	r3, r3, #2
 8001c72:	60fb      	str	r3, [r7, #12]
 8001c74:	68fb      	ldr	r3, [r7, #12]
    /**ADC1 GPIO Configuration
    PB1     ------> ADC1_IN9
    */
    GPIO_InitStruct.Pin = GPIO_PIN_1;
 8001c76:	2302      	movs	r3, #2
 8001c78:	617b      	str	r3, [r7, #20]
    GPIO_InitStruct.Mode = GPIO_MODE_ANALOG;
 8001c7a:	2303      	movs	r3, #3
 8001c7c:	61bb      	str	r3, [r7, #24]
    GPIO_InitStruct.Pull = GPIO_NOPULL;
 8001c7e:	2300      	movs	r3, #0
 8001c80:	61fb      	str	r3, [r7, #28]
    HAL_GPIO_Init(GPIOB, &GPIO_InitStruct);
 8001c82:	f107 0314 	add.w	r3, r7, #20
 8001c86:	4619      	mov	r1, r3
 8001c88:	4809      	ldr	r0, [pc, #36]	; (8001cb0 <HAL_ADC_MspInit+0x94>)
 8001c8a:	f001 f819 	bl	8002cc0 <HAL_GPIO_Init>

    /* ADC1 interrupt Init */
    HAL_NVIC_SetPriority(ADC_IRQn, 0, 0);
 8001c8e:	2200      	movs	r2, #0
 8001c90:	2100      	movs	r1, #0
 8001c92:	2012      	movs	r0, #18
 8001c94:	f000 ffdd 	bl	8002c52 <HAL_NVIC_SetPriority>
    HAL_NVIC_EnableIRQ(ADC_IRQn);
 8001c98:	2012      	movs	r0, #18
 8001c9a:	f000 fff6 	bl	8002c8a <HAL_NVIC_EnableIRQ>
  /* USER CODE BEGIN ADC1_MspInit 1 */

  /* USER CODE END ADC1_MspInit 1 */
  }

}
 8001c9e:	bf00      	nop
 8001ca0:	3728      	adds	r7, #40	; 0x28
 8001ca2:	46bd      	mov	sp, r7
 8001ca4:	bd80      	pop	{r7, pc}
 8001ca6:	bf00      	nop
 8001ca8:	40012000 	.word	0x40012000
 8001cac:	40023800 	.word	0x40023800
 8001cb0:	40020400 	.word	0x40020400

08001cb4 <HAL_I2C_MspInit>:
* This function configures the hardware resources used in this example
* @param hi2c: I2C handle pointer
* @retval None
*/
void HAL_I2C_MspInit(I2C_HandleTypeDef* hi2c)
{
 8001cb4:	b580      	push	{r7, lr}
 8001cb6:	b08a      	sub	sp, #40	; 0x28
 8001cb8:	af00      	add	r7, sp, #0
 8001cba:	6078      	str	r0, [r7, #4]
  GPIO_InitTypeDef GPIO_InitStruct = {0};
 8001cbc:	f107 0314 	add.w	r3, r7, #20
 8001cc0:	2200      	movs	r2, #0
 8001cc2:	601a      	str	r2, [r3, #0]
 8001cc4:	605a      	str	r2, [r3, #4]
 8001cc6:	609a      	str	r2, [r3, #8]
 8001cc8:	60da      	str	r2, [r3, #12]
 8001cca:	611a      	str	r2, [r3, #16]
  if(hi2c->Instance==I2C1)
 8001ccc:	687b      	ldr	r3, [r7, #4]
 8001cce:	681b      	ldr	r3, [r3, #0]
 8001cd0:	4a19      	ldr	r2, [pc, #100]	; (8001d38 <HAL_I2C_MspInit+0x84>)
 8001cd2:	4293      	cmp	r3, r2
 8001cd4:	d12b      	bne.n	8001d2e <HAL_I2C_MspInit+0x7a>
  {
  /* USER CODE BEGIN I2C1_MspInit 0 */

  /* USER CODE END I2C1_MspInit 0 */

    __HAL_RCC_GPIOB_CLK_ENABLE();
 8001cd6:	2300      	movs	r3, #0
 8001cd8:	613b      	str	r3, [r7, #16]
 8001cda:	4b18      	ldr	r3, [pc, #96]	; (8001d3c <HAL_I2C_MspInit+0x88>)
 8001cdc:	6b1b      	ldr	r3, [r3, #48]	; 0x30
 8001cde:	4a17      	ldr	r2, [pc, #92]	; (8001d3c <HAL_I2C_MspInit+0x88>)
 8001ce0:	f043 0302 	orr.w	r3, r3, #2
 8001ce4:	6313      	str	r3, [r2, #48]	; 0x30
 8001ce6:	4b15      	ldr	r3, [pc, #84]	; (8001d3c <HAL_I2C_MspInit+0x88>)
 8001ce8:	6b1b      	ldr	r3, [r3, #48]	; 0x30
 8001cea:	f003 0302 	and.w	r3, r3, #2
 8001cee:	613b      	str	r3, [r7, #16]
 8001cf0:	693b      	ldr	r3, [r7, #16]
    /**I2C1 GPIO Configuration
    PB6     ------> I2C1_SCL
    PB7     ------> I2C1_SDA
    */
    GPIO_InitStruct.Pin = GPIO_PIN_6|GPIO_PIN_7;
 8001cf2:	23c0      	movs	r3, #192	; 0xc0
 8001cf4:	617b      	str	r3, [r7, #20]
    GPIO_InitStruct.Mode = GPIO_MODE_AF_OD;
 8001cf6:	2312      	movs	r3, #18
 8001cf8:	61bb      	str	r3, [r7, #24]
    GPIO_InitStruct.Pull = GPIO_NOPULL;
 8001cfa:	2300      	movs	r3, #0
 8001cfc:	61fb      	str	r3, [r7, #28]
    GPIO_InitStruct.Speed = GPIO_SPEED_FREQ_VERY_HIGH;
 8001cfe:	2303      	movs	r3, #3
 8001d00:	623b      	str	r3, [r7, #32]
    GPIO_InitStruct.Alternate = GPIO_AF4_I2C1;
 8001d02:	2304      	movs	r3, #4
 8001d04:	627b      	str	r3, [r7, #36]	; 0x24
    HAL_GPIO_Init(GPIOB, &GPIO_InitStruct);
 8001d06:	f107 0314 	add.w	r3, r7, #20
 8001d0a:	4619      	mov	r1, r3
 8001d0c:	480c      	ldr	r0, [pc, #48]	; (8001d40 <HAL_I2C_MspInit+0x8c>)
 8001d0e:	f000 ffd7 	bl	8002cc0 <HAL_GPIO_Init>

    /* Peripheral clock enable */
    __HAL_RCC_I2C1_CLK_ENABLE();
 8001d12:	2300      	movs	r3, #0
 8001d14:	60fb      	str	r3, [r7, #12]
 8001d16:	4b09      	ldr	r3, [pc, #36]	; (8001d3c <HAL_I2C_MspInit+0x88>)
 8001d18:	6c1b      	ldr	r3, [r3, #64]	; 0x40
 8001d1a:	4a08      	ldr	r2, [pc, #32]	; (8001d3c <HAL_I2C_MspInit+0x88>)
 8001d1c:	f443 1300 	orr.w	r3, r3, #2097152	; 0x200000
 8001d20:	6413      	str	r3, [r2, #64]	; 0x40
 8001d22:	4b06      	ldr	r3, [pc, #24]	; (8001d3c <HAL_I2C_MspInit+0x88>)
 8001d24:	6c1b      	ldr	r3, [r3, #64]	; 0x40
 8001d26:	f403 1300 	and.w	r3, r3, #2097152	; 0x200000
 8001d2a:	60fb      	str	r3, [r7, #12]
 8001d2c:	68fb      	ldr	r3, [r7, #12]
  /* USER CODE BEGIN I2C1_MspInit 1 */

  /* USER CODE END I2C1_MspInit 1 */
  }

}
 8001d2e:	bf00      	nop
 8001d30:	3728      	adds	r7, #40	; 0x28
 8001d32:	46bd      	mov	sp, r7
 8001d34:	bd80      	pop	{r7, pc}
 8001d36:	bf00      	nop
 8001d38:	40005400 	.word	0x40005400
 8001d3c:	40023800 	.word	0x40023800
 8001d40:	40020400 	.word	0x40020400

08001d44 <HAL_RTC_MspInit>:
* This function configures the hardware resources used in this example
* @param hrtc: RTC handle pointer
* @retval None
*/
void HAL_RTC_MspInit(RTC_HandleTypeDef* hrtc)
{
 8001d44:	b580      	push	{r7, lr}
 8001d46:	b088      	sub	sp, #32
 8001d48:	af00      	add	r7, sp, #0
 8001d4a:	6078      	str	r0, [r7, #4]
  RCC_PeriphCLKInitTypeDef PeriphClkInitStruct = {0};
 8001d4c:	f107 0308 	add.w	r3, r7, #8
 8001d50:	2200      	movs	r2, #0
 8001d52:	601a      	str	r2, [r3, #0]
 8001d54:	605a      	str	r2, [r3, #4]
 8001d56:	609a      	str	r2, [r3, #8]
 8001d58:	60da      	str	r2, [r3, #12]
 8001d5a:	611a      	str	r2, [r3, #16]
 8001d5c:	615a      	str	r2, [r3, #20]
  if(hrtc->Instance==RTC)
 8001d5e:	687b      	ldr	r3, [r7, #4]
 8001d60:	681b      	ldr	r3, [r3, #0]
 8001d62:	4a0c      	ldr	r2, [pc, #48]	; (8001d94 <HAL_RTC_MspInit+0x50>)
 8001d64:	4293      	cmp	r3, r2
 8001d66:	d111      	bne.n	8001d8c <HAL_RTC_MspInit+0x48>

  /* USER CODE END RTC_MspInit 0 */

  /** Initializes the peripherals clock
  */
    PeriphClkInitStruct.PeriphClockSelection = RCC_PERIPHCLK_RTC;
 8001d68:	2302      	movs	r3, #2
 8001d6a:	60bb      	str	r3, [r7, #8]
    PeriphClkInitStruct.RTCClockSelection = RCC_RTCCLKSOURCE_LSI;
 8001d6c:	f44f 7300 	mov.w	r3, #512	; 0x200
 8001d70:	61bb      	str	r3, [r7, #24]
    if (HAL_RCCEx_PeriphCLKConfig(&PeriphClkInitStruct) != HAL_OK)
 8001d72:	f107 0308 	add.w	r3, r7, #8
 8001d76:	4618      	mov	r0, r3
 8001d78:	f002 fa28 	bl	80041cc <HAL_RCCEx_PeriphCLKConfig>
 8001d7c:	4603      	mov	r3, r0
 8001d7e:	2b00      	cmp	r3, #0
 8001d80:	d001      	beq.n	8001d86 <HAL_RTC_MspInit+0x42>
    {
      Error_Handler();
 8001d82:	f7ff ff1d 	bl	8001bc0 <Error_Handler>
    }

    /* Peripheral clock enable */
    __HAL_RCC_RTC_ENABLE();
 8001d86:	4b04      	ldr	r3, [pc, #16]	; (8001d98 <HAL_RTC_MspInit+0x54>)
 8001d88:	2201      	movs	r2, #1
 8001d8a:	601a      	str	r2, [r3, #0]
  /* USER CODE BEGIN RTC_MspInit 1 */

  /* USER CODE END RTC_MspInit 1 */
  }

}
 8001d8c:	bf00      	nop
 8001d8e:	3720      	adds	r7, #32
 8001d90:	46bd      	mov	sp, r7
 8001d92:	bd80      	pop	{r7, pc}
 8001d94:	40002800 	.word	0x40002800
 8001d98:	42470e3c 	.word	0x42470e3c

08001d9c <HAL_TIM_Base_MspInit>:
* This function configures the hardware resources used in this example
* @param htim_base: TIM_Base handle pointer
* @retval None
*/
void HAL_TIM_Base_MspInit(TIM_HandleTypeDef* htim_base)
{
 8001d9c:	b580      	push	{r7, lr}
 8001d9e:	b084      	sub	sp, #16
 8001da0:	af00      	add	r7, sp, #0
 8001da2:	6078      	str	r0, [r7, #4]
  if(htim_base->Instance==TIM4)
 8001da4:	687b      	ldr	r3, [r7, #4]
 8001da6:	681b      	ldr	r3, [r3, #0]
 8001da8:	4a18      	ldr	r2, [pc, #96]	; (8001e0c <HAL_TIM_Base_MspInit+0x70>)
 8001daa:	4293      	cmp	r3, r2
 8001dac:	d116      	bne.n	8001ddc <HAL_TIM_Base_MspInit+0x40>
  {
  /* USER CODE BEGIN TIM4_MspInit 0 */

  /* USER CODE END TIM4_MspInit 0 */
    /* Peripheral clock enable */
    __HAL_RCC_TIM4_CLK_ENABLE();
 8001dae:	2300      	movs	r3, #0
 8001db0:	60fb      	str	r3, [r7, #12]
 8001db2:	4b17      	ldr	r3, [pc, #92]	; (8001e10 <HAL_TIM_Base_MspInit+0x74>)
 8001db4:	6c1b      	ldr	r3, [r3, #64]	; 0x40
 8001db6:	4a16      	ldr	r2, [pc, #88]	; (8001e10 <HAL_TIM_Base_MspInit+0x74>)
 8001db8:	f043 0304 	orr.w	r3, r3, #4
 8001dbc:	6413      	str	r3, [r2, #64]	; 0x40
 8001dbe:	4b14      	ldr	r3, [pc, #80]	; (8001e10 <HAL_TIM_Base_MspInit+0x74>)
 8001dc0:	6c1b      	ldr	r3, [r3, #64]	; 0x40
 8001dc2:	f003 0304 	and.w	r3, r3, #4
 8001dc6:	60fb      	str	r3, [r7, #12]
 8001dc8:	68fb      	ldr	r3, [r7, #12]
    /* TIM4 interrupt Init */
    HAL_NVIC_SetPriority(TIM4_IRQn, 0, 0);
 8001dca:	2200      	movs	r2, #0
 8001dcc:	2100      	movs	r1, #0
 8001dce:	201e      	movs	r0, #30
 8001dd0:	f000 ff3f 	bl	8002c52 <HAL_NVIC_SetPriority>
    HAL_NVIC_EnableIRQ(TIM4_IRQn);
 8001dd4:	201e      	movs	r0, #30
 8001dd6:	f000 ff58 	bl	8002c8a <HAL_NVIC_EnableIRQ>
  /* USER CODE BEGIN TIM10_MspInit 1 */

  /* USER CODE END TIM10_MspInit 1 */
  }

}
 8001dda:	e012      	b.n	8001e02 <HAL_TIM_Base_MspInit+0x66>
  else if(htim_base->Instance==TIM10)
 8001ddc:	687b      	ldr	r3, [r7, #4]
 8001dde:	681b      	ldr	r3, [r3, #0]
 8001de0:	4a0c      	ldr	r2, [pc, #48]	; (8001e14 <HAL_TIM_Base_MspInit+0x78>)
 8001de2:	4293      	cmp	r3, r2
 8001de4:	d10d      	bne.n	8001e02 <HAL_TIM_Base_MspInit+0x66>
    __HAL_RCC_TIM10_CLK_ENABLE();
 8001de6:	2300      	movs	r3, #0
 8001de8:	60bb      	str	r3, [r7, #8]
 8001dea:	4b09      	ldr	r3, [pc, #36]	; (8001e10 <HAL_TIM_Base_MspInit+0x74>)
 8001dec:	6c5b      	ldr	r3, [r3, #68]	; 0x44
 8001dee:	4a08      	ldr	r2, [pc, #32]	; (8001e10 <HAL_TIM_Base_MspInit+0x74>)
 8001df0:	f443 3300 	orr.w	r3, r3, #131072	; 0x20000
 8001df4:	6453      	str	r3, [r2, #68]	; 0x44
 8001df6:	4b06      	ldr	r3, [pc, #24]	; (8001e10 <HAL_TIM_Base_MspInit+0x74>)
 8001df8:	6c5b      	ldr	r3, [r3, #68]	; 0x44
 8001dfa:	f403 3300 	and.w	r3, r3, #131072	; 0x20000
 8001dfe:	60bb      	str	r3, [r7, #8]
 8001e00:	68bb      	ldr	r3, [r7, #8]
}
 8001e02:	bf00      	nop
 8001e04:	3710      	adds	r7, #16
 8001e06:	46bd      	mov	sp, r7
 8001e08:	bd80      	pop	{r7, pc}
 8001e0a:	bf00      	nop
 8001e0c:	40000800 	.word	0x40000800
 8001e10:	40023800 	.word	0x40023800
 8001e14:	40014400 	.word	0x40014400

08001e18 <NMI_Handler>:
/******************************************************************************/
/**
  * @brief This function handles Non maskable interrupt.
  */
void NMI_Handler(void)
{
 8001e18:	b480      	push	{r7}
 8001e1a:	af00      	add	r7, sp, #0
  /* USER CODE BEGIN NonMaskableInt_IRQn 0 */

  /* USER CODE END NonMaskableInt_IRQn 0 */
  /* USER CODE BEGIN NonMaskableInt_IRQn 1 */
  while (1)
 8001e1c:	e7fe      	b.n	8001e1c <NMI_Handler+0x4>

08001e1e <HardFault_Handler>:

/**
  * @brief This function handles Hard fault interrupt.
  */
void HardFault_Handler(void)
{
 8001e1e:	b480      	push	{r7}
 8001e20:	af00      	add	r7, sp, #0
  /* USER CODE BEGIN HardFault_IRQn 0 */

  /* USER CODE END HardFault_IRQn 0 */
  while (1)
 8001e22:	e7fe      	b.n	8001e22 <HardFault_Handler+0x4>

08001e24 <MemManage_Handler>:

/**
  * @brief This function handles Memory management fault.
  */
void MemManage_Handler(void)
{
 8001e24:	b480      	push	{r7}
 8001e26:	af00      	add	r7, sp, #0
  /* USER CODE BEGIN MemoryManagement_IRQn 0 */

  /* USER CODE END MemoryManagement_IRQn 0 */
  while (1)
 8001e28:	e7fe      	b.n	8001e28 <MemManage_Handler+0x4>

08001e2a <BusFault_Handler>:

/**
  * @brief This function handles Pre-fetch fault, memory access fault.
  */
void BusFault_Handler(void)
{
 8001e2a:	b480      	push	{r7}
 8001e2c:	af00      	add	r7, sp, #0
  /* USER CODE BEGIN BusFault_IRQn 0 */

  /* USER CODE END BusFault_IRQn 0 */
  while (1)
 8001e2e:	e7fe      	b.n	8001e2e <BusFault_Handler+0x4>

08001e30 <UsageFault_Handler>:

/**
  * @brief This function handles Undefined instruction or illegal state.
  */
void UsageFault_Handler(void)
{
 8001e30:	b480      	push	{r7}
 8001e32:	af00      	add	r7, sp, #0
  /* USER CODE BEGIN UsageFault_IRQn 0 */

  /* USER CODE END UsageFault_IRQn 0 */
  while (1)
 8001e34:	e7fe      	b.n	8001e34 <UsageFault_Handler+0x4>

08001e36 <SVC_Handler>:

/**
  * @brief This function handles System service call via SWI instruction.
  */
void SVC_Handler(void)
{
 8001e36:	b480      	push	{r7}
 8001e38:	af00      	add	r7, sp, #0

  /* USER CODE END SVCall_IRQn 0 */
  /* USER CODE BEGIN SVCall_IRQn 1 */

  /* USER CODE END SVCall_IRQn 1 */
}
 8001e3a:	bf00      	nop
 8001e3c:	46bd      	mov	sp, r7
 8001e3e:	f85d 7b04 	ldr.w	r7, [sp], #4
 8001e42:	4770      	bx	lr

08001e44 <DebugMon_Handler>:

/**
  * @brief This function handles Debug monitor.
  */
void DebugMon_Handler(void)
{
 8001e44:	b480      	push	{r7}
 8001e46:	af00      	add	r7, sp, #0

  /* USER CODE END DebugMonitor_IRQn 0 */
  /* USER CODE BEGIN DebugMonitor_IRQn 1 */

  /* USER CODE END DebugMonitor_IRQn 1 */
}
 8001e48:	bf00      	nop
 8001e4a:	46bd      	mov	sp, r7
 8001e4c:	f85d 7b04 	ldr.w	r7, [sp], #4
 8001e50:	4770      	bx	lr

08001e52 <PendSV_Handler>:

/**
  * @brief This function handles Pendable request for system service.
  */
void PendSV_Handler(void)
{
 8001e52:	b480      	push	{r7}
 8001e54:	af00      	add	r7, sp, #0

  /* USER CODE END PendSV_IRQn 0 */
  /* USER CODE BEGIN PendSV_IRQn 1 */

  /* USER CODE END PendSV_IRQn 1 */
}
 8001e56:	bf00      	nop
 8001e58:	46bd      	mov	sp, r7
 8001e5a:	f85d 7b04 	ldr.w	r7, [sp], #4
 8001e5e:	4770      	bx	lr

08001e60 <SysTick_Handler>:

/**
  * @brief This function handles System tick timer.
  */
void SysTick_Handler(void)
{
 8001e60:	b580      	push	{r7, lr}
 8001e62:	af00      	add	r7, sp, #0
  /* USER CODE BEGIN SysTick_IRQn 0 */

  /* USER CODE END SysTick_IRQn 0 */
  HAL_IncTick();
 8001e64:	f000 f96a 	bl	800213c <HAL_IncTick>
  /* USER CODE BEGIN SysTick_IRQn 1 */

  /* USER CODE END SysTick_IRQn 1 */
}
 8001e68:	bf00      	nop
 8001e6a:	bd80      	pop	{r7, pc}

08001e6c <ADC_IRQHandler>:

/**
  * @brief This function handles ADC1 global interrupt.
  */
void ADC_IRQHandler(void)
{
 8001e6c:	b580      	push	{r7, lr}
 8001e6e:	af00      	add	r7, sp, #0
  /* USER CODE BEGIN ADC_IRQn 0 */

  /* USER CODE END ADC_IRQn 0 */
  HAL_ADC_IRQHandler(&hadc1);
 8001e70:	4802      	ldr	r0, [pc, #8]	; (8001e7c <ADC_IRQHandler+0x10>)
 8001e72:	f000 faa9 	bl	80023c8 <HAL_ADC_IRQHandler>
  /* USER CODE BEGIN ADC_IRQn 1 */

  /* USER CODE END ADC_IRQn 1 */
}
 8001e76:	bf00      	nop
 8001e78:	bd80      	pop	{r7, pc}
 8001e7a:	bf00      	nop
 8001e7c:	200001f8 	.word	0x200001f8

08001e80 <TIM4_IRQHandler>:

/**
  * @brief This function handles TIM4 global interrupt.
  */
void TIM4_IRQHandler(void)
{
 8001e80:	b580      	push	{r7, lr}
 8001e82:	af00      	add	r7, sp, #0
  /* USER CODE BEGIN TIM4_IRQn 0 */

  /* USER CODE END TIM4_IRQn 0 */
  HAL_TIM_IRQHandler(&htim4);
 8001e84:	4802      	ldr	r0, [pc, #8]	; (8001e90 <TIM4_IRQHandler+0x10>)
 8001e86:	f002 fe9b 	bl	8004bc0 <HAL_TIM_IRQHandler>
  /* USER CODE BEGIN TIM4_IRQn 1 */

  /* USER CODE END TIM4_IRQn 1 */
}
 8001e8a:	bf00      	nop
 8001e8c:	bd80      	pop	{r7, pc}
 8001e8e:	bf00      	nop
 8001e90:	200002cc 	.word	0x200002cc

08001e94 <_getpid>:
void initialise_monitor_handles()
{
}

int _getpid(void)
{
 8001e94:	b480      	push	{r7}
 8001e96:	af00      	add	r7, sp, #0
	return 1;
 8001e98:	2301      	movs	r3, #1
}
 8001e9a:	4618      	mov	r0, r3
 8001e9c:	46bd      	mov	sp, r7
 8001e9e:	f85d 7b04 	ldr.w	r7, [sp], #4
 8001ea2:	4770      	bx	lr

08001ea4 <_kill>:

int _kill(int pid, int sig)
{
 8001ea4:	b580      	push	{r7, lr}
 8001ea6:	b082      	sub	sp, #8
 8001ea8:	af00      	add	r7, sp, #0
 8001eaa:	6078      	str	r0, [r7, #4]
 8001eac:	6039      	str	r1, [r7, #0]
	errno = EINVAL;
 8001eae:	f003 fa1b 	bl	80052e8 <__errno>
 8001eb2:	4603      	mov	r3, r0
 8001eb4:	2216      	movs	r2, #22
 8001eb6:	601a      	str	r2, [r3, #0]
	return -1;
 8001eb8:	f04f 33ff 	mov.w	r3, #4294967295
}
 8001ebc:	4618      	mov	r0, r3
 8001ebe:	3708      	adds	r7, #8
 8001ec0:	46bd      	mov	sp, r7
 8001ec2:	bd80      	pop	{r7, pc}

08001ec4 <_exit>:

void _exit (int status)
{
 8001ec4:	b580      	push	{r7, lr}
 8001ec6:	b082      	sub	sp, #8
 8001ec8:	af00      	add	r7, sp, #0
 8001eca:	6078      	str	r0, [r7, #4]
	_kill(status, -1);
 8001ecc:	f04f 31ff 	mov.w	r1, #4294967295
 8001ed0:	6878      	ldr	r0, [r7, #4]
 8001ed2:	f7ff ffe7 	bl	8001ea4 <_kill>
	while (1) {}		/* Make sure we hang here */
 8001ed6:	e7fe      	b.n	8001ed6 <_exit+0x12>

08001ed8 <_read>:
}

__attribute__((weak)) int _read(int file, char *ptr, int len)
{
 8001ed8:	b580      	push	{r7, lr}
 8001eda:	b086      	sub	sp, #24
 8001edc:	af00      	add	r7, sp, #0
 8001ede:	60f8      	str	r0, [r7, #12]
 8001ee0:	60b9      	str	r1, [r7, #8]
 8001ee2:	607a      	str	r2, [r7, #4]
	int DataIdx;

	for (DataIdx = 0; DataIdx < len; DataIdx++)
 8001ee4:	2300      	movs	r3, #0
 8001ee6:	617b      	str	r3, [r7, #20]
 8001ee8:	e00a      	b.n	8001f00 <_read+0x28>
	{
		*ptr++ = __io_getchar();
 8001eea:	f3af 8000 	nop.w
 8001eee:	4601      	mov	r1, r0
 8001ef0:	68bb      	ldr	r3, [r7, #8]
 8001ef2:	1c5a      	adds	r2, r3, #1
 8001ef4:	60ba      	str	r2, [r7, #8]
 8001ef6:	b2ca      	uxtb	r2, r1
 8001ef8:	701a      	strb	r2, [r3, #0]
	for (DataIdx = 0; DataIdx < len; DataIdx++)
 8001efa:	697b      	ldr	r3, [r7, #20]
 8001efc:	3301      	adds	r3, #1
 8001efe:	617b      	str	r3, [r7, #20]
 8001f00:	697a      	ldr	r2, [r7, #20]
 8001f02:	687b      	ldr	r3, [r7, #4]
 8001f04:	429a      	cmp	r2, r3
 8001f06:	dbf0      	blt.n	8001eea <_read+0x12>
	}

return len;
 8001f08:	687b      	ldr	r3, [r7, #4]
}
 8001f0a:	4618      	mov	r0, r3
 8001f0c:	3718      	adds	r7, #24
 8001f0e:	46bd      	mov	sp, r7
 8001f10:	bd80      	pop	{r7, pc}

08001f12 <_write>:

__attribute__((weak)) int _write(int file, char *ptr, int len)
{
 8001f12:	b580      	push	{r7, lr}
 8001f14:	b086      	sub	sp, #24
 8001f16:	af00      	add	r7, sp, #0
 8001f18:	60f8      	str	r0, [r7, #12]
 8001f1a:	60b9      	str	r1, [r7, #8]
 8001f1c:	607a      	str	r2, [r7, #4]
	int DataIdx;

	for (DataIdx = 0; DataIdx < len; DataIdx++)
 8001f1e:	2300      	movs	r3, #0
 8001f20:	617b      	str	r3, [r7, #20]
 8001f22:	e009      	b.n	8001f38 <_write+0x26>
	{
		__io_putchar(*ptr++);
 8001f24:	68bb      	ldr	r3, [r7, #8]
 8001f26:	1c5a      	adds	r2, r3, #1
 8001f28:	60ba      	str	r2, [r7, #8]
 8001f2a:	781b      	ldrb	r3, [r3, #0]
 8001f2c:	4618      	mov	r0, r3
 8001f2e:	f3af 8000 	nop.w
	for (DataIdx = 0; DataIdx < len; DataIdx++)
 8001f32:	697b      	ldr	r3, [r7, #20]
 8001f34:	3301      	adds	r3, #1
 8001f36:	617b      	str	r3, [r7, #20]
 8001f38:	697a      	ldr	r2, [r7, #20]
 8001f3a:	687b      	ldr	r3, [r7, #4]
 8001f3c:	429a      	cmp	r2, r3
 8001f3e:	dbf1      	blt.n	8001f24 <_write+0x12>
	}
	return len;
 8001f40:	687b      	ldr	r3, [r7, #4]
}
 8001f42:	4618      	mov	r0, r3
 8001f44:	3718      	adds	r7, #24
 8001f46:	46bd      	mov	sp, r7
 8001f48:	bd80      	pop	{r7, pc}

08001f4a <_close>:

int _close(int file)
{
 8001f4a:	b480      	push	{r7}
 8001f4c:	b083      	sub	sp, #12
 8001f4e:	af00      	add	r7, sp, #0
 8001f50:	6078      	str	r0, [r7, #4]
	return -1;
 8001f52:	f04f 33ff 	mov.w	r3, #4294967295
}
 8001f56:	4618      	mov	r0, r3
 8001f58:	370c      	adds	r7, #12
 8001f5a:	46bd      	mov	sp, r7
 8001f5c:	f85d 7b04 	ldr.w	r7, [sp], #4
 8001f60:	4770      	bx	lr

08001f62 <_fstat>:


int _fstat(int file, struct stat *st)
{
 8001f62:	b480      	push	{r7}
 8001f64:	b083      	sub	sp, #12
 8001f66:	af00      	add	r7, sp, #0
 8001f68:	6078      	str	r0, [r7, #4]
 8001f6a:	6039      	str	r1, [r7, #0]
	st->st_mode = S_IFCHR;
 8001f6c:	683b      	ldr	r3, [r7, #0]
 8001f6e:	f44f 5200 	mov.w	r2, #8192	; 0x2000
 8001f72:	605a      	str	r2, [r3, #4]
	return 0;
 8001f74:	2300      	movs	r3, #0
}
 8001f76:	4618      	mov	r0, r3
 8001f78:	370c      	adds	r7, #12
 8001f7a:	46bd      	mov	sp, r7
 8001f7c:	f85d 7b04 	ldr.w	r7, [sp], #4
 8001f80:	4770      	bx	lr

08001f82 <_isatty>:

int _isatty(int file)
{
 8001f82:	b480      	push	{r7}
 8001f84:	b083      	sub	sp, #12
 8001f86:	af00      	add	r7, sp, #0
 8001f88:	6078      	str	r0, [r7, #4]
	return 1;
 8001f8a:	2301      	movs	r3, #1
}
 8001f8c:	4618      	mov	r0, r3
 8001f8e:	370c      	adds	r7, #12
 8001f90:	46bd      	mov	sp, r7
 8001f92:	f85d 7b04 	ldr.w	r7, [sp], #4
 8001f96:	4770      	bx	lr

08001f98 <_lseek>:

int _lseek(int file, int ptr, int dir)
{
 8001f98:	b480      	push	{r7}
 8001f9a:	b085      	sub	sp, #20
 8001f9c:	af00      	add	r7, sp, #0
 8001f9e:	60f8      	str	r0, [r7, #12]
 8001fa0:	60b9      	str	r1, [r7, #8]
 8001fa2:	607a      	str	r2, [r7, #4]
	return 0;
 8001fa4:	2300      	movs	r3, #0
}
 8001fa6:	4618      	mov	r0, r3
 8001fa8:	3714      	adds	r7, #20
 8001faa:	46bd      	mov	sp, r7
 8001fac:	f85d 7b04 	ldr.w	r7, [sp], #4
 8001fb0:	4770      	bx	lr
	...

08001fb4 <_sbrk>:
 *
 * @param incr Memory size
 * @return Pointer to allocated memory
 */
void *_sbrk(ptrdiff_t incr)
{
 8001fb4:	b580      	push	{r7, lr}
 8001fb6:	b086      	sub	sp, #24
 8001fb8:	af00      	add	r7, sp, #0
 8001fba:	6078      	str	r0, [r7, #4]
  extern uint8_t _end; /* Symbol defined in the linker script */
  extern uint8_t _estack; /* Symbol defined in the linker script */
  extern uint32_t _Min_Stack_Size; /* Symbol defined in the linker script */
  const uint32_t stack_limit = (uint32_t)&_estack - (uint32_t)&_Min_Stack_Size;
 8001fbc:	4a14      	ldr	r2, [pc, #80]	; (8002010 <_sbrk+0x5c>)
 8001fbe:	4b15      	ldr	r3, [pc, #84]	; (8002014 <_sbrk+0x60>)
 8001fc0:	1ad3      	subs	r3, r2, r3
 8001fc2:	617b      	str	r3, [r7, #20]
  const uint8_t *max_heap = (uint8_t *)stack_limit;
 8001fc4:	697b      	ldr	r3, [r7, #20]
 8001fc6:	613b      	str	r3, [r7, #16]
  uint8_t *prev_heap_end;

  /* Initialize heap end at first call */
  if (NULL == __sbrk_heap_end)
 8001fc8:	4b13      	ldr	r3, [pc, #76]	; (8002018 <_sbrk+0x64>)
 8001fca:	681b      	ldr	r3, [r3, #0]
 8001fcc:	2b00      	cmp	r3, #0
 8001fce:	d102      	bne.n	8001fd6 <_sbrk+0x22>
  {
    __sbrk_heap_end = &_end;
 8001fd0:	4b11      	ldr	r3, [pc, #68]	; (8002018 <_sbrk+0x64>)
 8001fd2:	4a12      	ldr	r2, [pc, #72]	; (800201c <_sbrk+0x68>)
 8001fd4:	601a      	str	r2, [r3, #0]
  }

  /* Protect heap from growing into the reserved MSP stack */
  if (__sbrk_heap_end + incr > max_heap)
 8001fd6:	4b10      	ldr	r3, [pc, #64]	; (8002018 <_sbrk+0x64>)
 8001fd8:	681a      	ldr	r2, [r3, #0]
 8001fda:	687b      	ldr	r3, [r7, #4]
 8001fdc:	4413      	add	r3, r2
 8001fde:	693a      	ldr	r2, [r7, #16]
 8001fe0:	429a      	cmp	r2, r3
 8001fe2:	d207      	bcs.n	8001ff4 <_sbrk+0x40>
  {
    errno = ENOMEM;
 8001fe4:	f003 f980 	bl	80052e8 <__errno>
 8001fe8:	4603      	mov	r3, r0
 8001fea:	220c      	movs	r2, #12
 8001fec:	601a      	str	r2, [r3, #0]
    return (void *)-1;
 8001fee:	f04f 33ff 	mov.w	r3, #4294967295
 8001ff2:	e009      	b.n	8002008 <_sbrk+0x54>
  }

  prev_heap_end = __sbrk_heap_end;
 8001ff4:	4b08      	ldr	r3, [pc, #32]	; (8002018 <_sbrk+0x64>)
 8001ff6:	681b      	ldr	r3, [r3, #0]
 8001ff8:	60fb      	str	r3, [r7, #12]
  __sbrk_heap_end += incr;
 8001ffa:	4b07      	ldr	r3, [pc, #28]	; (8002018 <_sbrk+0x64>)
 8001ffc:	681a      	ldr	r2, [r3, #0]
 8001ffe:	687b      	ldr	r3, [r7, #4]
 8002000:	4413      	add	r3, r2
 8002002:	4a05      	ldr	r2, [pc, #20]	; (8002018 <_sbrk+0x64>)
 8002004:	6013      	str	r3, [r2, #0]

  return (void *)prev_heap_end;
 8002006:	68fb      	ldr	r3, [r7, #12]
}
 8002008:	4618      	mov	r0, r3
 800200a:	3718      	adds	r7, #24
 800200c:	46bd      	mov	sp, r7
 800200e:	bd80      	pop	{r7, pc}
 8002010:	20020000 	.word	0x20020000
 8002014:	00000400 	.word	0x00000400
 8002018:	20000380 	.word	0x20000380
 800201c:	20000398 	.word	0x20000398

08002020 <SystemInit>:
  *         configuration.
  * @param  None
  * @retval None
  */
void SystemInit(void)
{
 8002020:	b480      	push	{r7}
 8002022:	af00      	add	r7, sp, #0
  /* FPU settings ------------------------------------------------------------*/
  #if (__FPU_PRESENT == 1) && (__FPU_USED == 1)
    SCB->CPACR |= ((3UL << 10*2)|(3UL << 11*2));  /* set CP10 and CP11 Full Access */
 8002024:	4b06      	ldr	r3, [pc, #24]	; (8002040 <SystemInit+0x20>)
 8002026:	f8d3 3088 	ldr.w	r3, [r3, #136]	; 0x88
 800202a:	4a05      	ldr	r2, [pc, #20]	; (8002040 <SystemInit+0x20>)
 800202c:	f443 0370 	orr.w	r3, r3, #15728640	; 0xf00000
 8002030:	f8c2 3088 	str.w	r3, [r2, #136]	; 0x88

  /* Configure the Vector Table location -------------------------------------*/
#if defined(USER_VECT_TAB_ADDRESS)
  SCB->VTOR = VECT_TAB_BASE_ADDRESS | VECT_TAB_OFFSET; /* Vector Table Relocation in Internal SRAM */
#endif /* USER_VECT_TAB_ADDRESS */
}
 8002034:	bf00      	nop
 8002036:	46bd      	mov	sp, r7
 8002038:	f85d 7b04 	ldr.w	r7, [sp], #4
 800203c:	4770      	bx	lr
 800203e:	bf00      	nop
 8002040:	e000ed00 	.word	0xe000ed00

08002044 <Reset_Handler>:

    .section  .text.Reset_Handler
  .weak  Reset_Handler
  .type  Reset_Handler, %function
Reset_Handler:  
  ldr   sp, =_estack    		 /* set stack pointer */
 8002044:	f8df d034 	ldr.w	sp, [pc, #52]	; 800207c <LoopFillZerobss+0x12>

/* Copy the data segment initializers from flash to SRAM */  
  ldr r0, =_sdata
 8002048:	480d      	ldr	r0, [pc, #52]	; (8002080 <LoopFillZerobss+0x16>)
  ldr r1, =_edata
 800204a:	490e      	ldr	r1, [pc, #56]	; (8002084 <LoopFillZerobss+0x1a>)
  ldr r2, =_sidata
 800204c:	4a0e      	ldr	r2, [pc, #56]	; (8002088 <LoopFillZerobss+0x1e>)
  movs r3, #0
 800204e:	2300      	movs	r3, #0
  b LoopCopyDataInit
 8002050:	e002      	b.n	8002058 <LoopCopyDataInit>

08002052 <CopyDataInit>:

CopyDataInit:
  ldr r4, [r2, r3]
 8002052:	58d4      	ldr	r4, [r2, r3]
  str r4, [r0, r3]
 8002054:	50c4      	str	r4, [r0, r3]
  adds r3, r3, #4
 8002056:	3304      	adds	r3, #4

08002058 <LoopCopyDataInit>:

LoopCopyDataInit:
  adds r4, r0, r3
 8002058:	18c4      	adds	r4, r0, r3
  cmp r4, r1
 800205a:	428c      	cmp	r4, r1
  bcc CopyDataInit
 800205c:	d3f9      	bcc.n	8002052 <CopyDataInit>
  
/* Zero fill the bss segment. */
  ldr r2, =_sbss
 800205e:	4a0b      	ldr	r2, [pc, #44]	; (800208c <LoopFillZerobss+0x22>)
  ldr r4, =_ebss
 8002060:	4c0b      	ldr	r4, [pc, #44]	; (8002090 <LoopFillZerobss+0x26>)
  movs r3, #0
 8002062:	2300      	movs	r3, #0
  b LoopFillZerobss
 8002064:	e001      	b.n	800206a <LoopFillZerobss>

08002066 <FillZerobss>:

FillZerobss:
  str  r3, [r2]
 8002066:	6013      	str	r3, [r2, #0]
  adds r2, r2, #4
 8002068:	3204      	adds	r2, #4

0800206a <LoopFillZerobss>:

LoopFillZerobss:
  cmp r2, r4
 800206a:	42a2      	cmp	r2, r4
  bcc FillZerobss
 800206c:	d3fb      	bcc.n	8002066 <FillZerobss>

/* Call the clock system initialization function.*/
  bl  SystemInit   
 800206e:	f7ff ffd7 	bl	8002020 <SystemInit>
/* Call static constructors */
    bl __libc_init_array
 8002072:	f003 f93f 	bl	80052f4 <__libc_init_array>
/* Call the application's entry point.*/
  bl  main
 8002076:	f7ff f9eb 	bl	8001450 <main>
  bx  lr    
 800207a:	4770      	bx	lr
  ldr   sp, =_estack    		 /* set stack pointer */
 800207c:	20020000 	.word	0x20020000
  ldr r0, =_sdata
 8002080:	20000000 	.word	0x20000000
  ldr r1, =_edata
 8002084:	200001dc 	.word	0x200001dc
  ldr r2, =_sidata
 8002088:	08008574 	.word	0x08008574
  ldr r2, =_sbss
 800208c:	200001dc 	.word	0x200001dc
  ldr r4, =_ebss
 8002090:	20000398 	.word	0x20000398

08002094 <DMA1_Stream0_IRQHandler>:
 * @retval None       
*/
    .section  .text.Default_Handler,"ax",%progbits
Default_Handler:
Infinite_Loop:
  b  Infinite_Loop
 8002094:	e7fe      	b.n	8002094 <DMA1_Stream0_IRQHandler>
	...

08002098 <HAL_Init>:
  *         need to ensure that the SysTick time base is always set to 1 millisecond
  *         to have correct HAL operation.
  * @retval HAL status
  */
HAL_StatusTypeDef HAL_Init(void)
{
 8002098:	b580      	push	{r7, lr}
 800209a:	af00      	add	r7, sp, #0
  /* Configure Flash prefetch, Instruction cache, Data cache */ 
#if (INSTRUCTION_CACHE_ENABLE != 0U)
  __HAL_FLASH_INSTRUCTION_CACHE_ENABLE();
 800209c:	4b0e      	ldr	r3, [pc, #56]	; (80020d8 <HAL_Init+0x40>)
 800209e:	681b      	ldr	r3, [r3, #0]
 80020a0:	4a0d      	ldr	r2, [pc, #52]	; (80020d8 <HAL_Init+0x40>)
 80020a2:	f443 7300 	orr.w	r3, r3, #512	; 0x200
 80020a6:	6013      	str	r3, [r2, #0]
#endif /* INSTRUCTION_CACHE_ENABLE */

#if (DATA_CACHE_ENABLE != 0U)
  __HAL_FLASH_DATA_CACHE_ENABLE();
 80020a8:	4b0b      	ldr	r3, [pc, #44]	; (80020d8 <HAL_Init+0x40>)
 80020aa:	681b      	ldr	r3, [r3, #0]
 80020ac:	4a0a      	ldr	r2, [pc, #40]	; (80020d8 <HAL_Init+0x40>)
 80020ae:	f443 6380 	orr.w	r3, r3, #1024	; 0x400
 80020b2:	6013      	str	r3, [r2, #0]
#endif /* DATA_CACHE_ENABLE */

#if (PREFETCH_ENABLE != 0U)
  __HAL_FLASH_PREFETCH_BUFFER_ENABLE();
 80020b4:	4b08      	ldr	r3, [pc, #32]	; (80020d8 <HAL_Init+0x40>)
 80020b6:	681b      	ldr	r3, [r3, #0]
 80020b8:	4a07      	ldr	r2, [pc, #28]	; (80020d8 <HAL_Init+0x40>)
 80020ba:	f443 7380 	orr.w	r3, r3, #256	; 0x100
 80020be:	6013      	str	r3, [r2, #0]
#endif /* PREFETCH_ENABLE */

  /* Set Interrupt Group Priority */
  HAL_NVIC_SetPriorityGrouping(NVIC_PRIORITYGROUP_4);
 80020c0:	2003      	movs	r0, #3
 80020c2:	f000 fdbb 	bl	8002c3c <HAL_NVIC_SetPriorityGrouping>

  /* Use systick as time base source and configure 1ms tick (default clock after Reset is HSI) */
  HAL_InitTick(TICK_INT_PRIORITY);
 80020c6:	2000      	movs	r0, #0
 80020c8:	f000 f808 	bl	80020dc <HAL_InitTick>

  /* Init the low level hardware */
  HAL_MspInit();
 80020cc:	f7ff fd7e 	bl	8001bcc <HAL_MspInit>

  /* Return function status */
  return HAL_OK;
 80020d0:	2300      	movs	r3, #0
}
 80020d2:	4618      	mov	r0, r3
 80020d4:	bd80      	pop	{r7, pc}
 80020d6:	bf00      	nop
 80020d8:	40023c00 	.word	0x40023c00

080020dc <HAL_InitTick>:
  *       implementation  in user file.
  * @param TickPriority Tick interrupt priority.
  * @retval HAL status
  */
__weak HAL_StatusTypeDef HAL_InitTick(uint32_t TickPriority)
{
 80020dc:	b580      	push	{r7, lr}
 80020de:	b082      	sub	sp, #8
 80020e0:	af00      	add	r7, sp, #0
 80020e2:	6078      	str	r0, [r7, #4]
  /* Configure the SysTick to have interrupt in 1ms time basis*/
  if (HAL_SYSTICK_Config(SystemCoreClock / (1000U / uwTickFreq)) > 0U)
 80020e4:	4b12      	ldr	r3, [pc, #72]	; (8002130 <HAL_InitTick+0x54>)
 80020e6:	681a      	ldr	r2, [r3, #0]
 80020e8:	4b12      	ldr	r3, [pc, #72]	; (8002134 <HAL_InitTick+0x58>)
 80020ea:	781b      	ldrb	r3, [r3, #0]
 80020ec:	4619      	mov	r1, r3
 80020ee:	f44f 737a 	mov.w	r3, #1000	; 0x3e8
 80020f2:	fbb3 f3f1 	udiv	r3, r3, r1
 80020f6:	fbb2 f3f3 	udiv	r3, r2, r3
 80020fa:	4618      	mov	r0, r3
 80020fc:	f000 fdd3 	bl	8002ca6 <HAL_SYSTICK_Config>
 8002100:	4603      	mov	r3, r0
 8002102:	2b00      	cmp	r3, #0
 8002104:	d001      	beq.n	800210a <HAL_InitTick+0x2e>
  {
    return HAL_ERROR;
 8002106:	2301      	movs	r3, #1
 8002108:	e00e      	b.n	8002128 <HAL_InitTick+0x4c>
  }

  /* Configure the SysTick IRQ priority */
  if (TickPriority < (1UL << __NVIC_PRIO_BITS))
 800210a:	687b      	ldr	r3, [r7, #4]
 800210c:	2b0f      	cmp	r3, #15
 800210e:	d80a      	bhi.n	8002126 <HAL_InitTick+0x4a>
  {
    HAL_NVIC_SetPriority(SysTick_IRQn, TickPriority, 0U);
 8002110:	2200      	movs	r2, #0
 8002112:	6879      	ldr	r1, [r7, #4]
 8002114:	f04f 30ff 	mov.w	r0, #4294967295
 8002118:	f000 fd9b 	bl	8002c52 <HAL_NVIC_SetPriority>
    uwTickPrio = TickPriority;
 800211c:	4a06      	ldr	r2, [pc, #24]	; (8002138 <HAL_InitTick+0x5c>)
 800211e:	687b      	ldr	r3, [r7, #4]
 8002120:	6013      	str	r3, [r2, #0]
  {
    return HAL_ERROR;
  }

  /* Return function status */
  return HAL_OK;
 8002122:	2300      	movs	r3, #0
 8002124:	e000      	b.n	8002128 <HAL_InitTick+0x4c>
    return HAL_ERROR;
 8002126:	2301      	movs	r3, #1
}
 8002128:	4618      	mov	r0, r3
 800212a:	3708      	adds	r7, #8
 800212c:	46bd      	mov	sp, r7
 800212e:	bd80      	pop	{r7, pc}
 8002130:	20000000 	.word	0x20000000
 8002134:	20000008 	.word	0x20000008
 8002138:	20000004 	.word	0x20000004

0800213c <HAL_IncTick>:
 * @note This function is declared as __weak to be overwritten in case of other 
  *      implementations in user file.
  * @retval None
  */
__weak void HAL_IncTick(void)
{
 800213c:	b480      	push	{r7}
 800213e:	af00      	add	r7, sp, #0
  uwTick += uwTickFreq;
 8002140:	4b06      	ldr	r3, [pc, #24]	; (800215c <HAL_IncTick+0x20>)
 8002142:	781b      	ldrb	r3, [r3, #0]
 8002144:	461a      	mov	r2, r3
 8002146:	4b06      	ldr	r3, [pc, #24]	; (8002160 <HAL_IncTick+0x24>)
 8002148:	681b      	ldr	r3, [r3, #0]
 800214a:	4413      	add	r3, r2
 800214c:	4a04      	ldr	r2, [pc, #16]	; (8002160 <HAL_IncTick+0x24>)
 800214e:	6013      	str	r3, [r2, #0]
}
 8002150:	bf00      	nop
 8002152:	46bd      	mov	sp, r7
 8002154:	f85d 7b04 	ldr.w	r7, [sp], #4
 8002158:	4770      	bx	lr
 800215a:	bf00      	nop
 800215c:	20000008 	.word	0x20000008
 8002160:	20000384 	.word	0x20000384

08002164 <HAL_GetTick>:
  * @note This function is declared as __weak to be overwritten in case of other 
  *       implementations in user file.
  * @retval tick value
  */
__weak uint32_t HAL_GetTick(void)
{
 8002164:	b480      	push	{r7}
 8002166:	af00      	add	r7, sp, #0
  return uwTick;
 8002168:	4b03      	ldr	r3, [pc, #12]	; (8002178 <HAL_GetTick+0x14>)
 800216a:	681b      	ldr	r3, [r3, #0]
}
 800216c:	4618      	mov	r0, r3
 800216e:	46bd      	mov	sp, r7
 8002170:	f85d 7b04 	ldr.w	r7, [sp], #4
 8002174:	4770      	bx	lr
 8002176:	bf00      	nop
 8002178:	20000384 	.word	0x20000384

0800217c <HAL_Delay>:
  *       implementations in user file.
  * @param Delay specifies the delay time length, in milliseconds.
  * @retval None
  */
__weak void HAL_Delay(uint32_t Delay)
{
 800217c:	b580      	push	{r7, lr}
 800217e:	b084      	sub	sp, #16
 8002180:	af00      	add	r7, sp, #0
 8002182:	6078      	str	r0, [r7, #4]
  uint32_t tickstart = HAL_GetTick();
 8002184:	f7ff ffee 	bl	8002164 <HAL_GetTick>
 8002188:	60b8      	str	r0, [r7, #8]
  uint32_t wait = Delay;
 800218a:	687b      	ldr	r3, [r7, #4]
 800218c:	60fb      	str	r3, [r7, #12]

  /* Add a freq to guarantee minimum wait */
  if (wait < HAL_MAX_DELAY)
 800218e:	68fb      	ldr	r3, [r7, #12]
 8002190:	f1b3 3fff 	cmp.w	r3, #4294967295
 8002194:	d005      	beq.n	80021a2 <HAL_Delay+0x26>
  {
    wait += (uint32_t)(uwTickFreq);
 8002196:	4b0a      	ldr	r3, [pc, #40]	; (80021c0 <HAL_Delay+0x44>)
 8002198:	781b      	ldrb	r3, [r3, #0]
 800219a:	461a      	mov	r2, r3
 800219c:	68fb      	ldr	r3, [r7, #12]
 800219e:	4413      	add	r3, r2
 80021a0:	60fb      	str	r3, [r7, #12]
  }

  while((HAL_GetTick() - tickstart) < wait)
 80021a2:	bf00      	nop
 80021a4:	f7ff ffde 	bl	8002164 <HAL_GetTick>
 80021a8:	4602      	mov	r2, r0
 80021aa:	68bb      	ldr	r3, [r7, #8]
 80021ac:	1ad3      	subs	r3, r2, r3
 80021ae:	68fa      	ldr	r2, [r7, #12]
 80021b0:	429a      	cmp	r2, r3
 80021b2:	d8f7      	bhi.n	80021a4 <HAL_Delay+0x28>
  {
  }
}
 80021b4:	bf00      	nop
 80021b6:	bf00      	nop
 80021b8:	3710      	adds	r7, #16
 80021ba:	46bd      	mov	sp, r7
 80021bc:	bd80      	pop	{r7, pc}
 80021be:	bf00      	nop
 80021c0:	20000008 	.word	0x20000008

080021c4 <HAL_ADC_Init>:
  * @param  hadc pointer to a ADC_HandleTypeDef structure that contains
  *         the configuration information for the specified ADC.  
  * @retval HAL status
  */
HAL_StatusTypeDef HAL_ADC_Init(ADC_HandleTypeDef* hadc)
{
 80021c4:	b580      	push	{r7, lr}
 80021c6:	b084      	sub	sp, #16
 80021c8:	af00      	add	r7, sp, #0
 80021ca:	6078      	str	r0, [r7, #4]
  HAL_StatusTypeDef tmp_hal_status = HAL_OK;
 80021cc:	2300      	movs	r3, #0
 80021ce:	73fb      	strb	r3, [r7, #15]
  
  /* Check ADC handle */
  if(hadc == NULL)
 80021d0:	687b      	ldr	r3, [r7, #4]
 80021d2:	2b00      	cmp	r3, #0
 80021d4:	d101      	bne.n	80021da <HAL_ADC_Init+0x16>
  {
    return HAL_ERROR;
 80021d6:	2301      	movs	r3, #1
 80021d8:	e033      	b.n	8002242 <HAL_ADC_Init+0x7e>
  if(hadc->Init.ExternalTrigConv != ADC_SOFTWARE_START)
  {
    assert_param(IS_ADC_EXT_TRIG_EDGE(hadc->Init.ExternalTrigConvEdge));
  }
  
  if(hadc->State == HAL_ADC_STATE_RESET)
 80021da:	687b      	ldr	r3, [r7, #4]
 80021dc:	6c1b      	ldr	r3, [r3, #64]	; 0x40
 80021de:	2b00      	cmp	r3, #0
 80021e0:	d109      	bne.n	80021f6 <HAL_ADC_Init+0x32>

    /* Init the low level hardware */
    hadc->MspInitCallback(hadc);
#else
    /* Init the low level hardware */
    HAL_ADC_MspInit(hadc);
 80021e2:	6878      	ldr	r0, [r7, #4]
 80021e4:	f7ff fd1a 	bl	8001c1c <HAL_ADC_MspInit>
#endif /* USE_HAL_ADC_REGISTER_CALLBACKS */

    /* Initialize ADC error code */
    ADC_CLEAR_ERRORCODE(hadc);
 80021e8:	687b      	ldr	r3, [r7, #4]
 80021ea:	2200      	movs	r2, #0
 80021ec:	645a      	str	r2, [r3, #68]	; 0x44
    
    /* Allocate lock resource and initialize it */
    hadc->Lock = HAL_UNLOCKED;
 80021ee:	687b      	ldr	r3, [r7, #4]
 80021f0:	2200      	movs	r2, #0
 80021f2:	f883 203c 	strb.w	r2, [r3, #60]	; 0x3c
  }
  
  /* Configuration of ADC parameters if previous preliminary actions are      */ 
  /* correctly completed.                                                     */
  if (HAL_IS_BIT_CLR(hadc->State, HAL_ADC_STATE_ERROR_INTERNAL))
 80021f6:	687b      	ldr	r3, [r7, #4]
 80021f8:	6c1b      	ldr	r3, [r3, #64]	; 0x40
 80021fa:	f003 0310 	and.w	r3, r3, #16
 80021fe:	2b00      	cmp	r3, #0
 8002200:	d118      	bne.n	8002234 <HAL_ADC_Init+0x70>
  {
    /* Set ADC state */
    ADC_STATE_CLR_SET(hadc->State,
 8002202:	687b      	ldr	r3, [r7, #4]
 8002204:	6c1b      	ldr	r3, [r3, #64]	; 0x40
 8002206:	f423 5388 	bic.w	r3, r3, #4352	; 0x1100
 800220a:	f023 0302 	bic.w	r3, r3, #2
 800220e:	f043 0202 	orr.w	r2, r3, #2
 8002212:	687b      	ldr	r3, [r7, #4]
 8002214:	641a      	str	r2, [r3, #64]	; 0x40
                      HAL_ADC_STATE_REG_BUSY | HAL_ADC_STATE_INJ_BUSY,
                      HAL_ADC_STATE_BUSY_INTERNAL);
    
    /* Set ADC parameters */
    ADC_Init(hadc);
 8002216:	6878      	ldr	r0, [r7, #4]
 8002218:	f000 fb3a 	bl	8002890 <ADC_Init>
    
    /* Set ADC error code to none */
    ADC_CLEAR_ERRORCODE(hadc);
 800221c:	687b      	ldr	r3, [r7, #4]
 800221e:	2200      	movs	r2, #0
 8002220:	645a      	str	r2, [r3, #68]	; 0x44
    
    /* Set the ADC state */
    ADC_STATE_CLR_SET(hadc->State,
 8002222:	687b      	ldr	r3, [r7, #4]
 8002224:	6c1b      	ldr	r3, [r3, #64]	; 0x40
 8002226:	f023 0303 	bic.w	r3, r3, #3
 800222a:	f043 0201 	orr.w	r2, r3, #1
 800222e:	687b      	ldr	r3, [r7, #4]
 8002230:	641a      	str	r2, [r3, #64]	; 0x40
 8002232:	e001      	b.n	8002238 <HAL_ADC_Init+0x74>
                      HAL_ADC_STATE_BUSY_INTERNAL,
                      HAL_ADC_STATE_READY);
  }
  else
  {
    tmp_hal_status = HAL_ERROR;
 8002234:	2301      	movs	r3, #1
 8002236:	73fb      	strb	r3, [r7, #15]
  }
  
  /* Release Lock */
  __HAL_UNLOCK(hadc);
 8002238:	687b      	ldr	r3, [r7, #4]
 800223a:	2200      	movs	r2, #0
 800223c:	f883 203c 	strb.w	r2, [r3, #60]	; 0x3c

  /* Return function status */
  return tmp_hal_status;
 8002240:	7bfb      	ldrb	r3, [r7, #15]
}
 8002242:	4618      	mov	r0, r3
 8002244:	3710      	adds	r7, #16
 8002246:	46bd      	mov	sp, r7
 8002248:	bd80      	pop	{r7, pc}
	...

0800224c <HAL_ADC_Start_IT>:
  * @param  hadc pointer to a ADC_HandleTypeDef structure that contains
  *         the configuration information for the specified ADC.
  * @retval HAL status.
  */
HAL_StatusTypeDef HAL_ADC_Start_IT(ADC_HandleTypeDef* hadc)
{
 800224c:	b480      	push	{r7}
 800224e:	b085      	sub	sp, #20
 8002250:	af00      	add	r7, sp, #0
 8002252:	6078      	str	r0, [r7, #4]
  __IO uint32_t counter = 0U;
 8002254:	2300      	movs	r3, #0
 8002256:	60bb      	str	r3, [r7, #8]
  /* Check the parameters */
  assert_param(IS_FUNCTIONAL_STATE(hadc->Init.ContinuousConvMode));
  assert_param(IS_ADC_EXT_TRIG_EDGE(hadc->Init.ExternalTrigConvEdge)); 
  
  /* Process locked */
  __HAL_LOCK(hadc);
 8002258:	687b      	ldr	r3, [r7, #4]
 800225a:	f893 303c 	ldrb.w	r3, [r3, #60]	; 0x3c
 800225e:	2b01      	cmp	r3, #1
 8002260:	d101      	bne.n	8002266 <HAL_ADC_Start_IT+0x1a>
 8002262:	2302      	movs	r3, #2
 8002264:	e0a1      	b.n	80023aa <HAL_ADC_Start_IT+0x15e>
 8002266:	687b      	ldr	r3, [r7, #4]
 8002268:	2201      	movs	r2, #1
 800226a:	f883 203c 	strb.w	r2, [r3, #60]	; 0x3c
  
  /* Enable the ADC peripheral */
  /* Check if ADC peripheral is disabled in order to enable it and wait during 
  Tstab time the ADC's stabilization */
  if((hadc->Instance->CR2 & ADC_CR2_ADON) != ADC_CR2_ADON)
 800226e:	687b      	ldr	r3, [r7, #4]
 8002270:	681b      	ldr	r3, [r3, #0]
 8002272:	689b      	ldr	r3, [r3, #8]
 8002274:	f003 0301 	and.w	r3, r3, #1
 8002278:	2b01      	cmp	r3, #1
 800227a:	d018      	beq.n	80022ae <HAL_ADC_Start_IT+0x62>
  {  
    /* Enable the Peripheral */
    __HAL_ADC_ENABLE(hadc);
 800227c:	687b      	ldr	r3, [r7, #4]
 800227e:	681b      	ldr	r3, [r3, #0]
 8002280:	689a      	ldr	r2, [r3, #8]
 8002282:	687b      	ldr	r3, [r7, #4]
 8002284:	681b      	ldr	r3, [r3, #0]
 8002286:	f042 0201 	orr.w	r2, r2, #1
 800228a:	609a      	str	r2, [r3, #8]
    
    /* Delay for ADC stabilization time */
    /* Compute number of CPU cycles to wait for */
    counter = (ADC_STAB_DELAY_US * (SystemCoreClock / 1000000U));
 800228c:	4b4a      	ldr	r3, [pc, #296]	; (80023b8 <HAL_ADC_Start_IT+0x16c>)
 800228e:	681b      	ldr	r3, [r3, #0]
 8002290:	4a4a      	ldr	r2, [pc, #296]	; (80023bc <HAL_ADC_Start_IT+0x170>)
 8002292:	fba2 2303 	umull	r2, r3, r2, r3
 8002296:	0c9a      	lsrs	r2, r3, #18
 8002298:	4613      	mov	r3, r2
 800229a:	005b      	lsls	r3, r3, #1
 800229c:	4413      	add	r3, r2
 800229e:	60bb      	str	r3, [r7, #8]
    while(counter != 0U)
 80022a0:	e002      	b.n	80022a8 <HAL_ADC_Start_IT+0x5c>
    {
      counter--;
 80022a2:	68bb      	ldr	r3, [r7, #8]
 80022a4:	3b01      	subs	r3, #1
 80022a6:	60bb      	str	r3, [r7, #8]
    while(counter != 0U)
 80022a8:	68bb      	ldr	r3, [r7, #8]
 80022aa:	2b00      	cmp	r3, #0
 80022ac:	d1f9      	bne.n	80022a2 <HAL_ADC_Start_IT+0x56>
    }
  }
  
  /* Start conversion if ADC is effectively enabled */
  if(HAL_IS_BIT_SET(hadc->Instance->CR2, ADC_CR2_ADON))
 80022ae:	687b      	ldr	r3, [r7, #4]
 80022b0:	681b      	ldr	r3, [r3, #0]
 80022b2:	689b      	ldr	r3, [r3, #8]
 80022b4:	f003 0301 	and.w	r3, r3, #1
 80022b8:	2b01      	cmp	r3, #1
 80022ba:	d169      	bne.n	8002390 <HAL_ADC_Start_IT+0x144>
  {
    /* Set ADC state                                                          */
    /* - Clear state bitfield related to regular group conversion results     */
    /* - Set state bitfield related to regular group operation                */
    ADC_STATE_CLR_SET(hadc->State,
 80022bc:	687b      	ldr	r3, [r7, #4]
 80022be:	6c1b      	ldr	r3, [r3, #64]	; 0x40
 80022c0:	f423 63e0 	bic.w	r3, r3, #1792	; 0x700
 80022c4:	f023 0301 	bic.w	r3, r3, #1
 80022c8:	f443 7280 	orr.w	r2, r3, #256	; 0x100
 80022cc:	687b      	ldr	r3, [r7, #4]
 80022ce:	641a      	str	r2, [r3, #64]	; 0x40
                      HAL_ADC_STATE_READY | HAL_ADC_STATE_REG_EOC | HAL_ADC_STATE_REG_OVR,
                      HAL_ADC_STATE_REG_BUSY);
    
    /* If conversions on group regular are also triggering group injected,    */
    /* update ADC state.                                                      */
    if (READ_BIT(hadc->Instance->CR1, ADC_CR1_JAUTO) != RESET)
 80022d0:	687b      	ldr	r3, [r7, #4]
 80022d2:	681b      	ldr	r3, [r3, #0]
 80022d4:	685b      	ldr	r3, [r3, #4]
 80022d6:	f403 6380 	and.w	r3, r3, #1024	; 0x400
 80022da:	2b00      	cmp	r3, #0
 80022dc:	d007      	beq.n	80022ee <HAL_ADC_Start_IT+0xa2>
    {
      ADC_STATE_CLR_SET(hadc->State, HAL_ADC_STATE_INJ_EOC, HAL_ADC_STATE_INJ_BUSY);  
 80022de:	687b      	ldr	r3, [r7, #4]
 80022e0:	6c1b      	ldr	r3, [r3, #64]	; 0x40
 80022e2:	f423 5340 	bic.w	r3, r3, #12288	; 0x3000
 80022e6:	f443 5280 	orr.w	r2, r3, #4096	; 0x1000
 80022ea:	687b      	ldr	r3, [r7, #4]
 80022ec:	641a      	str	r2, [r3, #64]	; 0x40
    }
    
    /* State machine update: Check if an injected conversion is ongoing */
    if (HAL_IS_BIT_SET(hadc->State, HAL_ADC_STATE_INJ_BUSY))
 80022ee:	687b      	ldr	r3, [r7, #4]
 80022f0:	6c1b      	ldr	r3, [r3, #64]	; 0x40
 80022f2:	f403 5380 	and.w	r3, r3, #4096	; 0x1000
 80022f6:	f5b3 5f80 	cmp.w	r3, #4096	; 0x1000
 80022fa:	d106      	bne.n	800230a <HAL_ADC_Start_IT+0xbe>
    {
      /* Reset ADC error code fields related to conversions on group regular */
      CLEAR_BIT(hadc->ErrorCode, (HAL_ADC_ERROR_OVR | HAL_ADC_ERROR_DMA));         
 80022fc:	687b      	ldr	r3, [r7, #4]
 80022fe:	6c5b      	ldr	r3, [r3, #68]	; 0x44
 8002300:	f023 0206 	bic.w	r2, r3, #6
 8002304:	687b      	ldr	r3, [r7, #4]
 8002306:	645a      	str	r2, [r3, #68]	; 0x44
 8002308:	e002      	b.n	8002310 <HAL_ADC_Start_IT+0xc4>
    }
    else
    {
      /* Reset ADC all error code fields */
      ADC_CLEAR_ERRORCODE(hadc);
 800230a:	687b      	ldr	r3, [r7, #4]
 800230c:	2200      	movs	r2, #0
 800230e:	645a      	str	r2, [r3, #68]	; 0x44
    }

    /* Process unlocked */
    /* Unlock before starting ADC conversions: in case of potential           */
    /* interruption, to let the process to ADC IRQ Handler.                   */
    __HAL_UNLOCK(hadc);
 8002310:	687b      	ldr	r3, [r7, #4]
 8002312:	2200      	movs	r2, #0
 8002314:	f883 203c 	strb.w	r2, [r3, #60]	; 0x3c

    /* Pointer to the common control register to which is belonging hadc    */
    /* (Depending on STM32F4 product, there may be up to 3 ADCs and 1 common */
    /* control register)                                                    */
    tmpADC_Common = ADC_COMMON_REGISTER(hadc);
 8002318:	4b29      	ldr	r3, [pc, #164]	; (80023c0 <HAL_ADC_Start_IT+0x174>)
 800231a:	60fb      	str	r3, [r7, #12]

    /* Clear regular group conversion flag and overrun flag */
    /* (To ensure of no unknown state from potential previous ADC operations) */
    __HAL_ADC_CLEAR_FLAG(hadc, ADC_FLAG_EOC | ADC_FLAG_OVR);
 800231c:	687b      	ldr	r3, [r7, #4]
 800231e:	681b      	ldr	r3, [r3, #0]
 8002320:	f06f 0222 	mvn.w	r2, #34	; 0x22
 8002324:	601a      	str	r2, [r3, #0]
    
    /* Enable end of conversion interrupt for regular group */
    __HAL_ADC_ENABLE_IT(hadc, (ADC_IT_EOC | ADC_IT_OVR));
 8002326:	687b      	ldr	r3, [r7, #4]
 8002328:	681b      	ldr	r3, [r3, #0]
 800232a:	685b      	ldr	r3, [r3, #4]
 800232c:	687a      	ldr	r2, [r7, #4]
 800232e:	6812      	ldr	r2, [r2, #0]
 8002330:	f043 6380 	orr.w	r3, r3, #67108864	; 0x4000000
 8002334:	f043 0320 	orr.w	r3, r3, #32
 8002338:	6053      	str	r3, [r2, #4]
    
    /* Check if Multimode enabled */
    if(HAL_IS_BIT_CLR(tmpADC_Common->CCR, ADC_CCR_MULTI))
 800233a:	68fb      	ldr	r3, [r7, #12]
 800233c:	685b      	ldr	r3, [r3, #4]
 800233e:	f003 031f 	and.w	r3, r3, #31
 8002342:	2b00      	cmp	r3, #0
 8002344:	d10f      	bne.n	8002366 <HAL_ADC_Start_IT+0x11a>
      if((hadc->Instance == ADC1) || ((hadc->Instance == ADC2) && ((ADC->CCR & ADC_CCR_MULTI_Msk) < ADC_CCR_MULTI_0)) \
                                  || ((hadc->Instance == ADC3) && ((ADC->CCR & ADC_CCR_MULTI_Msk) < ADC_CCR_MULTI_4)))
      {
#endif /* ADC2 || ADC3 */
        /* if no external trigger present enable software conversion of regular channels */
        if((hadc->Instance->CR2 & ADC_CR2_EXTEN) == RESET) 
 8002346:	687b      	ldr	r3, [r7, #4]
 8002348:	681b      	ldr	r3, [r3, #0]
 800234a:	689b      	ldr	r3, [r3, #8]
 800234c:	f003 5340 	and.w	r3, r3, #805306368	; 0x30000000
 8002350:	2b00      	cmp	r3, #0
 8002352:	d129      	bne.n	80023a8 <HAL_ADC_Start_IT+0x15c>
        {
          /* Enable the selected ADC software conversion for regular group */
          hadc->Instance->CR2 |= (uint32_t)ADC_CR2_SWSTART;
 8002354:	687b      	ldr	r3, [r7, #4]
 8002356:	681b      	ldr	r3, [r3, #0]
 8002358:	689a      	ldr	r2, [r3, #8]
 800235a:	687b      	ldr	r3, [r7, #4]
 800235c:	681b      	ldr	r3, [r3, #0]
 800235e:	f042 4280 	orr.w	r2, r2, #1073741824	; 0x40000000
 8002362:	609a      	str	r2, [r3, #8]
 8002364:	e020      	b.n	80023a8 <HAL_ADC_Start_IT+0x15c>
#endif /* ADC2 || ADC3 */
    }
    else
    {
      /* if instance of handle correspond to ADC1 and  no external trigger present enable software conversion of regular channels */
      if((hadc->Instance == ADC1) && ((hadc->Instance->CR2 & ADC_CR2_EXTEN) == RESET))
 8002366:	687b      	ldr	r3, [r7, #4]
 8002368:	681b      	ldr	r3, [r3, #0]
 800236a:	4a16      	ldr	r2, [pc, #88]	; (80023c4 <HAL_ADC_Start_IT+0x178>)
 800236c:	4293      	cmp	r3, r2
 800236e:	d11b      	bne.n	80023a8 <HAL_ADC_Start_IT+0x15c>
 8002370:	687b      	ldr	r3, [r7, #4]
 8002372:	681b      	ldr	r3, [r3, #0]
 8002374:	689b      	ldr	r3, [r3, #8]
 8002376:	f003 5340 	and.w	r3, r3, #805306368	; 0x30000000
 800237a:	2b00      	cmp	r3, #0
 800237c:	d114      	bne.n	80023a8 <HAL_ADC_Start_IT+0x15c>
      {
        /* Enable the selected ADC software conversion for regular group */
          hadc->Instance->CR2 |= (uint32_t)ADC_CR2_SWSTART;
 800237e:	687b      	ldr	r3, [r7, #4]
 8002380:	681b      	ldr	r3, [r3, #0]
 8002382:	689a      	ldr	r2, [r3, #8]
 8002384:	687b      	ldr	r3, [r7, #4]
 8002386:	681b      	ldr	r3, [r3, #0]
 8002388:	f042 4280 	orr.w	r2, r2, #1073741824	; 0x40000000
 800238c:	609a      	str	r2, [r3, #8]
 800238e:	e00b      	b.n	80023a8 <HAL_ADC_Start_IT+0x15c>
    }
  }
  else
  {
    /* Update ADC state machine to error */
    SET_BIT(hadc->State, HAL_ADC_STATE_ERROR_INTERNAL);
 8002390:	687b      	ldr	r3, [r7, #4]
 8002392:	6c1b      	ldr	r3, [r3, #64]	; 0x40
 8002394:	f043 0210 	orr.w	r2, r3, #16
 8002398:	687b      	ldr	r3, [r7, #4]
 800239a:	641a      	str	r2, [r3, #64]	; 0x40

    /* Set ADC error code to ADC IP internal error */
    SET_BIT(hadc->ErrorCode, HAL_ADC_ERROR_INTERNAL);
 800239c:	687b      	ldr	r3, [r7, #4]
 800239e:	6c5b      	ldr	r3, [r3, #68]	; 0x44
 80023a0:	f043 0201 	orr.w	r2, r3, #1
 80023a4:	687b      	ldr	r3, [r7, #4]
 80023a6:	645a      	str	r2, [r3, #68]	; 0x44
  }
  
  /* Return function status */
  return HAL_OK;
 80023a8:	2300      	movs	r3, #0
}
 80023aa:	4618      	mov	r0, r3
 80023ac:	3714      	adds	r7, #20
 80023ae:	46bd      	mov	sp, r7
 80023b0:	f85d 7b04 	ldr.w	r7, [sp], #4
 80023b4:	4770      	bx	lr
 80023b6:	bf00      	nop
 80023b8:	20000000 	.word	0x20000000
 80023bc:	431bde83 	.word	0x431bde83
 80023c0:	40012300 	.word	0x40012300
 80023c4:	40012000 	.word	0x40012000

080023c8 <HAL_ADC_IRQHandler>:
  * @param  hadc pointer to a ADC_HandleTypeDef structure that contains
  *         the configuration information for the specified ADC.
  * @retval None
  */
void HAL_ADC_IRQHandler(ADC_HandleTypeDef* hadc)
{
 80023c8:	b580      	push	{r7, lr}
 80023ca:	b086      	sub	sp, #24
 80023cc:	af00      	add	r7, sp, #0
 80023ce:	6078      	str	r0, [r7, #4]
  uint32_t tmp1 = 0U, tmp2 = 0U;
 80023d0:	2300      	movs	r3, #0
 80023d2:	617b      	str	r3, [r7, #20]
 80023d4:	2300      	movs	r3, #0
 80023d6:	613b      	str	r3, [r7, #16]
  
  uint32_t tmp_sr = hadc->Instance->SR;
 80023d8:	687b      	ldr	r3, [r7, #4]
 80023da:	681b      	ldr	r3, [r3, #0]
 80023dc:	681b      	ldr	r3, [r3, #0]
 80023de:	60fb      	str	r3, [r7, #12]
  uint32_t tmp_cr1 = hadc->Instance->CR1;
 80023e0:	687b      	ldr	r3, [r7, #4]
 80023e2:	681b      	ldr	r3, [r3, #0]
 80023e4:	685b      	ldr	r3, [r3, #4]
 80023e6:	60bb      	str	r3, [r7, #8]
  /* Check the parameters */
  assert_param(IS_FUNCTIONAL_STATE(hadc->Init.ContinuousConvMode));
  assert_param(IS_ADC_REGULAR_LENGTH(hadc->Init.NbrOfConversion));
  assert_param(IS_ADC_EOCSelection(hadc->Init.EOCSelection));
  
  tmp1 = tmp_sr & ADC_FLAG_EOC;
 80023e8:	68fb      	ldr	r3, [r7, #12]
 80023ea:	f003 0302 	and.w	r3, r3, #2
 80023ee:	617b      	str	r3, [r7, #20]
  tmp2 = tmp_cr1 & ADC_IT_EOC;
 80023f0:	68bb      	ldr	r3, [r7, #8]
 80023f2:	f003 0320 	and.w	r3, r3, #32
 80023f6:	613b      	str	r3, [r7, #16]
  /* Check End of conversion flag for regular channels */
  if(tmp1 && tmp2)
 80023f8:	697b      	ldr	r3, [r7, #20]
 80023fa:	2b00      	cmp	r3, #0
 80023fc:	d049      	beq.n	8002492 <HAL_ADC_IRQHandler+0xca>
 80023fe:	693b      	ldr	r3, [r7, #16]
 8002400:	2b00      	cmp	r3, #0
 8002402:	d046      	beq.n	8002492 <HAL_ADC_IRQHandler+0xca>
  {
    /* Update state machine on conversion status if not in error state */
    if (HAL_IS_BIT_CLR(hadc->State, HAL_ADC_STATE_ERROR_INTERNAL))
 8002404:	687b      	ldr	r3, [r7, #4]
 8002406:	6c1b      	ldr	r3, [r3, #64]	; 0x40
 8002408:	f003 0310 	and.w	r3, r3, #16
 800240c:	2b00      	cmp	r3, #0
 800240e:	d105      	bne.n	800241c <HAL_ADC_IRQHandler+0x54>
    {
      /* Set ADC state */
      SET_BIT(hadc->State, HAL_ADC_STATE_REG_EOC); 
 8002410:	687b      	ldr	r3, [r7, #4]
 8002412:	6c1b      	ldr	r3, [r3, #64]	; 0x40
 8002414:	f443 7200 	orr.w	r2, r3, #512	; 0x200
 8002418:	687b      	ldr	r3, [r7, #4]
 800241a:	641a      	str	r2, [r3, #64]	; 0x40
    /* by external trigger, continuous mode or scan sequence on going.      */
    /* Note: On STM32F4, there is no independent flag of end of sequence.   */
    /*       The test of scan sequence on going is done either with scan    */
    /*       sequence disabled or with end of conversion flag set to        */
    /*       of end of sequence.                                            */
    if(ADC_IS_SOFTWARE_START_REGULAR(hadc)                   &&
 800241c:	687b      	ldr	r3, [r7, #4]
 800241e:	681b      	ldr	r3, [r3, #0]
 8002420:	689b      	ldr	r3, [r3, #8]
 8002422:	f003 5340 	and.w	r3, r3, #805306368	; 0x30000000
 8002426:	2b00      	cmp	r3, #0
 8002428:	d12b      	bne.n	8002482 <HAL_ADC_IRQHandler+0xba>
       (hadc->Init.ContinuousConvMode == DISABLE)            &&
 800242a:	687b      	ldr	r3, [r7, #4]
 800242c:	7e1b      	ldrb	r3, [r3, #24]
    if(ADC_IS_SOFTWARE_START_REGULAR(hadc)                   &&
 800242e:	2b00      	cmp	r3, #0
 8002430:	d127      	bne.n	8002482 <HAL_ADC_IRQHandler+0xba>
       (HAL_IS_BIT_CLR(hadc->Instance->SQR1, ADC_SQR1_L) || 
 8002432:	687b      	ldr	r3, [r7, #4]
 8002434:	681b      	ldr	r3, [r3, #0]
 8002436:	6adb      	ldr	r3, [r3, #44]	; 0x2c
 8002438:	f403 0370 	and.w	r3, r3, #15728640	; 0xf00000
       (hadc->Init.ContinuousConvMode == DISABLE)            &&
 800243c:	2b00      	cmp	r3, #0
 800243e:	d006      	beq.n	800244e <HAL_ADC_IRQHandler+0x86>
        HAL_IS_BIT_CLR(hadc->Instance->CR2, ADC_CR2_EOCS)  )   )
 8002440:	687b      	ldr	r3, [r7, #4]
 8002442:	681b      	ldr	r3, [r3, #0]
 8002444:	689b      	ldr	r3, [r3, #8]
 8002446:	f403 6380 	and.w	r3, r3, #1024	; 0x400
       (HAL_IS_BIT_CLR(hadc->Instance->SQR1, ADC_SQR1_L) || 
 800244a:	2b00      	cmp	r3, #0
 800244c:	d119      	bne.n	8002482 <HAL_ADC_IRQHandler+0xba>
    {
      /* Disable ADC end of single conversion interrupt on group regular */
      /* Note: Overrun interrupt was enabled with EOC interrupt in          */
      /* HAL_ADC_Start_IT(), but is not disabled here because can be used   */
      /* by overrun IRQ process below.                                      */
      __HAL_ADC_DISABLE_IT(hadc, ADC_IT_EOC);
 800244e:	687b      	ldr	r3, [r7, #4]
 8002450:	681b      	ldr	r3, [r3, #0]
 8002452:	685a      	ldr	r2, [r3, #4]
 8002454:	687b      	ldr	r3, [r7, #4]
 8002456:	681b      	ldr	r3, [r3, #0]
 8002458:	f022 0220 	bic.w	r2, r2, #32
 800245c:	605a      	str	r2, [r3, #4]
      
      /* Set ADC state */
      CLEAR_BIT(hadc->State, HAL_ADC_STATE_REG_BUSY);
 800245e:	687b      	ldr	r3, [r7, #4]
 8002460:	6c1b      	ldr	r3, [r3, #64]	; 0x40
 8002462:	f423 7280 	bic.w	r2, r3, #256	; 0x100
 8002466:	687b      	ldr	r3, [r7, #4]
 8002468:	641a      	str	r2, [r3, #64]	; 0x40
      
      if (HAL_IS_BIT_CLR(hadc->State, HAL_ADC_STATE_INJ_BUSY))
 800246a:	687b      	ldr	r3, [r7, #4]
 800246c:	6c1b      	ldr	r3, [r3, #64]	; 0x40
 800246e:	f403 5380 	and.w	r3, r3, #4096	; 0x1000
 8002472:	2b00      	cmp	r3, #0
 8002474:	d105      	bne.n	8002482 <HAL_ADC_IRQHandler+0xba>
      {
        SET_BIT(hadc->State, HAL_ADC_STATE_READY);
 8002476:	687b      	ldr	r3, [r7, #4]
 8002478:	6c1b      	ldr	r3, [r3, #64]	; 0x40
 800247a:	f043 0201 	orr.w	r2, r3, #1
 800247e:	687b      	ldr	r3, [r7, #4]
 8002480:	641a      	str	r2, [r3, #64]	; 0x40
    
    /* Conversion complete callback */
#if (USE_HAL_ADC_REGISTER_CALLBACKS == 1)
    hadc->ConvCpltCallback(hadc);
#else
    HAL_ADC_ConvCpltCallback(hadc);
 8002482:	6878      	ldr	r0, [r7, #4]
 8002484:	f7fe ff92 	bl	80013ac <HAL_ADC_ConvCpltCallback>
#endif /* USE_HAL_ADC_REGISTER_CALLBACKS */
    
    /* Clear regular group conversion flag */
    __HAL_ADC_CLEAR_FLAG(hadc, ADC_FLAG_STRT | ADC_FLAG_EOC);
 8002488:	687b      	ldr	r3, [r7, #4]
 800248a:	681b      	ldr	r3, [r3, #0]
 800248c:	f06f 0212 	mvn.w	r2, #18
 8002490:	601a      	str	r2, [r3, #0]
  }
  
  tmp1 = tmp_sr & ADC_FLAG_JEOC;
 8002492:	68fb      	ldr	r3, [r7, #12]
 8002494:	f003 0304 	and.w	r3, r3, #4
 8002498:	617b      	str	r3, [r7, #20]
  tmp2 = tmp_cr1 & ADC_IT_JEOC;
 800249a:	68bb      	ldr	r3, [r7, #8]
 800249c:	f003 0380 	and.w	r3, r3, #128	; 0x80
 80024a0:	613b      	str	r3, [r7, #16]
  /* Check End of conversion flag for injected channels */
  if(tmp1 && tmp2)
 80024a2:	697b      	ldr	r3, [r7, #20]
 80024a4:	2b00      	cmp	r3, #0
 80024a6:	d057      	beq.n	8002558 <HAL_ADC_IRQHandler+0x190>
 80024a8:	693b      	ldr	r3, [r7, #16]
 80024aa:	2b00      	cmp	r3, #0
 80024ac:	d054      	beq.n	8002558 <HAL_ADC_IRQHandler+0x190>
  {
    /* Update state machine on conversion status if not in error state */
    if (HAL_IS_BIT_CLR(hadc->State, HAL_ADC_STATE_ERROR_INTERNAL))
 80024ae:	687b      	ldr	r3, [r7, #4]
 80024b0:	6c1b      	ldr	r3, [r3, #64]	; 0x40
 80024b2:	f003 0310 	and.w	r3, r3, #16
 80024b6:	2b00      	cmp	r3, #0
 80024b8:	d105      	bne.n	80024c6 <HAL_ADC_IRQHandler+0xfe>
    {
      /* Set ADC state */
      SET_BIT(hadc->State, HAL_ADC_STATE_INJ_EOC);
 80024ba:	687b      	ldr	r3, [r7, #4]
 80024bc:	6c1b      	ldr	r3, [r3, #64]	; 0x40
 80024be:	f443 5200 	orr.w	r2, r3, #8192	; 0x2000
 80024c2:	687b      	ldr	r3, [r7, #4]
 80024c4:	641a      	str	r2, [r3, #64]	; 0x40

    /* Determine whether any further conversion upcoming on group injected  */
    /* by external trigger, scan sequence on going or by automatic injected */
    /* conversion from group regular (same conditions as group regular      */
    /* interruption disabling above).                                       */
    if(ADC_IS_SOFTWARE_START_INJECTED(hadc)                    &&
 80024c6:	687b      	ldr	r3, [r7, #4]
 80024c8:	681b      	ldr	r3, [r3, #0]
 80024ca:	689b      	ldr	r3, [r3, #8]
 80024cc:	f403 1340 	and.w	r3, r3, #3145728	; 0x300000
 80024d0:	2b00      	cmp	r3, #0
 80024d2:	d139      	bne.n	8002548 <HAL_ADC_IRQHandler+0x180>
       (HAL_IS_BIT_CLR(hadc->Instance->JSQR, ADC_JSQR_JL)  ||
 80024d4:	687b      	ldr	r3, [r7, #4]
 80024d6:	681b      	ldr	r3, [r3, #0]
 80024d8:	6b9b      	ldr	r3, [r3, #56]	; 0x38
 80024da:	f403 1340 	and.w	r3, r3, #3145728	; 0x300000
    if(ADC_IS_SOFTWARE_START_INJECTED(hadc)                    &&
 80024de:	2b00      	cmp	r3, #0
 80024e0:	d006      	beq.n	80024f0 <HAL_ADC_IRQHandler+0x128>
        HAL_IS_BIT_CLR(hadc->Instance->CR2, ADC_CR2_EOCS)    ) &&
 80024e2:	687b      	ldr	r3, [r7, #4]
 80024e4:	681b      	ldr	r3, [r3, #0]
 80024e6:	689b      	ldr	r3, [r3, #8]
 80024e8:	f403 6380 	and.w	r3, r3, #1024	; 0x400
       (HAL_IS_BIT_CLR(hadc->Instance->JSQR, ADC_JSQR_JL)  ||
 80024ec:	2b00      	cmp	r3, #0
 80024ee:	d12b      	bne.n	8002548 <HAL_ADC_IRQHandler+0x180>
       (HAL_IS_BIT_CLR(hadc->Instance->CR1, ADC_CR1_JAUTO) &&
 80024f0:	687b      	ldr	r3, [r7, #4]
 80024f2:	681b      	ldr	r3, [r3, #0]
 80024f4:	685b      	ldr	r3, [r3, #4]
 80024f6:	f403 6380 	and.w	r3, r3, #1024	; 0x400
        HAL_IS_BIT_CLR(hadc->Instance->CR2, ADC_CR2_EOCS)    ) &&
 80024fa:	2b00      	cmp	r3, #0
 80024fc:	d124      	bne.n	8002548 <HAL_ADC_IRQHandler+0x180>
        (ADC_IS_SOFTWARE_START_REGULAR(hadc)       &&
 80024fe:	687b      	ldr	r3, [r7, #4]
 8002500:	681b      	ldr	r3, [r3, #0]
 8002502:	689b      	ldr	r3, [r3, #8]
 8002504:	f003 5340 	and.w	r3, r3, #805306368	; 0x30000000
       (HAL_IS_BIT_CLR(hadc->Instance->CR1, ADC_CR1_JAUTO) &&
 8002508:	2b00      	cmp	r3, #0
 800250a:	d11d      	bne.n	8002548 <HAL_ADC_IRQHandler+0x180>
        (hadc->Init.ContinuousConvMode == DISABLE)   )       )   )
 800250c:	687b      	ldr	r3, [r7, #4]
 800250e:	7e1b      	ldrb	r3, [r3, #24]
        (ADC_IS_SOFTWARE_START_REGULAR(hadc)       &&
 8002510:	2b00      	cmp	r3, #0
 8002512:	d119      	bne.n	8002548 <HAL_ADC_IRQHandler+0x180>
    {
      /* Disable ADC end of single conversion interrupt on group injected */
      __HAL_ADC_DISABLE_IT(hadc, ADC_IT_JEOC);
 8002514:	687b      	ldr	r3, [r7, #4]
 8002516:	681b      	ldr	r3, [r3, #0]
 8002518:	685a      	ldr	r2, [r3, #4]
 800251a:	687b      	ldr	r3, [r7, #4]
 800251c:	681b      	ldr	r3, [r3, #0]
 800251e:	f022 0280 	bic.w	r2, r2, #128	; 0x80
 8002522:	605a      	str	r2, [r3, #4]
      
      /* Set ADC state */
      CLEAR_BIT(hadc->State, HAL_ADC_STATE_INJ_BUSY);   
 8002524:	687b      	ldr	r3, [r7, #4]
 8002526:	6c1b      	ldr	r3, [r3, #64]	; 0x40
 8002528:	f423 5280 	bic.w	r2, r3, #4096	; 0x1000
 800252c:	687b      	ldr	r3, [r7, #4]
 800252e:	641a      	str	r2, [r3, #64]	; 0x40

      if (HAL_IS_BIT_CLR(hadc->State, HAL_ADC_STATE_REG_BUSY))
 8002530:	687b      	ldr	r3, [r7, #4]
 8002532:	6c1b      	ldr	r3, [r3, #64]	; 0x40
 8002534:	f403 7380 	and.w	r3, r3, #256	; 0x100
 8002538:	2b00      	cmp	r3, #0
 800253a:	d105      	bne.n	8002548 <HAL_ADC_IRQHandler+0x180>
      { 
        SET_BIT(hadc->State, HAL_ADC_STATE_READY);
 800253c:	687b      	ldr	r3, [r7, #4]
 800253e:	6c1b      	ldr	r3, [r3, #64]	; 0x40
 8002540:	f043 0201 	orr.w	r2, r3, #1
 8002544:	687b      	ldr	r3, [r7, #4]
 8002546:	641a      	str	r2, [r3, #64]	; 0x40
    /* Conversion complete callback */ 
    /* Conversion complete callback */ 
#if (USE_HAL_ADC_REGISTER_CALLBACKS == 1)
      hadc->InjectedConvCpltCallback(hadc);
#else
      HAL_ADCEx_InjectedConvCpltCallback(hadc);
 8002548:	6878      	ldr	r0, [r7, #4]
 800254a:	f000 fa9d 	bl	8002a88 <HAL_ADCEx_InjectedConvCpltCallback>
#endif /* USE_HAL_ADC_REGISTER_CALLBACKS */
    
    /* Clear injected group conversion flag */
    __HAL_ADC_CLEAR_FLAG(hadc, (ADC_FLAG_JSTRT | ADC_FLAG_JEOC));
 800254e:	687b      	ldr	r3, [r7, #4]
 8002550:	681b      	ldr	r3, [r3, #0]
 8002552:	f06f 020c 	mvn.w	r2, #12
 8002556:	601a      	str	r2, [r3, #0]
  }
  
  tmp1 = tmp_sr & ADC_FLAG_AWD;
 8002558:	68fb      	ldr	r3, [r7, #12]
 800255a:	f003 0301 	and.w	r3, r3, #1
 800255e:	617b      	str	r3, [r7, #20]
  tmp2 = tmp_cr1 & ADC_IT_AWD;
 8002560:	68bb      	ldr	r3, [r7, #8]
 8002562:	f003 0340 	and.w	r3, r3, #64	; 0x40
 8002566:	613b      	str	r3, [r7, #16]
  /* Check Analog watchdog flag */
  if(tmp1 && tmp2)
 8002568:	697b      	ldr	r3, [r7, #20]
 800256a:	2b00      	cmp	r3, #0
 800256c:	d017      	beq.n	800259e <HAL_ADC_IRQHandler+0x1d6>
 800256e:	693b      	ldr	r3, [r7, #16]
 8002570:	2b00      	cmp	r3, #0
 8002572:	d014      	beq.n	800259e <HAL_ADC_IRQHandler+0x1d6>
  {
    if(__HAL_ADC_GET_FLAG(hadc, ADC_FLAG_AWD))
 8002574:	687b      	ldr	r3, [r7, #4]
 8002576:	681b      	ldr	r3, [r3, #0]
 8002578:	681b      	ldr	r3, [r3, #0]
 800257a:	f003 0301 	and.w	r3, r3, #1
 800257e:	2b01      	cmp	r3, #1
 8002580:	d10d      	bne.n	800259e <HAL_ADC_IRQHandler+0x1d6>
    {
      /* Set ADC state */
      SET_BIT(hadc->State, HAL_ADC_STATE_AWD1);
 8002582:	687b      	ldr	r3, [r7, #4]
 8002584:	6c1b      	ldr	r3, [r3, #64]	; 0x40
 8002586:	f443 3280 	orr.w	r2, r3, #65536	; 0x10000
 800258a:	687b      	ldr	r3, [r7, #4]
 800258c:	641a      	str	r2, [r3, #64]	; 0x40
      
      /* Level out of window callback */
#if (USE_HAL_ADC_REGISTER_CALLBACKS == 1)
      hadc->LevelOutOfWindowCallback(hadc);
#else
      HAL_ADC_LevelOutOfWindowCallback(hadc);
 800258e:	6878      	ldr	r0, [r7, #4]
 8002590:	f000 f837 	bl	8002602 <HAL_ADC_LevelOutOfWindowCallback>
#endif /* USE_HAL_ADC_REGISTER_CALLBACKS */
      
      /* Clear the ADC analog watchdog flag */
      __HAL_ADC_CLEAR_FLAG(hadc, ADC_FLAG_AWD);
 8002594:	687b      	ldr	r3, [r7, #4]
 8002596:	681b      	ldr	r3, [r3, #0]
 8002598:	f06f 0201 	mvn.w	r2, #1
 800259c:	601a      	str	r2, [r3, #0]
    }
  }
  
  tmp1 = tmp_sr & ADC_FLAG_OVR;
 800259e:	68fb      	ldr	r3, [r7, #12]
 80025a0:	f003 0320 	and.w	r3, r3, #32
 80025a4:	617b      	str	r3, [r7, #20]
  tmp2 = tmp_cr1 & ADC_IT_OVR;
 80025a6:	68bb      	ldr	r3, [r7, #8]
 80025a8:	f003 6380 	and.w	r3, r3, #67108864	; 0x4000000
 80025ac:	613b      	str	r3, [r7, #16]
  /* Check Overrun flag */
  if(tmp1 && tmp2)
 80025ae:	697b      	ldr	r3, [r7, #20]
 80025b0:	2b00      	cmp	r3, #0
 80025b2:	d015      	beq.n	80025e0 <HAL_ADC_IRQHandler+0x218>
 80025b4:	693b      	ldr	r3, [r7, #16]
 80025b6:	2b00      	cmp	r3, #0
 80025b8:	d012      	beq.n	80025e0 <HAL_ADC_IRQHandler+0x218>
    /* Note: On STM32F4, ADC overrun can be set through other parameters    */
    /*       refer to description of parameter "EOCSelection" for more      */
    /*       details.                                                       */
    
    /* Set ADC error code to overrun */
    SET_BIT(hadc->ErrorCode, HAL_ADC_ERROR_OVR);
 80025ba:	687b      	ldr	r3, [r7, #4]
 80025bc:	6c5b      	ldr	r3, [r3, #68]	; 0x44
 80025be:	f043 0202 	orr.w	r2, r3, #2
 80025c2:	687b      	ldr	r3, [r7, #4]
 80025c4:	645a      	str	r2, [r3, #68]	; 0x44
    
    /* Clear ADC overrun flag */
    __HAL_ADC_CLEAR_FLAG(hadc, ADC_FLAG_OVR);
 80025c6:	687b      	ldr	r3, [r7, #4]
 80025c8:	681b      	ldr	r3, [r3, #0]
 80025ca:	f06f 0220 	mvn.w	r2, #32
 80025ce:	601a      	str	r2, [r3, #0]
    
    /* Error callback */ 
#if (USE_HAL_ADC_REGISTER_CALLBACKS == 1)
      hadc->ErrorCallback(hadc);
#else
      HAL_ADC_ErrorCallback(hadc);
 80025d0:	6878      	ldr	r0, [r7, #4]
 80025d2:	f000 f820 	bl	8002616 <HAL_ADC_ErrorCallback>
#endif /* USE_HAL_ADC_REGISTER_CALLBACKS */
    
    /* Clear the Overrun flag */
    __HAL_ADC_CLEAR_FLAG(hadc, ADC_FLAG_OVR);
 80025d6:	687b      	ldr	r3, [r7, #4]
 80025d8:	681b      	ldr	r3, [r3, #0]
 80025da:	f06f 0220 	mvn.w	r2, #32
 80025de:	601a      	str	r2, [r3, #0]
  }
}
 80025e0:	bf00      	nop
 80025e2:	3718      	adds	r7, #24
 80025e4:	46bd      	mov	sp, r7
 80025e6:	bd80      	pop	{r7, pc}

080025e8 <HAL_ADC_GetValue>:
  * @param  hadc pointer to a ADC_HandleTypeDef structure that contains
  *         the configuration information for the specified ADC.
  * @retval Converted value
  */
uint32_t HAL_ADC_GetValue(ADC_HandleTypeDef* hadc)
{       
 80025e8:	b480      	push	{r7}
 80025ea:	b083      	sub	sp, #12
 80025ec:	af00      	add	r7, sp, #0
 80025ee:	6078      	str	r0, [r7, #4]
  /* Return the selected ADC converted value */ 
  return hadc->Instance->DR;
 80025f0:	687b      	ldr	r3, [r7, #4]
 80025f2:	681b      	ldr	r3, [r3, #0]
 80025f4:	6cdb      	ldr	r3, [r3, #76]	; 0x4c
}
 80025f6:	4618      	mov	r0, r3
 80025f8:	370c      	adds	r7, #12
 80025fa:	46bd      	mov	sp, r7
 80025fc:	f85d 7b04 	ldr.w	r7, [sp], #4
 8002600:	4770      	bx	lr

08002602 <HAL_ADC_LevelOutOfWindowCallback>:
  * @param  hadc pointer to a ADC_HandleTypeDef structure that contains
  *         the configuration information for the specified ADC.
  * @retval None
  */
__weak void HAL_ADC_LevelOutOfWindowCallback(ADC_HandleTypeDef* hadc)
{
 8002602:	b480      	push	{r7}
 8002604:	b083      	sub	sp, #12
 8002606:	af00      	add	r7, sp, #0
 8002608:	6078      	str	r0, [r7, #4]
  /* Prevent unused argument(s) compilation warning */
  UNUSED(hadc);
  /* NOTE : This function Should not be modified, when the callback is needed,
            the HAL_ADC_LevelOoutOfWindowCallback could be implemented in the user file
   */
}
 800260a:	bf00      	nop
 800260c:	370c      	adds	r7, #12
 800260e:	46bd      	mov	sp, r7
 8002610:	f85d 7b04 	ldr.w	r7, [sp], #4
 8002614:	4770      	bx	lr

08002616 <HAL_ADC_ErrorCallback>:
  * @param  hadc pointer to a ADC_HandleTypeDef structure that contains
  *         the configuration information for the specified ADC.
  * @retval None
  */
__weak void HAL_ADC_ErrorCallback(ADC_HandleTypeDef *hadc)
{
 8002616:	b480      	push	{r7}
 8002618:	b083      	sub	sp, #12
 800261a:	af00      	add	r7, sp, #0
 800261c:	6078      	str	r0, [r7, #4]
  /* Prevent unused argument(s) compilation warning */
  UNUSED(hadc);
  /* NOTE : This function Should not be modified, when the callback is needed,
            the HAL_ADC_ErrorCallback could be implemented in the user file
   */
}
 800261e:	bf00      	nop
 8002620:	370c      	adds	r7, #12
 8002622:	46bd      	mov	sp, r7
 8002624:	f85d 7b04 	ldr.w	r7, [sp], #4
 8002628:	4770      	bx	lr
	...

0800262c <HAL_ADC_ConfigChannel>:
  *         the configuration information for the specified ADC.
  * @param  sConfig ADC configuration structure. 
  * @retval HAL status
  */
HAL_StatusTypeDef HAL_ADC_ConfigChannel(ADC_HandleTypeDef* hadc, ADC_ChannelConfTypeDef* sConfig)
{
 800262c:	b480      	push	{r7}
 800262e:	b085      	sub	sp, #20
 8002630:	af00      	add	r7, sp, #0
 8002632:	6078      	str	r0, [r7, #4]
 8002634:	6039      	str	r1, [r7, #0]
  __IO uint32_t counter = 0U;
 8002636:	2300      	movs	r3, #0
 8002638:	60bb      	str	r3, [r7, #8]
  assert_param(IS_ADC_CHANNEL(sConfig->Channel));
  assert_param(IS_ADC_REGULAR_RANK(sConfig->Rank));
  assert_param(IS_ADC_SAMPLE_TIME(sConfig->SamplingTime));
  
  /* Process locked */
  __HAL_LOCK(hadc);
 800263a:	687b      	ldr	r3, [r7, #4]
 800263c:	f893 303c 	ldrb.w	r3, [r3, #60]	; 0x3c
 8002640:	2b01      	cmp	r3, #1
 8002642:	d101      	bne.n	8002648 <HAL_ADC_ConfigChannel+0x1c>
 8002644:	2302      	movs	r3, #2
 8002646:	e113      	b.n	8002870 <HAL_ADC_ConfigChannel+0x244>
 8002648:	687b      	ldr	r3, [r7, #4]
 800264a:	2201      	movs	r2, #1
 800264c:	f883 203c 	strb.w	r2, [r3, #60]	; 0x3c
    
  /* if ADC_Channel_10 ... ADC_Channel_18 is selected */
  if (sConfig->Channel > ADC_CHANNEL_9)
 8002650:	683b      	ldr	r3, [r7, #0]
 8002652:	681b      	ldr	r3, [r3, #0]
 8002654:	2b09      	cmp	r3, #9
 8002656:	d925      	bls.n	80026a4 <HAL_ADC_ConfigChannel+0x78>
  {
    /* Clear the old sample time */
    hadc->Instance->SMPR1 &= ~ADC_SMPR1(ADC_SMPR1_SMP10, sConfig->Channel);
 8002658:	687b      	ldr	r3, [r7, #4]
 800265a:	681b      	ldr	r3, [r3, #0]
 800265c:	68d9      	ldr	r1, [r3, #12]
 800265e:	683b      	ldr	r3, [r7, #0]
 8002660:	681b      	ldr	r3, [r3, #0]
 8002662:	b29b      	uxth	r3, r3
 8002664:	461a      	mov	r2, r3
 8002666:	4613      	mov	r3, r2
 8002668:	005b      	lsls	r3, r3, #1
 800266a:	4413      	add	r3, r2
 800266c:	3b1e      	subs	r3, #30
 800266e:	2207      	movs	r2, #7
 8002670:	fa02 f303 	lsl.w	r3, r2, r3
 8002674:	43da      	mvns	r2, r3
 8002676:	687b      	ldr	r3, [r7, #4]
 8002678:	681b      	ldr	r3, [r3, #0]
 800267a:	400a      	ands	r2, r1
 800267c:	60da      	str	r2, [r3, #12]
    
    /* Set the new sample time */
    hadc->Instance->SMPR1 |= ADC_SMPR1(sConfig->SamplingTime, sConfig->Channel);
 800267e:	687b      	ldr	r3, [r7, #4]
 8002680:	681b      	ldr	r3, [r3, #0]
 8002682:	68d9      	ldr	r1, [r3, #12]
 8002684:	683b      	ldr	r3, [r7, #0]
 8002686:	689a      	ldr	r2, [r3, #8]
 8002688:	683b      	ldr	r3, [r7, #0]
 800268a:	681b      	ldr	r3, [r3, #0]
 800268c:	b29b      	uxth	r3, r3
 800268e:	4618      	mov	r0, r3
 8002690:	4603      	mov	r3, r0
 8002692:	005b      	lsls	r3, r3, #1
 8002694:	4403      	add	r3, r0
 8002696:	3b1e      	subs	r3, #30
 8002698:	409a      	lsls	r2, r3
 800269a:	687b      	ldr	r3, [r7, #4]
 800269c:	681b      	ldr	r3, [r3, #0]
 800269e:	430a      	orrs	r2, r1
 80026a0:	60da      	str	r2, [r3, #12]
 80026a2:	e022      	b.n	80026ea <HAL_ADC_ConfigChannel+0xbe>
  }
  else /* ADC_Channel include in ADC_Channel_[0..9] */
  {
    /* Clear the old sample time */
    hadc->Instance->SMPR2 &= ~ADC_SMPR2(ADC_SMPR2_SMP0, sConfig->Channel);
 80026a4:	687b      	ldr	r3, [r7, #4]
 80026a6:	681b      	ldr	r3, [r3, #0]
 80026a8:	6919      	ldr	r1, [r3, #16]
 80026aa:	683b      	ldr	r3, [r7, #0]
 80026ac:	681b      	ldr	r3, [r3, #0]
 80026ae:	b29b      	uxth	r3, r3
 80026b0:	461a      	mov	r2, r3
 80026b2:	4613      	mov	r3, r2
 80026b4:	005b      	lsls	r3, r3, #1
 80026b6:	4413      	add	r3, r2
 80026b8:	2207      	movs	r2, #7
 80026ba:	fa02 f303 	lsl.w	r3, r2, r3
 80026be:	43da      	mvns	r2, r3
 80026c0:	687b      	ldr	r3, [r7, #4]
 80026c2:	681b      	ldr	r3, [r3, #0]
 80026c4:	400a      	ands	r2, r1
 80026c6:	611a      	str	r2, [r3, #16]
    
    /* Set the new sample time */
    hadc->Instance->SMPR2 |= ADC_SMPR2(sConfig->SamplingTime, sConfig->Channel);
 80026c8:	687b      	ldr	r3, [r7, #4]
 80026ca:	681b      	ldr	r3, [r3, #0]
 80026cc:	6919      	ldr	r1, [r3, #16]
 80026ce:	683b      	ldr	r3, [r7, #0]
 80026d0:	689a      	ldr	r2, [r3, #8]
 80026d2:	683b      	ldr	r3, [r7, #0]
 80026d4:	681b      	ldr	r3, [r3, #0]
 80026d6:	b29b      	uxth	r3, r3
 80026d8:	4618      	mov	r0, r3
 80026da:	4603      	mov	r3, r0
 80026dc:	005b      	lsls	r3, r3, #1
 80026de:	4403      	add	r3, r0
 80026e0:	409a      	lsls	r2, r3
 80026e2:	687b      	ldr	r3, [r7, #4]
 80026e4:	681b      	ldr	r3, [r3, #0]
 80026e6:	430a      	orrs	r2, r1
 80026e8:	611a      	str	r2, [r3, #16]
  }
  
